:020000040000FA
:100000000C94EA010C941B020C941B020C941B022E
:100010000C941B020C941B020C941B020C941B02EC
:100020000C941B020C941B020C941B020C941B02DC
:100030000C941B020C941B020C941B020C941B02CC
:100040000C941B020C941B020C941B020C941B02BC
:100050000C941B020C941B020C941B020C948D300C
:100060000C941B020C9457300C942D300C941B02F2
:100070000C941B020C941B020C941B020C941B028C
:100080000C941B020C941B020C941B020C941B027C
:100090000C941B020C941B020C941B020C94D73082
:1000A0000C941B020C941B020C941B020C941B025C
:1000B0000C941B020C941B020C941B020C941B024C
:1000C0000C941B020C941B020C941B020C941B023C
:1000D0000C941B020C941B020C941B020C941B022C
:1000E0000C941B020C94E9150C94A2030C94C1020D
:1000F0000C9442050C94671A0C9423020C94752EF0
:100100000C949C030C94C3250C9455050C94C203C9
:100110000C94FB230C9421020C944F1F0C94AA0303
:100120000C94BD030C9408060C942C220C948902A8
:100130000C9492030C94CC260C9475100C94772D8F
:100140000C948F030C94ED120C941D020C947022ED
:100150000C9422020C9456220C94CB070C944F233F
:100160000C94F3150C9467020C9433050C94F11263
:100170000C94E1070C9435210C9402080C945C0556
:100180000C94BE030C9426240C943F260C94A603D6
:100190000C940D220C94AE1A0C94E5150C940016D8
:1001A0000C947D030C940E030C94E9120C94DE2045
:1001B0000C94821A0C940F1D0C9458260C94F7077B
:1001C0000C94B4030C94F8150C94091B0C942B029A
:1001D0000C9400270C94B8030C948B030C942B3ACA
:1001E0000C9495120C94BB2A0C94B0030C948303CA
:1001F0000C9489050C94CA1F0C9401160C94B2122D
:100200000C947B020C9438060C9484120C943A1FC4
:100210000C94E0100C9401100C94F5150C949803B8
:100220000C9458020C941E1D0C94AF1F0C947F2349
:100230000C94D01A0C940B100C9491190C94FB3163
:100240000C94EA2D0C9487030C9401130C94312325
:100250000C942C1E0C942806CDCCCC3D0AD7233C04
:1002600017B7D13877CC2B329595E6241FB14F0ABA
:100270000000803FCDCCCC3D6F12833A95BFD63382
:100280007D1D9026B3CE010C000020410000C84225
:1002900000401C4620BCBE4CCA1B0E5AAEC59D7405
:1002A00000002100240027002A002D003000330028
:1002B00001010000040107010A01000020002300E1
:1002C000260029002C002F0032000001000003014D
:1002D0000601090100000A0B02090C0D0E080703B4
:1002E0000401000000000000000000000000000009
:1002F00000000000000000000000000000000000FE
:1003000012111000000000000000000000000000BA
:100310000000000000000000000001021020200882
:100320000810204010204080020102010804020150
:1003300001020408102040808040201008040201BF
:100340008004020180402010080402010804020118
:10035000010204081020408001020408102040809F
:1003600000002200250028002B002E003100340060
:1003700002010000050108010B010505050507053F
:1003800008080808020202020A0A08080404040411
:10039000010101010101010103030303030303033D
:1003A000040707070C0C0C0C0C0C0C0C02020202CC
:1003B00006060606060606060B0B0B0B0B0B0B0BB5
:1003C0007C3C3E5E2B3D3F2F5B5D3B2C2A225C003C
:1003D000FB312B3A11241FBECFEFD1E2DEBFCDBFE0
:1003E00000E00CBF15E0A0E0B2E0E2E8FDE700E0CD
:1003F0000BBF02C007900D92A23AB107D9F72BE0CC
:10040000A2EAB5E001C01D92AA34B207E1F711E0FB
:10041000C9EED1E000E006C021970109802FFE015E
:100420000E944B3CC83ED10780E00807A9F70E9414
:100430000D330C94AF3E0C940000FC01818D928D25
:100440000895089508950895DC01ED91FC910190BF
:10045000F081E02D1994AF92BF92CF92DF92EF928C
:10046000FF920F931F93CF93DF936C017B018B015E
:10047000040F151FEB015E01AE18BF08C017D107AE
:1004800059F06991D601ED91FC910190F081E02D38
:10049000C6011995892B79F7C501DF91CF911F917D
:1004A0000F91FF90EF90DF90CF90BF90AF900895A5
:1004B000FC01538D448D252F30E0842F90E0821B6A
:1004C000930B541710F0CF96089501970895FC01EF
:1004D000918D828D981761F0A28DAE0FBF2FB11D47
:1004E0005D968C91928D9F5F9F73928F90E008959F
:1004F0008FEF9FEF0895FC01918D828D981731F059
:10050000828DE80FF11D858D90E008958FEF9FEFAC
:100510000895FC01918D228D892F90E0805C9F4F82
:10052000821B91098F739927089585EC98E00E94AA
:10053000890221E0892B09F420E0822F0895FC0133
:10054000A48DA80FB92FB11DA35ABF4F2C91848D34
:1005500090E001968F739927848FA689B7892C9391
:10056000A089B1898C91837080648C93938D848DE4
:10057000981306C00288F389E02D80818F7D8083E7
:100580000895EF92FF920F931F93CF93DF93EC01A7
:1005900081E0888F9B8D8C8D98131AC0E889F9892A
:1005A000808185FF15C09FB7F894EE89FF8960832D
:1005B000E889F98980818370806480839FBF81E0AE
:1005C00090E0DF91CF911F910F91FF90EF900895F0
:1005D000F62E0B8D10E00F5F1F4F0F731127E02ECB
:1005E0008C8D8E110CC00FB607FCFACFE889F98903
:1005F000808185FFF5CFCE010E949F02F1CFEB8D68
:10060000EC0FFD2FF11DE35AFF4FF0829FB7F894D6
:100610000B8FEA89FB8980818062CFCFCF93DF93F4
:10062000EC01888D8823B9F0AA89BB89E889F9890A
:100630008C9185FD03C0808186FD0DC00FB607FC3F
:10064000F7CF8C9185FFF2CF808185FFEDCFCE0172
:100650000E949F02E9CFDF91CF91089580E090E062
:10066000892B29F00E94950281110E94000080E0F0
:1006700090E0892B49F080E090E0892B29F00E94DE
:10068000000081110E94000080E090E0892B49F079
:1006900080E090E0892B29F00E94000081110E94E7
:1006A000000080E090E0892B49F080E090E0892B09
:1006B00029F00E94000081110C94000008958150DF
:1006C000823108F05AC0E82FF0E08827E559FC4F46
:1006D0008F4F0C944B3C8B038F037D038303870365
:1006E000BD03920398039C03A203A603AA03B003CD
:1006F000B403BD03B803BE03C203809180008F77AB
:10070000809380000895809180008F7DF9CF809143
:100710008000877FF5CF84B58F7784BD089584B539
:100720008F7DFBCF8091B0008F778093B0000895CC
:100730008091B0008F7DF9CF809190008F7780936A
:1007400090000895809190008F7DF9CF8091900066
:10075000877FF5CF8091A0008F778093A0000895C8
:100760008091A0008F7DF9CF8091A000877FF5CF89
:10077000809120018F77809320010895809120013E
:100780008F7DF9CF80912001877FF5CF1F93CF9385
:10079000DF93282F30E0F901EC52FD4F8491F901ED
:1007A000E65EFC4FD491F901E658FC4FC491CC238E
:1007B000A9F0162F81110E945F03EC2FF0E0EE0FDD
:1007C000FF1FE05AFC4FA591B4918FB7F894EC91BC
:1007D000111108C0D095DE23DC938FBFDF91CF913C
:1007E0001F910895DE2BF8CFCF93DF9390E0FC01AB
:1007F000E65EFC4F249186589C4FFC01849188232F
:10080000D1F090E0880F991FFC01E056FD4FA591B3
:10081000B491FC01E05AFC4FC591D49161110EC016
:100820009FB7F8948C91E22FE0958E238C932881CA
:10083000E223E8839FBFDF91CF9108958FB7F894AB
:10084000EC91E22BEC938FBFF6CF3FB7F8948091F9
:10085000F1059091F205A091F305B091F40526B54C
:10086000A89B05C02F3F19F00196A11DB11D3FBFE8
:10087000BA2FA92F982F8827BC01CD01620F711DB7
:10088000811D911D42E0660F771F881F991F4A95B1
:10089000D1F708958F929F92AF92BF92CF92DF923D
:1008A000EF92FF924B015C010E9425046B017C01D9
:1008B0000E9425046C197D098E099F09683E7340CA
:1008C00081059105A8F321E0821A9108A108B108D9
:1008D00088EEC80E83E0D81EE11CF11C811491043F
:1008E000A104B10429F7FF90EF90DF90CF90BF9063
:1008F000AF909F908F9008952FB7F8946091ED0579
:100900007091EE058091EF059091F0052FBF08954D
:10091000CF92DF92EF92FF92CF93DF936B017C0136
:10092000EA010E947C04E7E2FAE020813181232B76
:1009300041F070962BE0E732F207B8F390E080E0E8
:1009400022C02091250A3091260A2F5F3F4F11F1D6
:100950003093260A2093250A2091250A3091260AF1
:1009600037872687D183C08313821282648375837D
:1009700086839783C086D186E286F38615861486A1
:10098000CF0182279327DF91CF91FF90EF90DF90E7
:10099000CF90089521E030E0DBCF2091C905260FEC
:1009A0003327331F21323105ECF420919B08FC01E1
:1009B00090E080E0243069F082E00895A091C905BC
:1009C0002191AC0147555A4FA40FB52FB11D2C935F
:1009D0000196861798F38091C905680F6093C90541
:1009E00080E0089581E0089510929B0881E0809353
:1009F0009A081092750861E084E10E94C60361E0E4
:100A000085E10E94C603E9EBF0E080818E7F808360
:100A100080818D7F808388E48093B80085E4809313
:100A2000BC000895CF93DF9391E09093A8058823AD
:100A3000B9F0C091B800D091BA008091BC008A7B17
:100A40008093BC0060E084E10E94C60360E085E121
:100A50000E94C6030E94F404D093BA00C093B80069
:100A6000DF91CF910895E091540880915308E817E1
:100A700030F4F0E0EB5AF74F808190E008958FEF6B
:100A80009FEF089590915408809153082FEF3FEF06
:100A9000981748F4E92FF0E0EB5AF74F208130E047
:100AA0009F5F90935408C9010895809153089091D5
:100AB0005408891B990B0895CF92DF92EF92FF9211
:100AC0000F931F93CF93DF937C01CB018A01209179
:100AD000C408222389F0EB016B01C40ED51ECC158E
:100AE000DD0569F06991D701ED91FC910190F081EC
:100AF000E02DC7011995F3CF642F0E94CD04C801E2
:100B0000DF91CF911F910F91FF90EF90DF90CF90E9
:100B10000895CF93DF931F92CDB7DEB769832091FD
:100B2000C4082223F9F02091C108203258F021E0B6
:100B300030E0FC013383228390E080E00F90DF916E
:100B4000CF9108958091C208E82FF0E0EF55F74F5C
:100B5000998190838F5F8093C2088093C10881E060
:100B600090E0ECCF61E0CE0101960E94CD04F7CF7A
:100B7000FC01DB0112968D919C91139793838283E4
:100B80008EE692E09183808314968C9114978483EF
:100B900015968C911597858316964D915D916D9163
:100BA0007C91199746835783608771871A964D9178
:100BB0005D916D917C911D974287538764877587FE
:100BC0001E964D915D916D917C9151974687578707
:100BD000608B718B52968C915297828B53964D916C
:100BE0005D916D917C915697438B548B658B768B81
:100BF00057964D915D916D917C915A97478B508F8F
:100C0000618F728F5B968D919C91948F838F0895E5
:100C1000DC015996ED91FC913097B9F08389948964
:100C2000A589B6894285538564857585841B950B96
:100C3000A60BB70B811520E89207A105B10538F086
:100C40008FEF9FE7A0E0B0E0089590E080E0089586
:100C5000DC0159968D919C91009739F0DC01ED9162
:100C6000FC910480F581E02D199490E080E00895D6
:100C7000CF93DF931F92CDB7DEB76983DC01ED918F
:100C8000FC910280F381E02D41E050E0BE016F5FF6
:100C90007F4F19950F90DF91CF910895FC0120812E
:100CA0002EBD9B012150310941F051810DB407FE49
:100CB000FDCF4EB55EBD4193F5CF61507109860FF2
:100CC000971F0DB407FEFDCF2EB5FC0120830895BC
:100CD000E0914B06F0914C06808190914A06892B59
:100CE00080830895E0914B06F0914C0690818091AD
:100CF0004A0680958923808308958EBD00000DB437
:100D000007FEFDCF8EB508958FEF0C947D060F93EF
:100D10001F93CF93DF93EC010E947C048B010E9410
:100D200084068F3F69F00E947C04601B710B6C1776
:100D30007D07A8F380E0DF91CF911F910F91089577
:100D400081E0F9CFAF92BF92CF92DF92EF92FF9204
:100D50000F931F93CF93DF9300D000D01F921F9269
:100D6000CDB7DEB78C017B016A0180914D068333DC
:100D7000E1F45801A40EB51EA016B10609F46FC027
:100D80000E94720680EF0E947D06812F0E947D06E0
:100D9000802F0E947D060F5F1F4FF70181917F0119
:100DA0000E947D060E946806E7CF5B01A40EB51E77
:100DB0008433C1F40E94720619830A838D2D8068E2
:100DC0008B83CC8264E070E0CE0101960E944E06D7
:100DD000AE14BF0409F441C0F70181917F010E9464
:100DE0007D06F6CF0E9472060F3F110509F028F428
:100DF00019820A8384E08B830CC017FD17C0198207
:100E00000A8333E0169507953A95E1F7007E0C606A
:100E10000B8386E0C816D104A0F5F701DE01149615
:100E2000EA15FB0599F081918D93FACFC80126E070
:100E3000969587952A95E1F7807E19830A83011597
:100E4000104C10F48461D7CF8C61D5CFB6016D5FA3
:100E50007F4FCE0101960E944E060E946806C60191
:100E600028960FB6F894DEBF0FBECDBFDF91CF91AD
:100E70001F910F91FF90EF90DF90CF90BF90AF90B8
:100E8000089563E070E0CE0101960E944E06F701DE
:100E900081917F010E947D06AE14BF04C1F7DDCFB2
:100EA000CF93DF931F92CDB7DEB7898341E050E047
:100EB000BE016F5F7F4F90E080E00E94A2060F901E
:100EC000DF91CF91089590E020914D06233339F4BE
:100ED0000C96982F990F990F990F80E008954896D6
:100EE000F8CFDA01E0914E06F0E0FE2FEE27E60F94
:100EF000F71F90E0982F8827A901BD018E0F9F1F33
:100F00000C94A206CF93DF931F921F92CDB7DEB74A
:100F100079836A8322E030E0AE014F5F5F4F60E18A
:100F200070E00E9471070F900F90DF91CF910895AC
:100F3000CF93DF931F921F92CDB7DEB779836A8379
:100F400022E030E0AE014F5F5F4F64E070E00E944E
:100F500071070F900F90DF91CF910895CF93DF939A
:100F60001F92CDB7DEB720914E0630E0322F2227F8
:100F7000260F371F90E0982F8827498341E050E0E3
:100F8000BE016F5F7F4F820F931F0E94A2060F90DA
:100F9000DF91CF910895CF93DF931F92CDB7DEB746
:100FA0006983DC01ED91FC910280F381E02D41E049
:100FB00050E0BE016F5F7F4F19950F90DF91CF9189
:100FC0000895CF93DF931F92CDB7DEB76983DC011D
:100FD000ED91FC910280F381E02D41E050E0BE01F3
:100FE0006F5F7F4F19950F90DF91CF910895FC01AE
:100FF0009485FB018485981303C081E0983008F044
:1010000080E00895CF93DF931F92CDB7DEB7698359
:10101000DC01ED91FC910280F381E02D41E050E094
:10102000BE016F5F7F4F19950F90DF91CF910895AB
:10103000089561E0FC0184810E94C6038091A305AC
:1010400081111092A30508958CBD9DBD0895CF9385
:10105000DF93EC018091A305811109C081E08093A9
:10106000A30580916E0990916F090E94240860E0A9
:101070008C81DF91CF910C94C6038F929F92AF9297
:10108000BF92FF920F931F93CF93DF93EC01F62E45
:1010900049015A018E81882389F08F8198859C01AE
:1010A0002F5F3F4F38872F838230924018F40E9481
:1010B0008406F3CFCE010E9419081E82CE010E9441
:1010C00027088CE291E00E9487068F2D80640E94A1
:1010D0007D0608E110E0D501C401002E04C0B695DC
:1010E000A795979587950A94D2F70E947D06085098
:1010F0001109083F8FEF180771F785E9FF2021F0EC
:1011000028E087E8F2128FEF0E947D0610E00E942F
:1011100084068A8787FF04C01F3F11F01F5FF7CF47
:10112000DF91CF911F910F91FF90BF90AF909F9053
:101130008F900895AF92BF92CF92DF92EF92FF927D
:101140000F931F93CF93DF93EC016901C801820FC6
:10115000931F8130924050F58E81882379F08881E9
:101160009981AA81BB8184179507A607B70731F437
:101170008F819885C816D90608F042C048835983E4
:101180006A837B838B85833039F089E0440F551F58
:10119000661F771F8A95D1F79A01AB0161E1CE01F5
:1011A0000E943D08882389F083E08D83CE010E9450
:1011B000190880E0DF91CF911F910F91FF90EF9080
:1011C000DF90CF90BF90AF9008950E947C045B01A8
:1011D0000E9484068A878F3F69F40E947C046A1902
:1011E0007B096D327140A0F38FE08D83CE010E94A8
:1011F0001908DCCF8E3F89F418861F8281E08E8328
:101200008F8198858C159D0550F40E9484068F81EE
:101210009885019698878F83F3CF8DE0E6CF67019D
:10122000E00EF11E0E948406F60181936F01EE1517
:10123000FF05C1F78F819885080F191F18870F8345
:101240008985882319F001151240A0F08E8188232A
:1012500089F08F8198859C012F5F3F4F38872F83BE
:101260008230924018F40E948406F3CFCE010E948F
:1012700019081E8281E09ECFCF92DF92EF92FF92FB
:101280000F93CF93DF93EC01690182E14115510582
:101290006105710599F08B85833039F089E0440F41
:1012A000551F661F771F8A95D1F79A01AB0168E138
:1012B000CE010E943D08882319F084E08D832DC063
:1012C0008EEF0E947D0676018EEFD81AF70181918C
:1012D0007F010E947D06EC14FD04C1F78FEF0E9490
:1012E0007D068FEF0E947D060E9484068A878F719B
:1012F000853071F4011116C0CE010E94190881E0F9
:10130000DF91CF910F91FF90EF90DF90CF900895F4
:1013100081E18D83CE010E941908CE010E94190837
:1013200080E0EECF88E592E00E948706811102C03E
:1013300085E1C4CF20E030E0A9016DE0CE010E943C
:101340003D08882311F084E1B9CF0E948406811101
:10135000FACFD2CF0F934091A4055091A50560918B
:10136000A6057091A705411551056105710599F014
:10137000082F23E536E080915006909151060E9497
:101380003C09882349F01092A4051092A5051092FB
:10139000A6051092A70581E00F9108950F93CF93B2
:1013A000C82F80915206811105C0C1E08C2FCF91CA
:1013B0000F91089540910C0250910D0260910E0220
:1013C00070910F020C2F23E536E08091500690912A
:1013D00051060E943C09811102C0C0E0E7CFCC2336
:1013E00021F381E00E94AA098823B9F310925206E2
:1013F000DDCF8F929F92AF92BF92EF92FF920F93A9
:101400001F93CF934B015C01C42F80910C029091EC
:101410000D02A0910E02B0910F0288159905AA0540
:10142000BB0551F181E00E94CE0981110BC080E023
:10143000CF911F910F91FF90EF90BF90AF909F9031
:101440008F90089583E5E82E86E0F82E00E012E004
:1014500030E020E0B501A401809150069091510642
:101460000E949A08882319F380920C0290920D0230
:10147000A0920E02B0920F02409152064C2B409364
:10148000520681E0D5CF8F929F92AF92BF92CF92BA
:10149000DF92EF92FF92CF9320E739E0309351062D
:1014A00020935006882309F46DC040E060E070E0AE
:1014B000CB010E94F90981110BC080E0CF91FF9010
:1014C000EF90DF90CF90BF90AF909F908F90089556
:1014D000809111088F7789F780911D0890911E08DF
:1014E000A0911F08B091200884369105A105B1058F
:1014F00020F3C0901908D0901A08E0901B08F090D3
:101500001C08C114D104E104F104B9F240E0C701A0
:10151000B6010E94F909882381F280915E069091BC
:101520005F068115924049F6A0916306AA2329F22D
:1015300060916106709162066115710509F4BDCF75
:1015400020916006222309F4B8CFA0938E0920933E
:10155000800990E080E030E0E1E0F0E0C82FAF01EA
:10156000082E02C0440F551F0A94E2F724173507CE
:1015700069F041E0480F01968930910579F7409371
:1015800089099BCFC12CD12C7601C0CF80938909CA
:101590002091690630916A0650E040E0211531053E
:1015A00041F4209177063091780640917906509168
:1015B0007A062093810930938209409383095093DE
:1015C000840946015701860E971EA11CB11C80920A
:1015D0008F0990929009A0929109B0929209E0919E
:1015E0006406F0916506F0939509E0939409B0E0E4
:1015F0000E94533BDC01CB01880D991DAA1DBB1D28
:101600008093960990939709A0939809B0939909AC
:1016100025E0EE0FFF1F2A95E1F7E150FE4FEF2F77
:10162000FF27E6958E0F9F1FA11DB11D80938A098C
:1016300090938B09A0938C09B0938D0980906606D6
:1016400090906706B12CA12C8114910441F48090F4
:10165000730690907406A0907506B0907606C81A2E
:10166000D90AEA0AFB0AC80CD91CEA1CFB1C04C0F4
:10167000F694E794D794C794CA95D2F7C092850997
:10168000D0928609E0928709F092880985EFC81602
:101690008FE0D806E104F10428F48CE080939309EC
:1016A00081E00CCF80E125EFC2162FEFD206E104D6
:1016B000F104A0F380917F0690918006A0918106AD
:1016C000B09182068093960990939709A093980908
:1016D000B093990980E2E2CF4F925F926F927F922E
:1016E0008F929F92AF92BF92CF92DF92EF92FF9232
:1016F0000F931F93CF93DF93EC01423051056105A7
:10170000710590F480E0DF91CF911F910F91FF90D0
:10171000EF90DF90CF90BF90AF909F908F907F9091
:101720006F905F904F90089589859A85AB85BC85B1
:101730000196A11DB11D84179507A607B70710F3E1
:10174000CB88DC88ED88FE888F89803109F042C023
:10175000BB27A72F962F852F480159012A013B014E
:10176000C80ED91EEA1EFB1E80910C0290910D023C
:10177000A0910E02B0910F02C816D906EA06FB0628
:1017800099F58F898031C1F5B301A20155276627EC
:101790007727440F551F4D5A594FFA019182808285
:1017A000809152068160809352068A89823080F04F
:1017B0008D819E81AF81B8858C0D9D1DAE1DBF1D95
:1017C0008093A4059093A505A093A605B093A705C3
:1017D00081E099CFDB01CA01E7E0B695A79597951F
:1017E0008795EA95D1F7B8CF40E0C701B6010E94CE
:1017F000F9098111C6CF86CFB301A2014F775527D2
:1018000066277727440F551F440F551F4D5A594FD0
:10181000FA0180829182A282B382C2CF8F929F927C
:10182000AF92BF92CF92DF92EF92FF920F931F93EE
:10183000CF93DF93FC0181859285A385B4850196C2
:10184000A11DB11D84179507A607B70770F480E0A6
:10185000DF91CF911F910F91FF90EF90DF90CF908C
:10186000BF90AF909F908F90089583889488A588AB
:10187000B6888789803189F5BB27A72F962F852FBA
:10188000E9016A017B018F01BC01CD01680D791D61
:101890008A1D9B1D80900C0290900D02A0900E025C
:1018A000B0900F0286169706A806B90601F5F80152
:1018B0008789803111F5DD24EE24FF24F601EE0F37
:1018C000FF1FED5AF94F80819181B0E0A0E088833D
:1018D0009983AA83BB8381E0BBCFDB01CA01C7E048
:1018E000B695A79597958795CA95D1F7C9CF40E04A
:1018F0000E94F9098111DBCFAACFE894C7F8DD2453
:10190000EE24FF24F601EE0FFF1FEE0FFF1FED5A2E
:10191000F94F80819181A281B381BF70D8CF4F925E
:101920005F926F927F92AF92BF92CF92DF92EF92CF
:10193000FF920F931F93CF93DF9300D01F92CDB7E9
:10194000DEB78C0149835A836B837C835901C12C98
:10195000D12C7601412C82E0582E612C712C4981CA
:101960005A816B817C819E012F5F3F4FC8010E948D
:101970000E0C882339F1F8018585A301920104C07A
:10198000220F331F441F551F8A95D2F7DA01C90170
:10199000C80ED91EEA1EFB1E49815A816B817C81CB
:1019A0008789803111F188EF9FEFAFEFBFE04817D3
:1019B00059076A077B0798F2F501C082D182E2825B
:1019C000F38281E00F900F900F900F90DF91CF91F5
:1019D0001F910F91FF90EF90DF90CF90BF90AF904D
:1019E0007F906F905F904F90089588EF9FEFA0E0F9
:1019F000B0E0DDCFCF93DF93FC012581222321F0DE
:101A000080E0DF91CF910895EC01809193098031BE
:101A100059F582E08583178A108E118E128E80917F
:101A2000940990919509B0E0A0E025E0880F991FF6
:101A3000AA1FBB1F2A95D1F7838B948BA58BB68BDE
:101A40008CE799E09C8F8B8F81E08C831E821F82B4
:101A5000188619861A861B861C861D861E861F867A
:101A6000188A198A1A8ACDCF803251F683E085838D
:101A70004091960950919709609198097091990940
:101A8000478B508F618F728F9F012D5E3F4F8CE788
:101A900099E00E948F0C8111D3CFB2CF8F929F9289
:101AA000AF92BF92CF92DF92EF92FF920F931F936C
:101AB000CF93DF93EC018D8181110EC080E0DF9127
:101AC000CF911F910F91FF90EF90DF90CF90BF903B
:101AD000AF909F908F9008950B891C892D893E8926
:101AE000041715072607370748F34A015B018230C0
:101AF00031F48A869B86AC86BD8681E0E0CF811476
:101B00009104A104B10449F41E821F82188619862B
:101B10001A861B861C861D86F0CF0A851B852C85A0
:101B20003D85EB8DFC8D858590E00996B901A80176
:101B30004150510961097109082E04C076956795D5
:101B4000579547950A94D2F775016401E1E0CE1AE2
:101B5000D108E108F10804C0F694E794D794C7943B
:101B60008A95D2F7C416D506E606F70620F0012BB3
:101B7000022B032B11F58F89988DA98DBA8D8E8339
:101B80009F83A887B9878E010A5F1F4FC114D104B4
:101B9000E104F10409F4ADCF4E815F816885798558
:101BA00098018B8D9C8D0E940E0C91E0C91AD10872
:101BB000E108F1088111EACF81CFC41AD50AE60AFB
:101BC000F70AE1CF3F924F925F926F927F928F928E
:101BD0009F92AF92BF92CF92DF92EF92FF920F93BC
:101BE0001F93CF93DF93CDB7DEB72C970FB6F89442
:101BF000DEBF0FBECDBF5C01DC015B968D909C907B
:101C00005C9716964D905D906D907C90199741145D
:101C100051046104710409F468C0BFEF4B1A5B0AF8
:101C20006B0A7B0A312CF40181859285A385B485EA
:101C30009C01AD012F5F3F4F4F4F5F4F29873A8780
:101C40004B875C87730162011D821E821F8218868A
:101C5000F40181859285A385B4852D813E814F81D4
:101C60005885281739074A075B0708F056C0898549
:101C70009A85AB85BC858C159D05AE05BF0550F4D6
:101C800082E0C82ED12CE12CF12C92E0492E512C6F
:101C9000612C712C9E012F5F3F4FB701A601C4013B
:101CA0000E940E0C8823C9F189819A81AB81BC8185
:101CB000892B8A2B8B2B09F1260137019FEF491ABB
:101CC000590A690A790A2D813E814F8158852F5F13
:101CD0003F4F4F4F5F4F2D833E834F8358873FEFDA
:101CE000C31AD30AE30AF30AB3CFF4014080518048
:101CF000628073803324339496CFC414D504E604F1
:101D0000F70409F70FEF1FEF2FEF3FE0B701A60130
:101D1000C4010E946C0B811119C080E02C960FB693
:101D2000F894DEBF0FBECDBFDF91CF911F910F9111
:101D3000FF90EF90DF90CF90BF90AF909F908F90EB
:101D40007F906F905F904F903F900895D5011696C9
:101D50004D915D916D917C911997411551056105EA
:101D6000710539F097018601C4010E946C0B88232C
:101D7000A1F2D5011696CD92DD92ED92FC921997C3
:101D8000332051F0D701C6010196A11DB11DF40108
:101D900080839183A283B383F5018789908DA18D80
:101DA000B28D892B8A2B8B2B39F48481C78AD08EF4
:101DB000E18EF28E80688483F50184818062848361
:101DC00081E0ACCF2F923F924F925F926F927F92C1
:101DD0008F929F92AF92BF92CF92DF92EF92FF923B
:101DE0000F931F93CF93DF9300D0CDB7DEB7FC01E5
:101DF0008581811118C08FEF9FEF0F900F900F908A
:101E0000DF91CF911F910F91FF90EF90DF90CF90D6
:101E1000BF90AF909F908F907F906F905F904F900A
:101E20003F902F900895848180FFE5CF43895489A6
:101E30006589768982859385A485B585312C212C89
:101E4000481759076A077B0719F022242394312C7D
:101E50006F012101CE0101963C01DF011696BB8383
:101E6000AA834114510409F4C5C0F6014285538583
:101E7000648575854A01F1E09F22D6015B968D91BC
:101E80009C915C978A019B01E9E03695279517950F
:101E90000795EA95D1F71596EC91E230E9F5FC014A
:101EA000628D738D848D958D600F711F821F931FBE
:101EB000A12C22E0B22EA818B9084A145B0408F439
:101EC0005201F601248126FD04C0A114F2E0BF06F0
:101ED00071F400910C0210910D0220910E023091CC
:101EE0000F02061717072807390709F05EC040E000
:101EF0000E94F909882309F47ECFC4018D5A994FB5
:101F0000D3019C012A0D3B1DFC012E173F0709F44C
:101F10006CC041914D93F9CFDC011496BC90BA94FA
:101F2000B0228114910479F4B1100DC0452B462BD9
:101F3000472B69F5F6018789908DA18DB28D868337
:101F40009783A087B187D6015B96ED91FC915C9752
:101F500016966D917D918D919C91199762507109A2
:101F600081099109258504C0660F771F881F991F75
:101F70002A95D2F70685178520893189600F711F50
:101F8000821F931F6B0D711D811D911D91CFD60175
:101F900016964D915D916D917C9119972A813B81A7
:101FA0000E940E0C8111CFCF26CF730185019401C1
:101FB000AB01BC0180915006909151060E949A0895
:101FC000882309F418CF6A0C7B1CF601828593855F
:101FD000A485B5858A0D9B1DA11DB11D82879387A0
:101FE000A487B5874A185B083CCF281B390B620EC3
:101FF000731EEBCF2A94232809F0FDCE898190E04F
:10200000FCCEFC01818D928D009711F00C94E20EB4
:102010008FEF9FEF08950F931F93CF93DF93EC0102
:10202000898D9A8D10E000E0009799F00E94E20EF1
:102030008C010F3F100769F0898D9A8DFC01428554
:1020400053856485758541505109610971090E9464
:102050004E0DC801DF91CF911F910F9108951F93ED
:10206000CF93DF93FC0125812223D1F1162FEC01C0
:10207000848187FF2AC0668577858089918941E0C0
:102080000E94F909882361F1EA8980E2E89FF00162
:102090001124ED5AF94F309719F18D81823040F4B7
:1020A0008B899C89AD89BE89848F958FA68FB78FC8
:1020B0008F89988D938F828F8F89988DA98DBA8DF6
:1020C000B58BA48B8C818F778C83111103C08C818D
:1020D0008F7E8C83812FDF91CF911F910C94CE093D
:1020E00080E0DF91CF911F910895FF920F931F938E
:1020F000CF93DF93EC018D81813041F090E080E05F
:10210000DF91CF911F910F91FF9008958C8181FFF6
:10211000F5CF82FD1BC00091500610915106C801F9
:102120000E9427080E948406F82EC8010E94190800
:102130008FEFF812E3CF8C8185FF1BC060E0CE01EA
:102140000E942F108C818F7D8C83D8CF4B895C8926
:102150006D897E898A859B85AC85BD8584179507A9
:10216000A607B707C1F2CE010E944E0D8111D3CF51
:10217000C5CF4091A4055091A5056091A605709129
:10218000A705452B462B472B21F080E00E94AA098A
:10219000B5CF80618C832A853B85317080E092E0E9
:1021A000821B930BADCFCF93DF93EC0161E00E94D4
:1021B0002F10882311F01D8281E0DF91CF910895C7
:1021C000FC01818D928D009719F061E00C942F1025
:1021D00008952F923F924F925F926F927F928F92CB
:1021E0009F92AF92BF92CF92DF92EF92FF920F93A6
:1021F0001F93CF93DF9300D01F921F92CDB7DEB70E
:102200007C015B01342E5D83DC0115968C91159762
:10221000813009F0CEC014962C9021FECAC022FC59
:10222000B4C0C32CDD8022947FE027222094B22DFD
:10223000B1702B2ED7011A964D915D916D917C91C5
:102240001D97C114D10409F428C15B968D919C910E
:102250005C97FC0174807A948A019B0169E0369551
:102260002795179507956A95D1F770228A01117005
:10227000711020C001151105E9F416964D915D917C
:102280006D917C911997411551056105710509F012
:1022900099C057968D919D910D90BC91A02D00975E
:1022A000A105B10509F0B0C0C7010E94E20D882365
:1022B00009F47FC080E092E0801B910B46018C15F1
:1022C0009D0508F44C01D7015B964D915C915C979C
:1022D00016968D919D910D90BC91A02D0297A1090C
:1022E000B109FA01258504C0880F991FAA1FBB1FD9
:1022F0002A95D2F74685578560897189840F951F85
:10230000A61FB71F9C01AD01270D311D411D511D99
:1023100029013A01811432E0930609F07BC08091D3
:102320000C0290910D02A0910E02B0910F02841543
:102330009505A605B70559F48FEF9FEFDC01809353
:102340000C0290930D02A0930E02B0930F02022D87
:102350009501B301A20180915006909151060E940F
:102360003C09882331F19EEFB91AC818D908F70142
:1023700082859385A485B585880D991DA11DB11D04
:1023800082879387A487B58755CFF70143895489FE
:102390006589768982859385A485B585481759070F
:1023A0006A077B0709F43DCFC7010E944E0D8111DA
:1023B00038CF81E090E0D70113969C938E931297CB
:1023C00080E007C09E012F5F3F4F0E940E0C8111DD
:1023D00002C090E079C089819A81AB81BC81F7010C
:1023E000238D348DF901278948EF5FEF60E070E0BD
:1023F000203121F048EF5FEF6FEF7FE08417950702
:10240000A607B70708F050CFF70186839783A08708
:10241000B18750CF0115110599F5D7011A964D9145
:102420005D916D917C911D9753968D919D910D902D
:10243000BC91A02D481759076A077B0708F181E076
:102440000E94CE09882309F4B4CF40920C02509226
:102450000D0260920E0270920F028091520681600E
:1024600080935206C8018D5A994FD5019C01280DC1
:10247000391DFC012E173F0759F04D914193FACFBA
:1024800041E0C301B2010E94F9098111EBCF91CF64
:10249000281B390BA20EB31E68CFF70183899489DC
:1024A000A589B68984179507A607B70738F48481EC
:1024B000438B548B658B768B80688483F701848192
:1024C00083FD1AC0832D9D810F900F900F900F9068
:1024D0000F90DF91CF911F910F91FF90EF90DF90C0
:1024E000CF90BF90AF909F908F907F906F905F90B4
:1024F0004F903F902F90089561E0C7010E942F10E8
:10250000882309F456CFDECFCF93DF931F92CDB748
:10251000DEB7698341E050E0BE016F5F7F4F0E94EC
:10252000E9100F90DF91CF910895CF93DF93EC01E5
:10253000E98DFA8D309749F481E090E09B838A839E
:1025400090E080E0DF91CF91089513821282898D0F
:102550009A8D0E94E910E98DFA8D22813381232B17
:1025600059F7F0CFFF920F931F93CF93DF93EB01B7
:10257000FC01178A168A2A81211109C02B81211199
:1025800006C02C81211103C02D81222301F14115A8
:102590005105E9F08A01FC01F08C80E591E00E9490
:1025A0002408AE014E5F5F4F24E030E06CE070E045
:1025B0008F2D0E947107B8018F2D0E94820781E044
:1025C00090E0DF91CF911F910F91FF90089580E0EF
:1025D000F7CFFC01848595850895FC018489958950
:1025E000089526EC32E0FC0131832083FB01408911
:1025F000518962897389FC014283538364837583A3
:102600000895DC01ED91FC91048CF58DE02D199479
:10261000CF93CFB7F8948091A205811127C0EFEA3C
:10262000F3E08491EFE4F3E09491E82FF0E0EE0F13
:10263000FF1FE056FD4FA591B491EC91E92321F4E1
:1026400061E085E30E94C60361E085E30E94F40334
:102650008CB580618CBD8CB580648CBD61E084E3F9
:102660000E94F40361E083E30E94F4038091A205D9
:102670008F5F8093A205CFBFCF910895CF93DF9353
:10268000EC0188819981DC01ED91FC910190F08150
:10269000E02D19952A813B81820F931F9B838A83AA
:1026A000DF91CF910895CF93DF93EC0188819981D9
:1026B000DC01ED91FC910280F381E02D19952A81D6
:1026C0003B81820F931F9B838A83DF91CF91089573
:1026D0008F929F92AF92BF92CF92DF92EF92FF9232
:1026E0000F931F93CF93DF93CDB7DEB766970FB6E7
:1026F000F894DEBF0FBECDBF6C018E01095E1F4F87
:1027000078018AE0882E912CA12CB12CCB01BA0142
:10271000A50194010E945E3B942F852F605DF80116
:1027200062938F01A901692F782F41155105610529
:10273000710561F7A7014E1B5F0BBF01C6010E9427
:10274000531366960FB6F894DEBF0FBECDBFDF9170
:10275000CF911F910F91FF90EF90DF90CF90BF909E
:10276000AF909F908F900895EF92FF920F931F93D9
:10277000CF93DF93EC017B0162E20E943E1387015D
:10278000F80161918F01662391F0E8EDF2E0F280AB
:10279000FF2049F0329681816813F9CF6CE5CE01B4
:1027A0000E943E136F2DCE010E943E13E9CF62E2DC
:1027B000CE01DF91CF911F910F91FF90EF900C947C
:1027C0003E132F923F924F925F926F927F928F9221
:1027D0009F92AF92BF92CF92DF92EF92FF920F93B0
:1027E0001F93CF93DF9300D000D0CDB7DEB71C018D
:1027F0004A015B0186E0D1011A968C9320E836E904
:1028000048E15BE4CB01B4010E94323C87FD7DC00E
:1028100004E110E060E2462E512C1E821D82F80178
:10282000E857FD4F6591759185919491A5019401AB
:102830000E942F3A18169CF0F801E85AFD4F259196
:10284000359145915491C501B4010E94953A4B01CF
:102850005C01ED81FE81E40DF51DFE83ED83559451
:102860004794045011090C3FFFEF1F07C1F677246E
:102870007A9420E030E0A901C501B4010E94323C05
:1028800018160CF04AC02CEA35EC47E257E3C501B4
:10289000B4010E942F3A18160CF43FC0272D34E0E3
:1028A000230280011124F12CE12CC80180599D4F95
:1028B0006C0108571D4F9FEF791679F1F601EE0D67
:1028C000FF1D6591759185919491A50194010E94D8
:1028D000323C18169CF4F801EE0DFF1D2591359140
:1028E00045915491C501B4010E94953A4B015C0198
:1028F000AD81BE81A419B509BE83AD8355944794BB
:102900007A94B4E0EB1AF108D6CF30E2432E512C82
:1029100045E0742E1E821D82ACCF2D813E81F101D7
:1029200031872087C501B4010E94033C69837A8303
:102930008B839C83D1016D937D938D939C9313978F
:102940002B013C0190E4C92E92E4D92E9FE0E92EA0
:10295000F12CBAE04B16510461047104C8F0C701B0
:10296000B6012AE030E040E050E00E945E3B6901A1
:102970007A01F101828581508287C301B2012AE088
:1029800030E040E050E00E945E3B29013A01E1CF97
:1029900069817A818B819C810E94343A9B01AC01D0
:1029A000C501B4010E948F3B4B015C01C701B60118
:1029B0000E94343A9B01AC01C501B4010E94953AD2
:1029C0002B013C010E94033C4B015C010E94343A04
:1029D0009B01AC01C301B2010E948F3B9B01AC0182
:1029E0000E94903B0E94033C860E971EA81EB91EB3
:1029F0008C149D04AE04BF0430F5D10114968D9261
:102A00009D92AD92BC9217978AE0C82ED12CE12CF2
:102A1000F12CD10114966D917D918D919C91179718
:102A2000A70196010E945E3B672B682B692B89F5F5
:102A3000F101828518166CF524833583468357830C
:102A400081508287E6CFF1011482158216821782A7
:102A500089819A81AB81BC810196A11DB11D8083C2
:102A60009183A283B3832D813E812115310561F2CB
:102A70000A97A105B10540F2C901019691878087A7
:102A800081E090E0A0E0B0E080839183A283B383F3
:102A9000BBCF26960FB6F894DEBF0FBECDBFDF9139
:102AA000CF911F910F91FF90EF90DF90CF90BF904B
:102AB000AF909F908F907F906F905F904F903F90DE
:102AC0002F9008958F929F92AF92BF92CF92DF92F4
:102AD000EF92FF920F931F93CF93DF93CDB7DEB7A3
:102AE00066970FB6F894DEBF0FBECDBF7C018E0196
:102AF000095E1F4F68018AE0882E912CA12CB12C11
:102B0000CB01BA01A50194010E945E3B942F852F51
:102B1000605DF80162938F01A901692F782F41153B
:102B200051056105710561F7CE1ADF0AF701818150
:102B300092818C0D9D1D9283818366960FB6F894C9
:102B4000DEBF0FBECDBFDF91CF911F910F91FF90E0
:102B5000EF90DF90CF90BF90AF909F908F900895AF
:102B6000CF93DF93FC0181819281019692838183CF
:102B7000DB018D91882379F0C8EDD2E09A81992309
:102B800091F0229699818913F9CF818192810296E1
:102B900092838183EECF818192810196928381839A
:102BA000DF91CF910895818192810196F1CFFC014F
:102BB0002581222339F0F8E02F0290011124820FA1
:102BC000931F089590E080E00895FC017687658763
:102BD0000895DC01ED91FC91068CF78DE02D19959F
:102BE00091E089270895862F089581E0862708952A
:102BF00021E0FC018485883008F020E0822F0895D0
:102C0000089590E080E00895CF92DF92EF92FF92D6
:102C10000F931F93CF93DF93C091270B91E0909375
:102C2000C408C093C3081092C2081092C108682F4C
:102C300082E699E00E948905D091C108D13208F05E
:102C400091C00E9425046B017C0180919B08811139
:102C500064C082E080939B0810929A088FEF809363
:102C6000990810929808D0939708A1EAB8E0E7E78E
:102C7000F8E080E0D813EDC01092760880917608D5
:102C8000CC0FC82BC093760880917508813009F06D
:102C9000E4C0109275080E9425046B017C018091AC
:102CA00076088093BB0080919D0890919E08A0912A
:102CB0009F08B091A008892B8A2B8B2B99F00E943A
:102CC000250400919D0810919E0820919F08309145
:102CD000A0086C197D098E099F0906171707280798
:102CE0003907E0F18091BC0083FDD9CF85EC80935A
:102CF000BC000E9425046B017C0180919B088230FE
:102D000009F4ADC0809199088F3F61F180919908D5
:102D1000803241F18091990825C080919D08909161
:102D20009E08A0919F08B091A008892B8A2B8B2B1D
:102D300009F48BCF0E94250400919D0810919E08F4
:102D400020919F083091A0086C197D098E099F0978
:102D5000061717072807390708F077CF80919C08D6
:102D60000E9412051092C2081092C1081092C40865
:102D7000C091270B0E9425046B017C0180919B0868
:102D800081118FC081E080939B0880939A089FEF08
:102D9000909399081092980892E0909397088093E6
:102DA000760880917608CC0FC82BC0937608809166
:102DB0007508813009F0B6C0109275080E9425048C
:102DC0006B017C01809176088093BB0080919D0807
:102DD00090919E08A0919F08B091A008892B8A2B02
:102DE0008B2BA1F00E94250400919D0810919E0854
:102DF00020919F083091A0086C197D098E099F09C8
:102E0000061717072807390708F46CC08091BC0023
:102E100083FDD8CF85EC8093BC000E9425046B0114
:102E20007C0180919B08813009F47EC080919808D4
:102E3000833008F09BC080919808E7E7F8E0A5E5AB
:102E4000B8E090E0981709F452C021912D939F5F4C
:102E5000F9CF9D9191938F5F0DCF85EE48CF8091F3
:102E60009D0890919E08A0919F08B091A008892B81
:102E70008A2B8B2B09F441CF0E94250400919D08D9
:102E800010919E0820919F083091A0086C197D092F
:102E90008E099F09061717072807390708F02DCF55
:102EA0005DCF80919D0890919E08A0919F08B09160
:102EB000A008892B8A2B8B2B09F460CF0E94250454
:102EC00000919D0810919E0820919F083091A008C4
:102ED0006C197D098E099F090617170728073907FE
:102EE00008F04CCF80919C080E94120580E010925F
:102EF00054088093530882E699E00E944205EC0151
:102F000082E699E00E94420520E0382FC9018C2B0F
:102F10009D2BDF91CF911F910F91FF90EF90DF904C
:102F2000CF90089585EE77CF80919D0890919E086F
:102F3000A0919F08B091A008892B8A2B8B2B09F4B4
:102F400070CF0E94250400919D0810919E08209149
:102F50009F083091A0086C197D098E099F090617FA
:102F600017072807390708F05CCFBCCF83E065CF8F
:102F700087E00E940416BC0190E080E00E94343A91
:102F80002AE037ED43EA5CE30E94953A23E333E914
:102F900048E853E40E948F3B089586E00E9404169F
:102FA000BC0190E080E00E94343A2AE037ED43EA29
:102FB0005CE30E94953A23E333E948E853E40E9436
:102FC0008F3B08950F931F93CF93DF93EC0180E223
:102FD000689FF0011124ED5AF94F6A8B80910C0221
:102FE00090910D02A0910E02B0910F028E879F87E3
:102FF000A88BB98B0489158930E020E0980111274E
:1030000000270F8B188F298F3A8F828D938DB0E018
:10301000A0E0AC01BD01402B512B622B732B4F8BD9
:10302000588F698F7A8F83858871A9F4848D958DE7
:10303000A68DB78D8B8B9C8BAD8BBE8B81E08D83EA
:1030400081E08C831E821F82188619861A861B8651
:103050001C861D8603C0803131F080E0DF91CF9166
:103060001F910F9108959E012D5E3F4F8B8D9C8D7A
:103070000E948F0C882389F384E0E1CFCF93DF9304
:10308000EC0160E08E810E94C60361E08E810E94A7
:10309000C60360E08E810E94C6038BE891E0019731
:1030A000F1F7DF91CF910895CF92DF92EF92FF92E7
:1030B0000F931F93CF93DF936C017C0187E0E80EA1
:1030C000F11CD0E0C0E0062F10E0B8010C2E02C0C9
:1030D000759567950A94E2F76170F70181917F0118
:1030E0000E94C6032196C430D10579F7C601DF914D
:1030F000CF911F910F91FF90EF90DF90CF900C94A4
:103100003E18CF92DF92EF92FF920F931F93CF93CF
:10311000DF93EC01F62E642F8C810E94C6038D8113
:103120008F3F19F060E00E94C6030F2D10E08F85DD
:1031300084FF25C06E0187E0C80ED11CF12CE12C64
:10314000B8010E2C02C0759567950A94E2F761707C
:10315000F60181916F010E94C603FFEFEF1AFF0A8B
:1031600088E0E816F10461F7CE01DF91CF911F915D
:103170000F91FF90EF90DF90CF900C943E18B80124
:1031800084E0759567958A95E1F7CE010E94541801
:103190006F2DCE01DF91CF911F910F91FF90EF9096
:1031A000DF90CF900C94541840E0682F88E29BE0A9
:1031B0000C94811890913B0B891710F08FEF890FB9
:1031C000E82FF0E0E85DF44F848980680C94D4180F
:1031D00081E00E94D4188BE39FE10197F1F70895F5
:1031E000CF93DF93823029F49091370B98609093BE
:1031F000370B80933B0B10923C0B80E480933D0B8C
:1032000080E180933E0B80E580933F0B61E08091ED
:103210002C0B0E94F40380912D0B8F3F19F061E07D
:103220000E94F40361E080912E0B0E94F403C8E237
:10323000DBE09E0128523B408091370B84FD0BC0A0
:1032400084E090E021962817390744F461E08E81EC
:103250000E94F403EECF88E090E0F4CF8BE39DE092
:103260000197F1F760E080912C0B0E94C60360E0AB
:1032700080912E0B0E94C60380912D0B8F3F19F079
:1032800060E00E94C6038091370B84FD34C063E088
:1032900088E29BE00E945418CBE4D6E4CE0101976B
:1032A000F1F763E088E29BE00E9454182197F1F760
:1032B00063E088E29BE00E94541883E592E0019766
:1032C000F1F762E088E29BE00E9454188091370B8E
:1032D00080620E94D41884E08093380B8CE00E94B6
:1032E000D4180E94E81882E08093390B86E0DF91C1
:1032F000CF910C94D41880620E94D4188BE496E489
:103300000197F1F78091370B80620E94D41883E512
:1033100092E00197F1F78091370B80620E94D418F8
:10332000D5CF41E00E94811881E090E00895AF92EE
:10333000BF92CF92DF92EF92FF920F931F93CF93A2
:10334000DF9300D01F92CDB7DEB78C016B017A01FD
:1033500080914D068333E9F45B016801C40ED51EEC
:10336000C016D106A9F10E9472068FE00E947D0668
:10337000812F0E947D06802F0E947D060F5F1F4FC8
:1033800080E00E947D06F50181935F010E9468063E
:10339000E7CF843369F50E94720619830A838F2D63
:1033A0008F778B83EC8264E070E0CE0101960E94FF
:1033B0004E06A70170E060E0C6010E946F3EE11476
:1033C000F10421F0B701C6010E944E060E94680672
:1033D000C7010F900F900F900F90DF91CF911F9129
:1033E0000F91FF90EF90DF90CF90BF90AF90089536
:1033F0000E9472060F3F110509F030F419820A830A
:103400001B8263E070E0D1CF17FD0BC019820A83E5
:1034100033E0169507953A95E1F7007E08600B8337
:10342000F0CFC80126E0969587952A95E1F7807E32
:1034300019830A830115104C18F480618B83E1CF46
:103440008861FCCFCF93DF931F92CDB7DEB7209179
:103450004E0630E0322F2227260F371F90E0982F9C
:10346000882741E050E0BE016F5F7F4F820F931FBE
:103470000E94971989810F90DF91CF910895CF9382
:10348000C82F462F61E070E00E94AE0761E070E057
:103490008C2F0E94221A8111F9CFCF910895CF93DA
:1034A000C82F80E591E00E94240868E070E08C2F2E
:1034B000CF910C943F1ACF93C82F80E591E00E94E2
:1034C000240860E170E08C2FCF910C943F1ACF93C9
:1034D000DF93EC01888D883020F40E945B1A88E02D
:1034E000888FDF91CF91089563E070E00C94221AE9
:1034F000CF93C82F80E591E00E9424088C2FCF91B4
:103500000C94741AEF92FF920F931F93CF93DF9353
:103510007C0180914D06D4E0833309F0D8E00AE3C2
:1035200016E0C0E0F801219131918F01F70184810B
:1035300095812817390729F0CF5FDC13F3CF80E09E
:1035400006C08C2F0E94781A8431B1F781E0DF9198
:10355000CF911F910F91FF90EF900895CF93DF933C
:10356000EC018C858830D0F40E94781A843189F07F
:10357000882379F0883169F021E08C3159F4E881B1
:10358000F9810084F185E02DCE01199521E0892B88
:1035900009F420E0822FDF91CF91089580E0FBCFE6
:1035A000CF92DF92EF92FF92CF93DF93EC018C8565
:1035B000883068F40E944F1A0E947C046B017C01E1
:1035C0008C850E94781A811109C088E08C87DF9170
:1035D000CF91FF90EF90DF90CF90089561E070E081
:1035E00080E090E00E944A040E947C04AB01BC0190
:1035F0004C195D096E097F098D859E85B0E0A0E0BC
:10360000481759076A077B07D8F28C850E945B1A16
:10361000DCCFCF93FC01C08D80E591E00E942408AF
:1036200060E270E08C2F0E943F1A62E070E08C2F05
:103630000E94221A84FD16C062E070E08C2F0E9466
:10364000221A83FF0AC048E162E070E08C2F0E94DA
:10365000AE0780E090E0CF91089580E591E00E9470
:103660002408E3CF40E162E070E08C2F0E94AE07B7
:1036700081E0F0CFCF93DF931F92CDB7DEB741E06B
:1036800050E0BE016F5F7F4F90E080E00E9497198D
:1036900089810F90DF91CF910895CF93DF93C4E19B
:1036A000D0E00E943A1B882361F061E070E080E086
:1036B00090E00E944A042197A1F780E0DF91CF912A
:1036C000089581E0FBCFCF92DF92EF92FF921F939C
:1036D000CF93DF93CDB7DEB7C454D1090FB6F894BA
:1036E000DEBF0FBECDBFFC01428153816481758175
:1036F00023964CAF5DAF6EAF7FAF239781E02396EB
:103700008FAF23972396CCACDDACEEACFFAC239708
:10371000CBAADCAAEDAAFEAA4DA75EA76FA778AB3D
:1037200088ABCDA4DEA4EFA4F8A8CFA2D8A6E9A6C2
:10373000FAA68EABCBA8DCA8EDA8FEA8C9A2DAA297
:10374000EBA2FCA226EC32E03C8B2B8B9FEF9D8BF7
:103750009E8B9F8B188E3E872D878AA7CFA0D8A4DB
:10376000E9A4FAA4CF86D88AE98AFA8A8CA389A127
:103770009AA1ABA1BCA189879A87AB87BC873A8302
:1037800029834B835C836D837E8380914F068111F7
:103790006CC060E372E080E090E00E944A040E9406
:1037A0000813E4E8F3E0E491F0E0EE0FFF1FE05AC5
:1037B000FC4F8591949190934C0680934B06E4E2E4
:1037C000F3E0E491E0934A0661E08AE00E94F403AA
:1037D0000E94680680E591E00E94240884E38093BB
:1037E0004D0680E80E9450070E944D1B882309F473
:1037F00072C088E00E9450070E943A1B883009F08E
:103800006AC080E10E9450070E943A1B803109F093
:1038100062C080E00E9450070E943A1B182F81115D
:103820005AC041E050E0BE016D5B7F4F8FE190E0F8
:103830000E94971924968FAD2497833009F04BC0CE
:1038400080E480934E0642E06EE170E0812F0E949A
:10385000AE0742E06FE170E0812F0E94AE071F5F6C
:10386000183089F781E080934F0680E591E00E944F
:10387000240846E050E066E072E089E090E00E94B3
:10388000A20644E050E0BE016D5F7F4F8FE090E004
:103890000E94A20644E050E0BE01615F7F4F81E0DC
:1038A00090E00E94A20644E050E0BE016B5E7F4FB4
:1038B00085E090E00E94A20681E08C8789859A8548
:1038C000AB85BC858093D9099093DA09A093DB0975
:1038D000B093DC096FC087E380934D0680E80E94B7
:1038E00050070E944D1B882339F188E00E94500741
:1038F0000E943A1B883001F580E10E9450070E9427
:103900003A1B182F8031C1F480E00E9450070E94BA
:103910003A1B811111C041E050E0BE016D5B7F4F49
:1039200089E390E00E94971924968FAD2497843004
:1039300019F410934E0696CF83E380934D0680E8EA
:103940000E9450070E944D1B882391F180E10E9444
:1039500050070E943A1B803159F582E10E945007BE
:103960000E943A1B823121F580E00E9450070E949C
:103970003A1B81111DC084E080934E0615E5259603
:103980001FAF259741E050E0BE016C5B7F4F8BE19C
:1039900090E00E94A20624961FAF249741E050E0D9
:1039A000BE016D5B7F4F8AE190E00E94A2065ACF74
:1039B00010924D06CC5BDF4F0FB6F894DEBF0FBE02
:1039C000CDBFDF91CF911F91FF90EF90DF90CF900F
:1039D00008951F93CF93DF931F92CDB7DEB7182FB3
:1039E00080E591E00E942408812F0E94630727E070
:1039F000129FF0011124EE5FF94F2281338137705D
:103A000041E050E0BE016F5F7F4F820F931F0E9425
:103A1000971989810F90DF91CF911F910895FC0133
:103A2000808D883040F4218D328D232B21F00E942F
:103A3000E91C90E008958FEF9FEF0895CF93DF93F7
:103A4000FC012485283028F08FEF9FEFDF91CF9184
:103A50000895EC010190F081E02D0084F185E02DC6
:103A60001995892B89F38C850E94E91C90E0EECF93
:103A7000DA01E0914E06F0E0FE2FEE27E60FF71F89
:103A800090E0982F8827A901BD018E0F9F1F0C94ED
:103A900097198F929F92AF92BF92CF92DF92EF923F
:103AA000FF920F931F93CF93DF93CDB7DEB760974D
:103AB0000FB6F894DEBF0FBECDBF7C0190914D06CE
:103AC000911115C018E0812F60960FB6F894DEBFF3
:103AD0000FBECDBFDF91CF911F910F91FF90EF905F
:103AE000DF90CF90BF90AF909F908F90089508E0A7
:103AF000933309F404E06B0180E591E00E9424080F
:103B00009E012F5F3F4F5901490110E0812F0E9414
:103B1000741AF40181934F018823C1F01F5F0113D0
:103B2000F5CF00E0F50181915F018D3149F08831D9
:103B300039F08A51823020F00F5F1013F3CFC2CFDB
:103B400060E170E0802F0E943F1A102FA12EB12C4F
:103B5000F501EE0FFF1FE65CF94F1182108283EE34
:103B600093E00197F1F742E870E060E0812F0E9456
:103B7000AE074FEF62E070E0812F0E94AE07B60102
:103B8000C114D10491F48091040290910502019630
:103B90008115F0EC9F0708F45CC0909305028093B8
:103BA00004026091040270910502812F0E9498071F
:103BB00086E0E6E1F2E0DE01199601900D928A9529
:103BC000E1F7F70183818F778C8784818D878581E9
:103BD0008E87A7014E5F5F4F24E030E06CE070E01D
:103BE000812F0E947107B601812F0E94820726E073
:103BF00030E0AE01475F5F4F66E070E0812F0E94CA
:103C0000710761E070E0812F0E943F1A27E02A9D32
:103C1000C0012B9D900D11249C012E5F394F79011D
:103C2000F9011182108222E030E0AE01415F5F4F66
:103C300068E270E0812F0E94381D8F85988998274F
:103C400089279827F701938382831682158214822D
:103C50003ACF80E090ECA1CFCF92DF92EF92FF922B
:103C60000F931F93CF93DF9300D000D0CDB7DEB773
:103C70008C016B017A01FC01808D883010F40E9468
:103C80005B1A86EC92E09A838983F60182819381A4
:103C9000A481B5818B839C83AD83BE83B701CE01A4
:103CA00001960E94491DF801808F8830A0F4F586A6
:103CB000E486128E118E81E026960FB6F894DEBF50
:103CC0000FBECDBFDF91CF911F910F91FF90EF906D
:103CD000DF90CF90089580E0EFCF7F928F929F92F8
:103CE000AF92BF92CF92DF92EF92FF920F931F930A
:103CF000CF93DF931F921F92CDB7DEB7782E8B0143
:103D00004A01590122E030E0AE014F5F5F4F64E2AB
:103D100070E00E94381DE980FA80FE24EF24FE2422
:103D2000E00EF11E9701377040914D06072D10E00F
:103D3000433309F042C0085F1F4F102F0027110FB7
:103D4000110F110FC901800F911F4733C9F1A9014C
:103D50004A0D5B1D4130584098F160E078E06B01FE
:103D6000C21AD30AA601B4010E94A206A5014C19E9
:103D70005D09B4016C0D7D1DC8010E94A206EA0C0C
:103D8000FB1CF982EA8222E030E0AE014F5F5F4F18
:103D900064E270E0872D0E9471070F900F90DF9111
:103DA000CF911F910F91FF90EF90DF90CF90BF9038
:103DB000AF909F908F907F900895005F1F4FBDCF71
:103DC000A501B401DACFEF92FF921F93CF93DF9357
:103DD0001F921F92CDB7DEB7182F22E030E0AE0160
:103DE0004F5F5F4F60E270E00E94381DE980FA800B
:103DF000FE24EF24FE2422E030E0AE014F5F5F4F4F
:103E000060E270E0812F0E94381D89819A81982795
:103E100089279827E816F90689F487E0189FF001AA
:103E20001124EE5FF94FF582E482C7010F900F90E5
:103E3000DF91CF911F91FF90EF9008957C01DBCF30
:103E40001F93CF93DF93182F80E591E00E94240801
:103E5000812F0E94E31EEC01812F0E94741A87318A
:103E600021F08C3111F0D0E0C0E0CE01DF91CF9194
:103E70001F910895CF93DF93EC018C85883060F417
:103E80000E94781A873111F08C3131F48C850E94B0
:103E9000201F8115984088F3DF91CF910895FC0190
:103EA0008485883010F40C94201F90E080E0089501
:103EB000CF92DF92EF92FF921F93CF93DF93182F51
:103EC0007B01EA014130584010F0C0E0D8E080E5C5
:103ED00091E00E942408812F0E94E31E6C01812F33
:103EE0000E94741A873111F08C3121F5CC16DD0651
:103EF00070F380E591E00E9424089E01A70170E024
:103F000060E0812F0E946D1E60E270E0812F0E94B0
:103F10003F1A62E070E0812F0E94221A84FD0DC0DA
:103F2000812F0E94741A8823B9F080E591E00E94E5
:103F30002408EFCFD0E0C0E0DCCF40E162E070E0E9
:103F4000812F0E94AE07CE01DF91CF911F91FF908C
:103F5000EF90DF90CF900895D0E0C0E0F4CF0F93C2
:103F60001F93CF93DF938C01EA01FC018485883095
:103F700048F40E94581F892B39F481E090E0F80141
:103F800093838283D0E0C0E0CE01DF91CF911F9177
:103F90000F9108959F92AF92BF92CF92DF92EF92CE
:103FA000FF920F931F93CF93DF938C015B01942EAD
:103FB000E52EFC01C688D788F08C80E591E00E9450
:103FC00024088F2D0E94E31EC92DDE2D8C179D071E
:103FD00008F4EC019E01A501B6018F2D0E946D1E13
:103FE000F801868997898C0F9D1F978B868BCE0150
:103FF000DF91CF911F910F91FF90EF90DF90CF90C5
:10400000BF90AF909F900895FF920F931F93CF930F
:10401000DF931F921F92CDB7DEB7F82E22E030E07B
:10402000AE014F5F5F4F66E270E00E94381D09816C
:104030001A8110270127102722E030E0AE014F5FE0
:104040005F4F66E270E08F2D0E94381D89819A8152
:104050009827892798270817190749F4C8010F904E
:104060000F90DF91CF911F910F91FF9008958C01D8
:10407000E3CF1F93CF93DF93182F87E0189FE001C2
:104080001124CE5FD94F88819981009761F480E532
:1040900091E00E942408812F0E9404202E81821B1F
:1040A000910999838883DF91CF911F9108959F9201
:1040B000AF92BF92CF92DF92EF92FF920F931F9336
:1040C000CF93DF93EC017B0180914D06811121C0DC
:1040D0001B821A8288EE93E0A0E0B0E08C839D837F
:1040E000AE83BF838CE892E09983888388E08C87D5
:1040F00088EE93E09E878D87CE01DF91CF911F914F
:104100000F91FF90EF90DF90CF90BF90AF909F9076
:10411000089534E0932E833311F028E0922E8AE341
:10412000C82E86E0D82E10E098E0B92EA12CD6013A
:104130002D913D916D01F7018481958128173907F3
:1041400091F4812F0E94781A082F873111F08C3159
:1041500039F5812F0E943920892B59F50C3119F43A
:10416000812F0E944F1A1F5F9112E1CFA11008C04A
:10417000D701ED91FC910084F185E02DC7011995DF
:104180001B821A8288EE93E0A0E0B0E08C839D83CE
:10419000AE83BF838CE892E099838883BC86A8CFE6
:1041A000843149F08111DFCFF601329711821082FC
:1041B000DACFB12ED8CFAA24A394D5CF8F929F92D5
:1041C000AF92BF92CF92DF92EF92FF920F931F9325
:1041D000CF93DF93CDB7DEB72F970FB6F894DEBF3E
:1041E0000FBECDBF5C014B017A0180914D06882343
:1041F000C9F104E0833309F008E0B501CE0101966E
:104200000E9457208AE3C82E86E0D82E10E0F601DF
:10421000219131916F01F50184819581281739072A
:1042200051F4812F0E94781A873129F4A701B40133
:10423000812F0E94581F1F5F0113E9CFC7012F96DE
:104240000FB6F894DEBF0FBECDBFDF91CF911F91A7
:104250000F91FF90EF90DF90CF90BF90AF909F9025
:104260008F900895F12CE12CE9CFFC0184858830F2
:1042700010F40C94392090E080E008954F925F9202
:104280007F928F929F92AF92BF92CF92DF92EF92E6
:10429000FF920F931F93CF93DF931F921F92CDB77F
:1042A000DEB7782E6B014A01A82EB12C27E0829F41
:1042B000C0011124FC01EE5FF94F7F0100811181E3
:1042C00080E591E00E9424080815190554F4872D13
:1042D0000E940420F70126818C01021B1109118321
:1042E00000830115110519F5872D0E94741A843178
:1042F00059F0882349F001E010E08C3111F410E00E
:1043000000E0119501951109C8010F900F90DF9100
:10431000CF911F910F91FF90EF90DF90CF90BF90C2
:10432000AF909F908F907F905F904F9008958016F0
:1043300091060CF4840187E08A9DF0018B9DF00DBD
:104340001124EE5FF94FE280F380C114D10451F1E2
:104350002701F7E05F22872D0E946307840D951DDA
:1043600020914D06273309F453C09801240D351DC3
:104370002130384008F44CC020E038E0490184186E
:104380009508A401B6010E9497192601480C591CF2
:104390006801C818D908872D0E946307A601B201D9
:1043A0000E949719E00EF11E87E08A9DF0018B9D17
:1043B000F00D1124EE5FF94FF382E282208131810A
:1043C000201B310B318320838681800F912F911D1B
:1043D0008A3F910510F4232BF1F487E08A9DF001C8
:1043E0008B9DF00D1124EE5FF94F1682F982EA825F
:1043F00022E030E0AE014F5F5F4F68E270E0872D52
:104400000E94710760E470E0872D0E943F1A7CCF04
:10441000A801B601C5CF868377CFCF93DF93FC0188
:10442000218D328D2115310529F48FEF9FEFDF911A
:10443000CF910895EC01808D4217530708F0A90130
:104440000E943E211816190684F7298D3A8D281BE3
:10445000390B3A8F298FEBCF0F931F93CF93DF93B5
:104460001F92CDB7DEB7FC01218D328D232B41F495
:104470008FEF9FEF0F90DF91CF911F910F910895D4
:104480008C0141E050E0BE016F5F7F4FFC01808DE9
:104490000E943E21181619065CF7F801818D928D55
:1044A0000197928F818F898190E0E4CFCF93DF9342
:1044B0001F92CDB7DEB741E050E0BE016F5F7F4F86
:1044C000FC0184850E943E211816190634F4898166
:1044D00090E00F90DF91CF9108958FEF9FEFF9CF8C
:1044E000FC018485883010F40C943E2190E080E03B
:1044F00008958F929F92AF92BF92CF92DF92EF92E8
:10450000FF920F931F93CF93DF9300D000D000D082
:104510001F92CDB7DEB790914D06911115C018E0EE
:10452000812F2A960FB6F894DEBF0FBECDBFDF9164
:10453000CF911F910F91FF90EF90DF90CF90BF90A0
:10454000AF909F908F90089528E0F22E933311F44E
:1045500094E0F92E6B01082F80E591E00E94240879
:104560009E012F5F3F4F5901490110E0812F0E94AA
:10457000741AF40181934F018823C1F01F5FF11277
:10458000F5CFF12CF50191915F019D3149F0983102
:1045900039F09A51923020F0F3941F11F3CFBFCF2E
:1045A00060E170E08F2D0E943F1A1F2DE12EF12C4B
:1045B000F701EE0FFF1FE65CF94F1182108283EEC8
:1045C00093E00197F1F7402F70E060E0812F0E94A7
:1045D000AE074FEF62E070E0812F0E94AE07B60198
:1045E000CD2889F4809104029091050201968115ED
:1045F000F0EC9F0798F1909305028093040260917C
:10460000040270910502812F0E94980761E070E01A
:10461000812F0E943F1A27E02E9DC0012F9D900DF3
:1046200011249C012E5F394F7901F901118210820A
:1046300022E030E0AE01475F5F4F68E270E0812F1B
:104640000E94381D89859A85982789279827F70120
:104650009383828316821582148262CF80E090EC6D
:10466000CACF0F931F93CF93DF93EC018B01888DFB
:10467000883010F40E945B1AB80182E00E9479220F
:10468000888F883050F41D870C871A8E198E81E030
:10469000DF91CF911F910F91089580E0F9CF0F9393
:1046A0001F93CF938C01FC016481758181E20E948C
:1046B0007922C82F8830F8F480E591E00E94240820
:1046C0008C2F0E94741A833131F08C2FCF911F915F
:1046D0000F910C944F1A62E070E08C2F0E943F1AE9
:1046E000F80184819581EC2FF0E0EE0FFF1FE65C6E
:1046F000F94F91838083CF911F910F910895CF92AD
:10470000DF92EF92FF921F93CF93DF93EC017B0137
:104710006A018C85883048F40E94781A882319F041
:104720008C850E944F1A88E08C87F70182819381E3
:10473000A481B5810097A105B10551F490E080E016
:10474000DF91CF911F91FF90EF90DF90CF90089570
:104750008F3F9F4FAF4FBF4F89F370E060E081E222
:104760000E947922182F8C87883040F780E591E0ED
:104770000E942408A7014E5F5F4F24E030E06CE008
:1047800070E0812F0E947107B601812F0E9482077D
:1047900064E070E0812F0E943F1A0E947C046B014C
:1047A0007C018C850E94781A873111F18C3101F1DE
:1047B000882321F20E947C04AB01BC014C195D09E5
:1047C0006E097F098D859E85B0E0A0E0841795076E
:1047D000A607B70738F061E070E080E090E00E9443
:1047E0004A04DFCF8C850E945B1A88E08C87A6CFB5
:1047F00081E090E0A5CF0F931F93CF93DF931F929B
:104800001F92CDB7DEB7FC0124852830E0F48C017F
:1048100080E591E00E94240822E030E0AE014F5F85
:104820005F4F60E170E0F80184850E94381D898146
:104830009A819827892798270F900F90DF91CF9121
:104840001F910F91089590E080E0F6CF0F931F9392
:10485000CF93DF931F921F92CDB7DEB7FC01248563
:104860002830E0F48C0180E591E00E94240822E0E9
:1048700030E0AE014F5F5F4F64E070E0F801848587
:104880000E94381D89819A819827892798270F903F
:104890000F90DF91CF911F910F91089590E080E0EC
:1048A000F6CFAF92BF92CF92DF92EF92FF920F932B
:1048B0001F93CF93DF9300D000D000D01F921F92A0
:1048C000CDB7DEB76C01FE013196CE010C967F01AB
:1048D00020E22193E817F907E1F7DA0120E037E059
:1048E0009D91B92E9923A9F19E32B9F43A3091F4F1
:1048F00080E02B960FB6F894DEBF0FBECDBFDF91E0
:10490000CF911F910F91FF90EF90DF90CF90BF90CC
:10491000AF90089528E03AE0E3CFE0ECF3E0849133
:10492000882321F031969813FACFE2CF321700F3A3
:104930008FED890F8E35E0F68FE9890F8A3118F4F3
:1049400040EEB42EB90EF701E20FF11DB0822F5FD9
:10495000C7CF8981803261F28B01FB01838D948DF9
:10496000F601948F838FFB011682178210861186C1
:104970001286138614861586F80182859385A48590
:10498000B585438954896589768984179507A60773
:10499000B70708F0ADCF25E0B695A7959795879511
:1049A0002A95D1F7F82FFF70AF2EF801858182305C
:1049B00008F49ECFC8010E94E20E97FD99CFF8013E
:1049C00082859385A485B5854F96A11DB11D8287EB
:1049D0009387A487B587F0E2AF9EB00111246D5A8A
:1049E000794F6115710509F483CFFB01808188231C
:1049F00009F1853E19F4B11032C01EC04BE050E001
:104A0000C7010E94593E892B09F0B6CF6A2DC60115
:104A10002B960FB6F894DEBF0FBECDBFDF91CF91BE
:104A20001F910F91FF90EF90DF90CF90BF90AF90CC
:104A30000C94E217B1105CCFF601A28A80910C02AF
:104A400090910D02A0910E02B0910F028687978778
:104A5000A08BB18BFB018081882309F449CFBB2453
:104A6000B3948ACFFB0101900020E9F73197AF01A1
:104A7000461B570BDC01ED91FC910280F381E02D88
:104A800019946DE673E00C9432258F929F92AF9249
:104A9000BF92EF92FF920F931F93CF93DF93CDB707
:104AA000DEB7A1970FB6F894DEBF0FBECDBF7C0175
:104AB000FA01CB0119A2223008F42AE08E010F5D21
:104AC0001F4F822E912CB12CA12CBF01A501940166
:104AD0000E945E3BF901CA016A300CF5605DD801A5
:104AE0006E938D01232B242B252B79F790E080E00A
:104AF000109721F0BD01C7010E943225A1960FB683
:104B0000F894DEBF0FBECDBFDF91CF911F910F9103
:104B1000FF90EF90BF90AF909F908F900895695C49
:104B2000DECFCF92DF92EF92FF920F931F93CF933E
:104B3000DF9377FF1DC06A017B01EC016DE20E94EB
:104B400024028C0144275527BA014C195D096E09CE
:104B50007F092AE0CE010E944525800F911FDF9139
:104B6000CF911F910F91FF90EF90DF90CF9008951C
:104B70002AE0DF91CF911F910F91FF90EF90DF908E
:104B8000CF900C9445258F929F92AF92BF92CF9277
:104B9000DF92EF92FF920F931F93CF93DF937C01ED
:104BA0008B016C0182E0C80ED11C4701E5E08E0E3E
:104BB000911CD0E0C0E0F60141916F0150E070E03F
:104BC00060E02AE0C8010E9445255C016EE2C80150
:104BD0000E9424028A0D9B1DC80FD91FC814D90436
:104BE00051F7F701458150E070E060E02AE0C8012C
:104BF0000E9445258C0F9D1FDF91CF911F910F9132
:104C0000FF90EF90DF90CF90BF90AF909F908F90EC
:104C100008950F931F93CF93DF93EC010E943225E9
:104C20008C01CE010E944125800F911FDF91CF9111
:104C30001F910F91089561E085E00E94C6031092D4
:104C4000FD0569EE72E085EC98E00E9409268091EE
:104C5000FD05811102C01092FE0508958091F905AD
:104C6000882361F061E086E00E94C6031092F90596
:104C700066EF72E085EC98E00C9409260895809127
:104C8000FA05811112C08091FD0581110E941B2639
:104C90000E942E2662E073E085EC98E00E940926CF
:104CA00081E08093FA0580E0089508950C94322500
:104CB00080E00E94DA1867E173E088E29BE00E94DE
:104CC00056260E94CD1720E030E0A9010E94323C18
:104CD00087FD50C00E94CD1720E030E040E05FE348
:104CE0000E94903B0E94FC3BAB01BC0188E29BE030
:104CF0000E9491256FED88E29BE00E94240264E20D
:104D000073E088E29BE00E94562681E00E94DA1858
:104D100066E273E088E29BE00E9456260E94B81784
:104D200020E030E0A9010E94323C87FD2CC00E94A7
:104D3000B81720E030E040E05FE30E94903B0E9423
:104D4000FC3BAB01BC0188E29BE00E9491256FED2A
:104D500088E29BE00E94240264E273E088E29BE028
:104D60000E94562681E090E0909300068093FF0514
:104D700080E008950E94CD1720E030E040E05FE33E
:104D80000E948F3BAFCF0E94B81720E030E040E098
:104D90005FE30E948F3BD3CF0E94E81880E00E941F
:104DA000DA1863E373E088E29BE00E945626809164
:104DB000FD056FE175E0811102C06EEF72E088E2DF
:104DC0009BE00E94562681E00E94DA186FE373E0B0
:104DD00088E29BE00E9456268091F9056FE175E01C
:104DE000811102C06EEF72E088E29BE00E945626BD
:104DF00082E090E0909300068093FF0580E00895A4
:104E00000E94E81880E00E94DA186AE473E088E201
:104E10009BE00E9456268091FB0568E573E088239D
:104E200011F06BE573E088E29BE00E94562681E07A
:104E30000E94DA186FE573E088E29BE00E94562634
:104E40008091FC0568E573E0882311F06BE573E061
:104E500088E29BE00E945626109200061092FF0501
:104E600080E00895FB0101900020E9F73197AF0140
:104E7000461B570B0C9453130F931F93CF938C0126
:104E8000C0E0F8018481C81738F460E373E0C8011A
:104E90000E943227CF5FF5CFCF911F910F910895D8
:104EA0004F925F926F927F928F929F92AF92BF923A
:104EB000CF92DF92EF92FF920F931F93CF93DF93E6
:104EC000CDB7DEB7A1970FB6F894DEBF0FBECDBF4A
:104ED000FC018B0194819F77963009F46CC150F4EA
:104EE000923090F0943008F02BC142815381608160
:104EF0007181E5C09C3009F443C048F4983009F44E
:104F000055C19A3009F43BC160E773E035C0903277
:104F100009F4D9C09034C1F7E080F18069E773E00B
:104F2000E114F10449F165E773E0C8010E943227FA
:104F3000F80184818F5F8483C8010E943C27B801F7
:104F4000C7010E945027C7010E94D7157C016CE65B
:104F500073E0892B11F46DE673E0C8010E943227DB
:104F6000E114F10449F7F801848181508483C80178
:104F70000E943C276AE773E0C8010E943227E5C01F
:104F800080809180A280B380A5019401C501B40105
:104F90000E942F3A8111B8CF20E030E0A901C5016D
:104FA000B4010E942F3A882379F0A5019401C5012C
:104FB000B4010E94903B9B01AC01C501B4010E9469
:104FC0002F3A882309F4A0CF20E030E0A901C501E1
:104FD000B4010E942F3A87FF08C06DE2C8010E9409
:104FE0003E13B7FAB094B7F8B0946E0127E1C20E41
:104FF000D11CB501A401C6010E94E1134F89588D4F
:10500000698D7A8DC8010E946813F9A0FF2091F183
:105010006B8D7C8D8D8D9E8D4E01E1E18E0E911CF0
:10502000EF2C54012AE0422E512C612C712CEA9471
:10503000FFEFEF1659F0A30192010E945E3B605D05
:10504000F40162934F01B901CA01F1CF8F2D90E0B5
:10505000BC0160957095F501E81BF90B31978EE264
:10506000808344275527461B570B6A0D7B1DC801BB
:105070000E9453138F8D98A1892B09F466C065E6B1
:10508000C8010E943E13EF8CF8A0C701F7FE08C0CC
:105090006DE2C8010E943E13882799278E199F0947
:1050A000F6012AE030E0B9010E94373C805D82932E
:1050B000CB010097C1F7A6014E1B5F0BBF01C801D2
:1050C0000E94531342C0E080F18060E873E0E11475
:1050D000F10409F451CF6CE773E0C8010E94322754
:1050E000F80184818F5F8483C8010E943C27F70107
:1050F00066817781C8010E94B41364E075E0C8013D
:105100000E943227B801C7010E945027C7010E94A0
:10511000D7157C016CE673E0892B11F46DE673E022
:10512000C8010E943227E114F104F1F6F8018481EC
:1051300081508483C8010E943C2761E873E01CCF42
:1051400060817181C8010E94B413F801828193814A
:10515000A1960FB6F894DEBF0FBECDBFDF91CF9101
:105160001F910F91FF90EF90DF90CF90BF90AF9085
:105170009F908F907F906F905F904F900895C08028
:10518000D180E280F380B701A601F7FE0BC06DE28B
:10519000C8010E943E1344275527BA014C195D09E6
:1051A0006E097F09C8010E946813CFCF40815181E9
:1051B00062817381F7CF808163E873E08111DCCE77
:1051C00068E873E0D9CEFB0101900020E9F7319740
:1051D000E61BF70BDC0111962D913C911297E20F23
:1051E000F31F1296FC93EE93119708950F931F935C
:1051F000CF938C01C0E0F8018381C81738F460E3D5
:1052000073E0C8010E94E328CF5FF5CFCF911F91D3
:105210000F9108954F925F926F927F928F929F921B
:10522000AF92BF92EF92FF920F931F93CF93DF93B2
:10523000CDB7DEB7A1970FB6F894DEBF0FBECDBFD6
:10524000FC018B0194819F77963009F468C118F5B1
:10525000923058F1943008F040C182819381FB0173
:1052600021813281820F931F92838183A1960FB691
:10527000F894DEBF0FBECDBFDF91CF911F910F918C
:10528000FF90EF90BF90AF909F908F907F906F9026
:105290005F904F9008959C3009F443C048F49830D3
:1052A00009F438C19A3009F41EC160E773E035C0D3
:1052B000903209F4D5C09034C1F7E080F18069E7FD
:1052C00073E0E114F10449F165E773E0C8010E945D
:1052D000E328F80183818F5F8383C8010E94F62849
:1052E000B801C7010E940A29C7010E94D7157C0195
:1052F0006CE673E0892B11F46DE673E0C8010E943F
:10530000E328E114F10449F7F80183818150838394
:10531000C8010E94F6286AE773E0C8010E94E328EA
:1053200093C080809180A280B380A5019401C501C3
:10533000B4010E942F3A8111B8CF20E030E0A901DA
:10534000C501B4010E942F3A882379F0A501940188
:10535000C501B4010E94903B9B01AC01C501B401A1
:105360000E942F3A882309F4A0CF20E030E0A90161
:10537000C501B4010E942F3A87FF0AC0F80181815C
:105380009281019692838183B7FAB094B7F8B09472
:105390007E01F7E1EF0EF11CB501A401C7010E94E7
:1053A000E1134F89588D698D7A8DC8010E9462156D
:1053B000B9A0BB2041F16B8D7C8D8D8D9E8D4E01F2
:1053C00021E1820E911CAB2C2AE0422E512C612C43
:1053D000712CAA94EFEFAE1659F0A30192010E942E
:1053E0005E3B605DF40162934F01B901CA01F1CFE8
:1053F0008B2D90E080959095F80121813281281BBA
:10540000390B328321838F8D98A10097E9F0F80141
:105410002181328197FD1CC02F5F3F4F3283218352
:10542000F7012AE030E0B9010E94373C805D8293A9
:10543000CB010097C1F7EE1AFF0AF8018181928132
:10544000E80EF91EF282E182F801818192810ECF8D
:105450002E5F3F4F32832183919581959109E0CF53
:10546000E080F18060E873E0E114F10409F455CFC5
:105470006CE773E0C8010E94E328F80183818F5F25
:105480008383C8010E94F628F70166817781C801ED
:105490000E94B01564E075E0C8010E94E328B801DD
:1054A000C7010E940A29C7010E94D7157C016CE63A
:1054B00073E0892B11F46DE673E0C8010E94E328C4
:1054C000E114F104F1F6F801838181508383C8016E
:1054D0000E94F62861E873E020CF60817181C801E5
:1054E0000E94B015B1CF408151816281738177FFF5
:1054F0000DC0F8018181928101969283818370951C
:105500006095509541955F4F6F4F7F4FC8010E9446
:1055100062159ACF4081518162817381F7CF80817A
:1055200063E873E08111F9CE68E873E0F6CEFC0120
:1055300080819181009711F00C94EF3C0895CF93F6
:10554000DF932091F3093091F409232B89F0FC01BA
:10555000C091EF09D091F00960817181CE010E9464
:10556000953E009729F08C1B9D0BDF91CF910895FC
:105570008FEF9FEFFACF0F931F93CF93DF9300D05E
:1055800000D01F921F92CDB7DEB78C01D80159967B
:105590004D915C915A974115510551F0ED91FC9157
:1055A000048CF58DE02D70E060E0C8011995EECF18
:1055B000F801808D0E943920892BB1F148E050E03C
:1055C000BE016F5F7F4FD80158968C910E943E219B
:1055D00018161906F4F4D801509684E0FE013196AD
:1055E00001900D928A95E1F78D8190E0982F8827A0
:1055F0002E81820F911DF801958B848B8F81282F2E
:1056000030E0322F22278885820F932F911D928FB1
:10561000818F28960FB6F894DEBF0FBECDBFDF9105
:10562000CF911F910F91089590E080E0F2CF4F92BB
:105630005F926F927F928F929F92AF92BF92CF9222
:10564000DF92EF92FF920F931F93CF93DF93CDB72B
:10565000DEB763970FB6F894DEBF0FBECDBF7C01F7
:105660006B013A01FB0120E090E080E06AE03191BB
:10567000332309F461C040ED430F4A3008F04DC0B8
:10568000689FA001699F500D1124CA01C097830F24
:10569000911D37FD9A958F3F910549F340F3F7012E
:1056A00042815381648175818091E5099091E60979
:1056B000A091E709B091E809481759076A077B07E5
:1056C00009F40DC28701085F1F4F0E947C046F70B0
:1056D00077277C5FC8010E943123813009F004C222
:1056E00086EC92E09A838983F70182819381A48179
:1056F000B5818B839C83AD83BE8345E350E0BE01BF
:105700006F5F7F4FC8010E94B212892BA9F5D12C7F
:10571000C12CC8010E94671A17C03E3209F0BFCFE2
:10572000233009F4BCCFD301A20FB11D12968C9384
:105730002F5F90E080E09BCF233009F0B0CFF301E2
:105740008583CC24C394D12CC60163960FB6F894FC
:10575000DEBF0FBECDBFDF91CF911F910F91FF90A4
:10576000EF90DF90CF90BF90AF909F908F907F9001
:105770006F905F904F9008950E947C04F7017783AB
:10578000668342E050E0B7016A5F7F4FC8010E9424
:10579000CA1F81E090E09A83898342E050E0BE0115
:1057A0006F5F7F4FC8010E94CA1F80E091E09A831B
:1057B000898342E050E0BE016F5F7F4FC8010E94C5
:1057C000CA1F1A82198242E050E0BE016F5F7F4F0C
:1057D000C8010E94CA1F42E050E0BE016F5F7F4FC8
:1057E000C8010E94CA1F42E050E0BE016F5F7F4FB8
:1057F000C8010E94CA1F5601F6018081882301F169
:105800006501F60181912F01882311F08E32B1F4E8
:1058100046018A189B081814190474F48D8641E017
:1058200050E0BE01635F7F4FC8010E94CA1FA40100
:10583000B501C8010E94CA1F5201DECF6201E1CF4B
:105840001D8641E050E0BE01635F7F4FC8010E94AA
:10585000CA1FC12CDD24D394DA82C98242E050E011
:10586000BE016F5F7F4FC8010E94CA1FDA82C982E2
:1058700042E050E0BE016F5F7F4FC8010E94CA1F27
:10588000C8010E94091B892B09F441CFF3E0AF2E18
:10589000B12C230122E0420E511CD4C0F7014281F9
:1058A000538164817581808D918DA28DB38D481750
:1058B00059076A077B0709F008C1848D958DC59744
:1058C00009F003C181A192A15DEFC52EDD24DA9418
:1058D0000C970CF4ADC04CE050E0BE016F5F7F4F01
:1058E000C8010E940D228B819C81982789279827C7
:1058F0009A8B898BF7014681578129813A8142171A
:10590000530709F0E7C097FFE5C08F7092703BEF37
:10591000C32EDD24DA94892B09F08AC06F80788445
:105920007624672476242AEFC22EDD24DA946114CB
:10593000710409F47DC0D12CC12C8D819E819827E2
:1059400089279827C816D906F8F441E050E0BE012F
:10595000635F7F4FC8010E940D224D85442331F0C3
:1059600050E070E060E0C8010E940D228D85811139
:10597000ECCF44E050E070E060E0C8010E940D22EE
:10598000FFEFCF1ADF0AD9CF912C812C41E050E0F4
:10599000BE016D5E7F4FC8010E940D224B89842F8E
:1059A000807C09F06CC0442331F050E070E060E08E
:1059B000C8010E940D228B898111E8CF42E050E09E
:1059C000BE01615F7F4FC8010E940D2242E050E09E
:1059D000BE01635F7F4FC8010E940D2244E050E08A
:1059E00070E060E0C8010E940D2242E050E0BE017C
:1059F0006F5E7F4FC8010E940D228F85988949896B
:105A00005A898115914009F043C0CD84DE84DC249D
:105A1000CD24DC2481E0C816D104D1F541155440D1
:105A200009F04AC044E050E0B201C8010E940D22D2
:105A300021E0A21AB10809F46CCEFFEFCF16DF0601
:105A400009F067CE0E947C043B014C01C8010E9412
:105A5000BB2A181619060CF421CF0E947C04661983
:105A6000770988099909693873418105910548F5D5
:105A700062E370E080E090E00E944A04E7CF41E0FA
:105A800050E070E060E0C8010E940D221B8A93CFB5
:105A900054274527542770E060E0C8010E940D227A
:105AA000FFEF8F1A9F0A6814790409F06FCF96EF01
:105AB000C92EDD24DA94BCCFE7EFCE2EDD24DA94B4
:105AC000B7CFCC24CA94DC2CB3CF6EEFC62EDD2426
:105AD000DA94AECF4CEFC42EDD24DA94A9CF8EEF4A
