:100000000C94D9010C940A020C940A020C940A0272
:100010000C940A020C940A020C940A020C940A0230
:100020000C940A020C940A020C940A020C940A0220
:100030000C940A020C940A020C940A020C940A0210
:100040000C940A020C940A020C940A020C940A0200
:100050000C940A020C940A020C940A020C94E62FE7
:100060000C940A020C94B02F0C94862F0C940A0264
:100070000C940A020C940A020C940A020C940A02D0
:100080000C940A020C940A020C940A020C940A02C0
:100090000C940A020C940A020C940A020C9430305C
:1000A0000C940A020C940A020C940A020C940A02A0
:1000B0000C940A020C940A020C940A020C940A0290
:1000C0000C940A020C940A020C940A020C940A0280
:1000D0000C940A020C940A020C940A020C940A0270
:1000E0000C940A020C94EF210C94A1200C94431060
:1000F0000C94D90F0C9475020C94C3030C942B1A16
:100100000C94F3030C9431020C94BF120C94FD1E5A
:100110000C94B0150C9433220C94AF070C94CC15AE
:100120000C94E5030C94CB150C9406060C94D21C8D
:100130000C9457050C94CE2D0C942F020C9489022C
:100140000C94F8200C94F6050C9454260C94E903B6
:100150000C94461A0C94B4150C9401050C94B80335
:100160000C94BB120C94B4030C94E11C0C94422329
:100170000C94CF0F0C94E0250C9423050C94CF0223
:100180000C94EF1D0C9463120C94BE230C94721FFC
:100190000C9412230C94721A0C94DB030C949702A7
:1001A0000C941C030C948D1F0C94C5070C94E9232C
:1001B0000C949D030C9499070C942B020C94192217
:1001C0000C94C0150C94A2030C9452120C94D703F7
:1001D0000C94D0210C94B7120C94432D0C948012E3
:1001E0000C94AE100C94F4220C9466020C94E1036F
:1001F0000C94D6050C94C3150C9454310C945519D9
:100200000C9486250C9439020C94142A0C94EF0358
:100210000C94D02C0C94941A0C94BC030C94D0071E
:100220000C9410050C94C0030C94D3030C94CF12BF
:100230000C94CD030C942A050C94121F0C943002DC
:100240000C9407390C94C9030C94BE150C94CD1A68
:10025000CDCCCC3D0AD7233C17B7D13877CC2B3245
:100260009595E6241FB14F0A0000803FCDCCCC3DD0
:100270006F12833A95BFD6337D1D9026B3CE010C05
:10028000000020410000C84200401C4620BCBE4C7B
:10029000CA1B0E5AAEC59D7400000A0B02090C0D54
:1002A0000E08070304010000000000000000000029
:1002B000000000000000000000000000000000003E
:1002C00000000000121110000000000000000000FB
:1002D00000000000000000000000000000007C3C66
:1002E0003E5E2B3D3F2F5B5D3B2C2A225C000000D5
:1002F0002200250028002B002E00310034000201CE
:100300000000050108010B01000021002400270066
:100310002A002D0030003300010100000401070114
:100320000A0105050505070508080808020202027A
:100330000A0A080804040404010101010101010181
:100340000303030303030303040707070C0C0C0C4C
:100350000C0C0C0C02020202060606060606060635
:100360000B0B0B0B0B0B0B0B0102102020080810C2
:100370002040102040800201020108040201010215
:1003800004081020408080402010080402018004EE
:100390000201804020100804020108040201010249
:1003A00004081020408001020408102040805431CD
:1003B000073911241FBECFEFD1E2DEBFCDBF00E071
:1003C0000CBF15E0A0E0B2E0EAE3FBE700E00BBF02
:1003D00002C007900D92A034B107D9F72AE0A0E43B
:1003E000B5E001C01D92A43EB207E1F711E0C8EDEF
:1003F000D1E000E006C021970109802FFE010E9494
:10040000273BC73DD10780E00807A9F70E94663265
:100410000C948B3D0C94000090E0FC01E859FC4FDB
:1004200024918E5D9C4FFC018491882399F090E08B
:10043000880F991FFC01E85FFC4FA591B491FC0166
:10044000E251FD4F859194918FB7F894EC91E22B96
:10045000EC938FBF0895FC01818D928D08950895CE
:1004600008950895DC01ED91FC910190F081E02D5B
:100470001994AF92BF92CF92DF92EF92FF920F93B7
:100480001F93CF93DF936C017B018B01040F151F2A
:10049000EB015E01AE18BF08C017D10759F0699192
:1004A000D601ED91FC910190F081E02DC6011995E6
:1004B000892B79F7C501DF91CF911F910F91FF90A3
:1004C000EF90DF90CF90BF90AF900895FC01538DD7
:1004D000448D252F30E0842F90E0821B930B54171E
:1004E00010F0CF96089501970895FC01918D828DAB
:1004F000981761F0A28DAE0FBF2FB11D5D968C9144
:10050000928D9F5F9F73928F90E008958FEF9FEF82
:100510000895FC01918D828D981731F0828DE80F3E
:10052000F11D858D90E008958FEF9FEF0895FC01F8
:10053000918D228D892F90E0805C9F4F821B9109C5
:100540008F73992708958FE598E00E94970221E024
:10055000892B09F420E0822F0895FC01A48DA80FB7
:10056000B92FB11DA35ABF4F2C91848D90E00196F5
:100570008F739927848FA689B7892C93A089B18915
:100580008C91837080648C93938D848D981306C0B6
:100590000288F389E02D80818F7D80830895EF921A
:1005A000FF920F931F93CF93DF93EC0181E0888F2D
:1005B0009B8D8C8D98131AC0E889F989808185FFFD
:1005C00015C09FB7F894EE89FF896083E889F9899F
:1005D00080818370806480839FBF81E090E0DF91A1
:1005E000CF911F910F91FF90EF900895F62E0B8DF4
:1005F00010E00F5F1F4F0F731127E02E8C8D8E11AF
:100600000CC00FB607FCFACFE889F989808185FF15
:10061000F5CFCE010E94AD02F1CFEB8DEC0FFD2F97
:10062000F11DE35AFF4FF0829FB7F8940B8FEA89D0
:10063000FB8980818062CFCFCF93DF93EC01888DDF
:100640008823B9F0AA89BB89E889F9898C9185FD4D
:1006500003C0808186FD0DC00FB607FCF7CF8C91DB
:1006600085FFF2CF808185FFEDCFCE010E94AD02E4
:10067000E9CFDF91CF91089580E090E0892B29F0B8
:100680000E94A30281110E94000080E090E0892B6B
:1006900049F080E090E0892B29F00E940000811150
:1006A0000E94000080E090E0892B49F080E090E01B
:1006B000892B29F00E94000081110E94000080E037
:1006C00090E0892B49F080E090E0892B29F00E948E
:1006D000000081110C9400000895282F30E0F901EA
:1006E000E856FD4F9491F901E859FC4F44912E5D75
:1006F0003C4FF9012491222309F435C0992311F1CB
:1007000091509231F8F4E92FF0E08827E557FC4F3B
:100710008F4F0C94273BBC03C0039D03B403B80365
:10072000A203C303C903CD03D303D703DB03E10350
:10073000E503A203E903EF03F303809180008F77C1
:1007400080938000E22FF0E0EE0FFF1FE251FD4F9B
:10075000A591B4918FB7F894EC91611148C0409580
:100760004E234C938FBF0895809180008F7DE8CFFA
:1007700080918000877FE4CF84B58F7784BDE2CFFE
:1007800084B58F7DFBCF8091B0008F778093B000D0
:10079000D9CF8091B0008F7DF9CF809190008F7775
:1007A00080939000CFCF809190008F7DF9CF809182
:1007B0009000877FF5CF8091A0008F778093A00075
:1007C000C1CF8091A0008F7DF9CF8091A000877F5D
:1007D000F5CF809120018F7780932001B3CF809156
:1007E00020018F7DF9CF80912001877FF5CF4E2B9F
:1007F000B8CF3FB7F89480918F0590919005A09164
:100800009105B091920526B5A89B05C02F3F19F020
:100810000196A11DB11D3FBFBA2FA92F982F882780
:10082000BC01CD01620F711D811D911D42E0660F5B
:10083000771F881F991F4A95D1F708958F929F922D
:10084000AF92BF92CF92DF92EF92FF924B015C0189
:100850000E94F9036B017C010E94F9036C197D0968
:100860008E099F09683E734081059105A8F321E038
:10087000821A9108A108B10888EEC80E83E0D81E3C
:10088000E11CF11C81149104A104B10429F7FF902B
:10089000EF90DF90CF90BF90AF909F908F90089592
:1008A0002FB7F89460918B0570918C0580918D0520
:1008B00090918E052FBF0895CF93DF93EC010E9496
:1008C0005004E1ECF9E020813181232B41F0709656
:1008D0002AE0E13CF207B8F390E080E026C02091E6
:1008E000BF093091C0092F5F3F4F11F13093C0090C
:1008F0002093BF092091BF093091C009378726870F
:10090000D183C08313821282648375838683978325
:1009100040ED57E060E070E0408751876287738761
:1009200015861486CF0182279327DF91CF910895F2
:1009300021E030E0DBCF20916705260F3327331FFE
:1009400021323105ECF420913508FC0190E080E083
:10095000243069F082E00895A09167052191AC01EF
:10096000495B5A4FA40FB52FB11D2C9301968617E2
:1009700098F380916705680F6093670580E008959C
:1009800081E008951092350881E080933408109238
:100990000F0861E084E10E946D0361E085E10E943F
:1009A0006D03E9EBF0E080818E7F808380818D7F15
:1009B000808388E48093B80085E48093BC00089528
:1009C000CF93DF9391E0909346058823B9F0C091CF
:1009D000B800D091BA008091BC008A7B8093BC00A3
:1009E00060E084E10E946D0360E085E10E946D0398
:1009F0000E94C204D093BA00C093B800DF91CF9197
:100A00000895E091EE078091ED07E81730F4F0E0EB
:100A1000E151F84F808190E008958FEF9FEF0895A6
:100A20009091EE078091ED072FEF3FEF981748F474
:100A3000E92FF0E0E151F84F208130E09F5F909383
:100A4000EE07C90108958091ED079091EE07891B8B
:100A5000990B0895CF92DF92EF92FF920F931F931D
:100A6000CF93DF937C01CB018A0120915E08222382
:100A700089F0EB016B01C40ED51ECC15DD0569F0C4
:100A80006991D701ED91FC910190F081E02DC701B2
:100A90001995F3CF642F0E949B04C801DF91CF9179
:100AA0001F910F91FF90EF90DF90CF900895CF931B
:100AB000DF931F92CDB7DEB7698320915E082223B2
:100AC000F9F020915B08203258F021E030E0FC0181
:100AD0003383228390E080E00F90DF91CF910895DF
:100AE00080915C08E82FF0E0E55CF74F99819083F6
:100AF0008F5F80935C0880935B0881E090E0ECCF8F
:100B000061E0CE0101960E949B04F7CFFC01DB015E
:100B100012968D919C911397938382838EE692E037
:100B20009183808314968C911497848315968C916D
:100B30001597858316964D915D916D917C911997CE
:100B400046835783608771871A964D915D916D91A9
:100B50007C911D9742875387648775871E964D91B8
:100B60005D916D917C91519746875787608B718B12
:100B700052968C915297828B53964D915D916D91C7
:100B80007C915697438B548B658B768B57964D9102
:100B90005D916D917C915A97478B508F618F728FC9
:100BA0005B968D919C91948F838F0895DC0159966B
:100BB000ED91FC913097B9F083899489A589B68924
:100BC0004285538564857585841B950BA60BB70BF1
:100BD000811520E89207A105B10538F08FEF9FE756
:100BE000A0E0B0E0089590E080E00895DC0159961F
:100BF0008D919C91009739F0DC01ED91FC9104807E
:100C0000F581E02D199490E080E00895CF93DF9373
:100C10001F92CDB7DEB76983DC01ED91FC910280B4
:100C2000F381E02D41E050E0BE016F5F7F4F1995E9
:100C30000F90DF91CF910895FC0120812EBD9B0183
:100C40002150310941F051810DB407FEFDCF4EB561
:100C50005EBD4193F5CF61507109860F971F0DB4AA
:100C600007FEFDCF2EB5FC0120830895E091E50538
:100C7000F091E60580819091E405892B80830895A9
:100C8000E091E505F091E60590818091E40580957D
:100C90008923808308958EBD00000DB407FEFDCF2B
:100CA0008EB508958FEF0C944B060F931F93CF933F
:100CB000DF93EC010E9450048B010E9452068F3F8B
:100CC00069F00E945004601B710B6C177D07A8F33C
:100CD00080E0DF91CF911F910F91089581E0F9CFCE
:100CE000AF92BF92CF92DF92EF92FF920F931F933A
:100CF000CF93DF9300D000D01F921F92CDB7DEB705
:100D00008C017B016A018091E7058333E1F458018E
:100D1000A40EB51EA016B10609F46FC00E944006CD
:100D200080EF0E944B06812F0E944B06802F0E946D
:100D30004B060F5F1F4FF70181917F010E944B0609
:100D40000E943606E7CF5B01A40EB51E8433C1F4C2
:100D50000E94400619830A838D2D80688B83CC8284
:100D600064E070E0CE0101960E941C06AE14BF0440
:100D700009F441C0F70181917F010E944B06F6CF33
:100D80000E9440060F3F110509F028F419820A83DA
:100D900084E08B830CC017FD17C019820A8333E0EF
:100DA000169507953A95E1F7007E0C600B8386E077
:100DB000C816D104A0F5F701DE011496EA15FB056B
:100DC00099F081918D93FACFC80126E09695879589
:100DD0002A95E1F7807E19830A830115104C10F4DF
:100DE0008461D7CF8C61D5CFB6016D5F7F4FCE01C7
:100DF00001960E941C060E943606C60128960FB670
:100E0000F894DEBF0FBECDBFDF91CF911F910F9140
:100E1000FF90EF90DF90CF90BF90AF90089563E088
:100E200070E0CE0101960E941C06F70181917F01BE
:100E30000E944B06AE14BF04C1F7DDCFCF93DF9302
:100E40001F92CDB7DEB7898341E050E0BE016F5FEE
:100E50007F4F90E080E00E9470060F90DF91CF916D
:100E6000089590E02091E705233339F40C96982FEC
:100E7000990F990F990F80E008954896F8CFDA01FD
:100E8000E091E805F0E0FE2FEE27E60FF71F90E077
:100E9000982F8827A901BD018E0F9F1F0C94700603
:100EA000CF93DF931F921F92CDB7DEB779836A830A
:100EB00022E030E0AE014F5F5F4F60E170E00E94E2
:100EC0003F070F900F90DF91CF910895CF93DF935D
:100ED0001F921F92CDB7DEB779836A8322E030E09C
:100EE000AE014F5F5F4F64E070E00E943F070F90DC
:100EF0000F90DF91CF910895CF93DF931F92CDB7DD
:100F0000DEB72091E80530E0322F2227260F371F69
:100F100090E0982F8827498341E050E0BE016F5F41
:100F20007F4F820F931F0E9470060F90DF91CF9129
:100F30000895CF93DF931F92CDB7DEB76983DC01AD
:100F4000ED91FC910280F381E02D41E050E0BE0183
:100F50006F5F7F4F19950F90DF91CF910895CF93D9
:100F6000DF931F92CDB7DEB76983DC01ED91FC9171
:100F70000280F381E02D41E050E0BE016F5F7F4FC2
:100F800019950F90DF91CF910895FC019485FB0195
:100F90008485981303C081E0983008F080E00895BC
:100FA000CF93DF931F92CDB7DEB76983DC01ED915C
:100FB000FC910280F381E02D41E050E0BE016F5FC3
:100FC0007F4F19950F90DF91CF910895089561E0BB
:100FD000FC0184810E946D03809141058111109272
:100FE000410508958CBD9DBD0895CF93DF93EC011D
:100FF00080914105811109C081E080934105809174
:101000000809909109090E94F20760E08C81DF9144
:10101000CF910C946D038F929F92AF92BF92FF92EB
:101020000F931F93CF93DF93EC01F62E49015A01E2
:101030008E81882389F08F8198859C012F5F3F4F97
:1010400038872F838230924018F40E945206F3CFE3
:10105000CE010E94E7071E82CE010E94F5078CE2B6
:1010600091E00E9455068F2D80640E944B0608E196
:1010700010E0D501C401002E04C0B695A795979540
:1010800087950A94D2F70E944B0608501109083F31
:101090008FEF180771F785E9FF2021F028E087E836
:1010A000F2128FEF0E944B0610E00E9452068A87D0
:1010B00087FF04C01F3F11F01F5FF7CFDF91CF9173
:1010C0001F910F91FF90BF90AF909F908F900895C8
:1010D000AF92BF92CF92DF92EF92FF920F931F9346
:1010E000CF93DF93EC016901C801820F931F813018
:1010F000924050F58E81882379F088819981AA8168
:10110000BB8184179507A607B70731F48F819885AF
:10111000C816D90608F042C0488359836A837B8386
:101120008B85833039F089E0440F551F661F771F88
:101130008A95D1F79A01AB0161E1CE010E940B08BB
:10114000882389F083E08D83CE010E94E70780E049
:10115000DF91CF911F910F91FF90EF90DF90CF9093
:10116000BF90AF9008950E9450045B010E94520608
:101170008A878F3F69F40E9450046A197B096D3297
:101180007140A0F38FE08D83CE010E94E707DCCF92
:101190008E3F89F418861F8281E08E838F81988527
:1011A0008C159D0550F40E9452068F8198850196FA
:1011B00098878F83F3CF8DE0E6CF6701E00EF11EB5
:1011C0000E945206F60181936F01EE15FF05C1F7EB
:1011D0008F819885080F191F18870F8389858823A9
:1011E00019F001151240A0F08E81882389F08F81BB
:1011F00098859C012F5F3F4F38872F838230924024
:1012000018F40E945206F3CFCE010E94E7071E8217
:1012100081E09ECFCF92DF92EF92FF920F93CF9318
:10122000DF93EC01690182E141155105610571050A
:1012300099F08B85833039F089E0440F551F661F84
:10124000771F8A95D1F79A01AB0168E1CE010E9420
:101250000B08882319F084E08D832DC08EEF0E9447
:101260004B0676018EEFD81AF70181917F010E941B
:101270004B06EC14FD04C1F78FEF0E944B068FEF75
:101280000E944B060E9452068A878F71853071F446
:10129000011116C0CE010E94E70781E0DF91CF91D6
:1012A0000F91FF90EF90DF90CF90089581E18D83B3
:1012B000CE010E94E707CE010E94E70780E0EECF53
:1012C00088E592E00E945506811102C085E1C4CFF5
:1012D00020E030E0A9016DE0CE010E940B088823D8
:1012E00011F084E1B9CF0E9452068111FACFD2CF1A
:1012F0000F934091420550914305609144057091D0
:101300004505411551056105710599F0082F2DEE30
:1013100035E08091EA059091EB050E940A09882347
:1013200049F0109242051092430510924405109224
:10133000450581E00F9108950F93CF93C82F8091B9
:10134000EC05811105C0C1E08C2FCF910F9108955C
:1013500040910C0250910D0260910E0270910F02AB
:101360000C2F2DEE35E08091EA059091EB050E945F
:101370000A09811102C0C0E0E7CFCC2321F381E04C
:101380000E9478098823B9F31092EC05DDCF8F9283
:101390009F92AF92BF92EF92FF920F931F93CF93C2
:1013A0004B015C01C42F80910C0290910D02A09121
:1013B0000E02B0910F0288159905AA05BB0551F1DF
:1013C00081E00E949C0981110BC080E0CF911F91A8
:1013D0000F91FF90EF90BF90AF909F908F900895E6
:1013E0008DEEE82E85E0F82E00E012E030E020E0FF
:1013F000B501A4018091EA059091EB050E9468086F
:10140000882319F380920C0290920D02A0920E0292
:10141000B0920F024091EC054C2B4093EC0581E01B
:10142000D5CF8F929F92AF92BF92CF92DF92EF92E1
:10143000FF92CF932AE039E03093EB052093EA0541
:10144000882309F46DC040E060E070E0CB010E94A9
:10145000C70981110BC080E0CF91FF90EF90DF9022
:10146000CF90BF90AF909F908F9008958091AB07E1
:101470008F7789F78091B7079091B807A091B90746
:10148000B091BA0784369105A105B10520F3C0904B
:10149000B307D090B407E090B507F090B607C11439
:1014A000D104E104F104B9F240E0C701B6010E94A1
:1014B000C709882381F28091F8059091F90581157B
:1014C000924049F6A091FD05AA2329F26091FB05FF
:1014D0007091FC056115710509F4BDCF2091FA05E5
:1014E000222309F4B8CFA093280920931A0990E089
:1014F00080E030E0E1E0F0E0C82FAF01082E02C04C
:10150000440F551F0A94E2F72417350769F041E0AC
:10151000480F01968930910579F7409323099BCFB5
:10152000C12CD12C7601C0CF8093230920910306D2
:101530003091040650E040E02115310541F420913E
:101540001106309112064091130650911406209313
:101550001B0930931C0940931D0950931E09460135
:101560005701860E971EA11CB11C809229099092EA
:101570002A09A0922B09B0922C09E091FE05F09166
:10158000FF05F0932F09E0932E09B0E00E942F3A57
:10159000DC01CB01880D991DAA1DBB1D809330096C
:1015A00090933109A0933209B093330925E0EE0FEF
:1015B000FF1F2A95E1F7E150FE4FEF2FFF27E69539
:1015C0008E0F9F1FA11DB11D8093240990932509A3
:1015D000A0932609B09327098090000690900106F9
:1015E000B12CA12C8114910441F480900D069090AF
:1015F0000E06A0900F06B0901006C81AD90AEA0A83
:10160000FB0AC80CD91CEA1CFB1C04C0F694E79426
:10161000D794C794CA95D2F7C0921F09D0922009D7
:10162000E0922109F092220985EFC8168FE0D806D2
:10163000E104F10428F48CE080932D0981E00CCFC3
:1016400080E125EFC2162FEFD206E104F104A0F3EA
:101650008091190690911A06A0911B06B0911C0664
:101660008093300990933109A0933209B0933309E4
:1016700080E2E2CF4F925F926F927F928F929F9221
:10168000AF92BF92CF92DF92EF92FF920F931F9390
:10169000CF93DF93EC01423051056105710590F461
:1016A00080E0DF91CF911F910F91FF90EF90DF903D
:1016B000CF90BF90AF909F908F907F906F905F90F2
:1016C0004F90089589859A85AB85BC850196A11DAB
:1016D000B11D84179507A607B70710F3CB88DC88E0
:1016E000ED88FE888F89803109F042C0BB27A72F83
:1016F000962F852F480159012A013B01C80ED91E9A
:10170000EA1EFB1E80910C0290910D02A0910E0228
:10171000B0910F02C816D906EA06FB0699F58F8923
:101720008031C1F5B301A201552766277727440F01
:10173000551F43515A4FFA01918280828091EC05E6
:1017400081608093EC058A89823080F08D819E8152
:10175000AF81B8858C0D9D1DAE1DBF1D80934205C8
:1017600090934305A0934405B093450581E099CF3C
:10177000DB01CA01E7E0B695A79597958795EA95AD
:10178000D1F7B8CF40E0C701B6010E94C709811167
:10179000C6CF86CFB301A2014F775527662777279B
:1017A000440F551F440F551F43515A4FFA01808271
:1017B0009182A282B382C2CF8F929F92AF92BF9248
:1017C000CF92DF92EF92FF920F931F93CF93DF930D
:1017D000FC0181859285A385B4850196A11DB11D6B
:1017E00084179507A607B70770F480E0DF91CF91C3
:1017F0001F910F91FF90EF90DF90CF90BF90AF902F
:101800009F908F90089583889488A588B68887894B
:10181000803189F5BB27A72F962F852FE9016A0113
:101820007B018F01BC01CD01680D791D8A1D9B1DB7
:1018300080900C0290900D02A0900E02B0900F02CA
:1018400086169706A806B90601F5F8018789803142
:1018500011F5DD24EE24FF24F601EE0FFF1FE35106
:10186000FA4F80819181B0E0A0E088839983AA83B8
:10187000BB8381E0BBCFDB01CA01C7E0B695A7956A
:1018800097958795CA95D1F7C9CF40E00E94C709BF
:101890008111DBCFAACFE894C7F8DD24EE24FF2422
:1018A000F601EE0FFF1FEE0FFF1FE351FA4F80818D
:1018B0009181A281B381BF70D8CF4F925F926F9216
:1018C0007F92AF92BF92CF92DF92EF92FF920F93EF
:1018D0001F93CF93DF9300D01F92CDB7DEB78C015B
:1018E00049835A836B837C835901C12CD12C7601A7
:1018F000412C82E0582E612C712C49815A816B81D8
:101900007C819E012F5F3F4FC8010E94DC0B882322
:1019100039F1F8018585A301920104C0220F331F1C
:10192000441F551F8A95D2F7DA01C901C80ED91E86
:10193000EA1EFB1E49815A816B817C818789803137
:1019400011F188EF9FEFAFEFBFE0481759076A0723
:101950007B0798F2F501C082D182E282F38281E0B6
:101960000F900F900F900F90DF91CF911F910F91DB
:10197000FF90EF90DF90CF90BF90AF907F906F90EF
:101980005F904F90089588EF9FEFA0E0B0E0DDCF2B
:10199000CF93DF93FC012581222321F080E0DF91AA
:1019A000CF910895EC0180912D09803159F582E0A5
:1019B0008583178A108E118E128E80912E09909138
:1019C0002F09B0E0A0E025E0880F991FAA1FBB1FD8
:1019D0002A95D1F7838B948BA58BB68B86E199E002
:1019E0009C8F8B8F81E08C831E821F8218861986C4
:1019F0001A861B861C861D861E861F86188A198AD3
:101A00001A8ACDCF803251F683E085834091300928
:101A1000509131096091320970913309478B508F91
:101A2000618F728F9F012D5E3F4F86E199E00E948A
:101A30005D0C8111D3CFB2CF8F929F92AF92BF92A4
:101A4000CF92DF92EF92FF920F931F93CF93DF938A
:101A5000EC018D8181110EC080E0DF91CF911F914B
:101A60000F91FF90EF90DF90CF90BF90AF909F903D
:101A70008F9008950B891C892D893E8904171507BD
:101A80002607370748F34A015B01823031F48A8622
:101A90009B86AC86BD8681E0E0CF81149104A104D1
:101AA000B10449F41E821F82188619861A861B8685
:101AB0001C861D86F0CF0A851B852C853D85EB8D08
:101AC000FC8D858590E00996B901A8014150510926
:101AD00061097109082E04C0769567955795479559
:101AE0000A94D2F775016401E1E0CE1AD108E10849
:101AF000F10804C0F694E794D794C7948A95D2F776
:101B0000C416D506E606F70620F0012B022B032BA0
:101B100011F58F89988DA98DBA8D8E839F83A887A3
:101B2000B9878E010A5F1F4FC114D104E104F1048B
:101B300009F4ADCF4E815F816885798598018B8DE1
:101B40009C8D0E94DC0B91E0C91AD108E108F108D4
:101B50008111EACF81CFC41AD50AE60AF70AE1CF8C
:101B60003F924F925F926F927F928F929F92AF922D
:101B7000BF92CF92DF92EF92FF920F931F93CF937A
:101B8000DF93CDB7DEB72C970FB6F894DEBF0FBE4C
:101B9000CDBF5C01DC015B968D909C905C971696A6
:101BA0004D905D906D907C901997411451046104A3
:101BB000710409F468C0BFEF4B1A5B0A6B0A7B0A19
:101BC000312CF40181859285A385B4859C01AD01FA
:101BD0002F5F3F4F4F4F5F4F29873A874B875C8777
:101BE000730162011D821E821F821886F4018185A5
:101BF0009285A385B4852D813E814F815885281714
:101C000039074A075B0708F056C089859A85AB8576
:101C1000BC858C159D05AE05BF0550F482E0C82E2D
:101C2000D12CE12CF12C92E0492E512C612C712CFD
:101C30009E012F5F3F4FB701A601C4010E94DC0B3C
:101C40008823C9F189819A81AB81BC81892B8A2B38
:101C50008B2B09F1260137019FEF491A590A690AAE
:101C6000790A2D813E814F8158852F5F3F4F4F4F1D
:101C70005F4F2D833E834F8358873FEFC31AD30AAC
:101C8000E30AF30AB3CFF40140805180628073808D
:101C90003324339496CFC414D504E604F70409F72B
:101CA0000FEF1FEF2FEF3FE0B701A601C4010E9425
:101CB0003A0B811119C080E02C960FB6F894DEBF64
:101CC0000FBECDBFDF91CF911F910F91FF90EF908D
:101CD000DF90CF90BF90AF909F908F907F906F904C
:101CE0005F904F903F900895D50116964D915D916C
:101CF0006D917C911997411551056105710539F078
:101D000097018601C4010E943A0B8823A1F2D501F4
:101D10001696CD92DD92ED92FC921997332051F0F8
:101D2000D701C6010196A11DB11DF40180839183E5
:101D3000A283B383F5018789908DA18DB28D892B04
:101D40008A2B8B2B39F48481C78AD08EE18EF28E58
:101D500080688483F50184818062848381E0ACCFD4
:101D60002F923F924F925F926F927F928F929F92AB
:101D7000AF92BF92CF92DF92EF92FF920F931F9399
:101D8000CF93DF9300D0CDB7DEB7FC018581811101
:101D900018C08FEF9FEF0F900F900F90DF91CF91B2
:101DA0001F910F91FF90EF90DF90CF90BF90AF9079
:101DB0009F908F907F906F905F904F903F902F906B
:101DC0000895848180FFE5CF4389548965897689A8
:101DD00082859385A485B585312C212C4817590718
:101DE0006A077B0719F022242394312C6F0121010B
:101DF000CE0101963C01DF011696BB83AA834114F4
:101E0000510409F4C5C0F601428553856485758582
:101E10004A01F1E09F22D6015B968D919C915C97DF
:101E20008A019B01E9E03695279517950795EA9574
:101E3000D1F71596EC91E230E9F5FC01628D738DD6
:101E4000848D958D600F711F821F931FA12C22E03E
:101E5000B22EA818B9084A145B0408F45201F6011E
:101E6000248126FD04C0A114F2E0BF0671F40091A4
:101E70000C0210910D0220910E0230910F020617F4
:101E800017072807390709F05EC040E00E94C7091C
:101E9000882309F47ECFC40183519A4FD3019C015A
:101EA0002A0D3B1DFC012E173F0709F46CC0419120
:101EB0004D93F9CFDC011496BC90BA94B0228114F2
:101EC000910479F4B1100DC0452B462B472B69F5D1
:101ED000F6018789908DA18DB28D86839783A08727
:101EE000B187D6015B96ED91FC915C9716966D914A
:101EF0007D918D919C911997625071098109910989
:101F0000258504C0660F771F881F991F2A95D2F771
:101F10000685178520893189600F711F821F931FE5
:101F20006B0D711D811D911D91CFD60116964D919E
:101F30005D916D917C9119972A813B810E94DC0B08
:101F40008111CFCF26CF730185019401AB01BC0174
:101F50008091EA059091EB050E946808882309F4B6
:101F600018CF6A0C7B1CF60182859385A485B58504
:101F70008A0D9B1DA11DB11D82879387A487B587FC
:101F80004A185B083CCF281B390B620E731EEBCF3F
:101F90002A94232809F0FDCE898190E0FCCEFC0133
:101FA000818D928D009711F00C94B00E8FEF9FEF02
:101FB00008950F931F93CF93DF93EC01898D9A8D32
:101FC00010E000E0009799F00E94B00E8C010F3FE6
:101FD000100769F0898D9A8DFC01428553856485CF
:101FE000758541505109610971090E941C0DC80194
:101FF000DF91CF911F910F9108951F93CF93DF939E
:10200000FC0125812223D1F1162FEC01848187FF69
:102010002AC0668577858089918941E00E94C70939
:10202000882361F1EA8980E2E89FF0011124E351FD
:10203000FA4F309719F18D81823040F48B899C8959
:10204000AD89BE89848F958FA68FB78F8F89988D24
:10205000938F828F8F89988DA98DBA8DB58BA48B24
:102060008C818F778C83111103C08C818F7E8C8340
:10207000812FDF91CF911F910C949C0980E0DF911B
:10208000CF911F910895FF920F931F93CF93DF93EA
:10209000EC018D81813041F090E080E0DF91CF91C3
:1020A0001F910F91FF9008958C8181FFF5CF82FDE4
:1020B0001BC00091EA051091EB05C8010E94F507CD
:1020C0000E945206F82EC8010E94E7078FEFF8120F
:1020D000E3CF8C8185FF1BC060E0CE010E94FD0F25
:1020E0008C818F7D8C83D8CF4B895C896D897E896B
:1020F0008A859B85AC85BD8584179507A607B7079C
:10210000C1F2CE010E941C0D8111D3CFC5CF4091E9
:102110004205509143056091440570914505452B5A
:10212000462B472B21F080E00E947809B5CF8061D3
:102130008C832A853B85317080E092E0821B930B73
:10214000ADCFCF93DF93EC0161E00E94FD0F8823B8
:1021500011F01D8281E0DF91CF910895FC01818D06
:10216000928D009719F061E00C94FD0F08952F9265
:102170003F924F925F926F927F928F929F92AF9217
:10218000BF92CF92DF92EF92FF920F931F93CF9364
:10219000DF9300D01F921F92CDB7DEB77C015B01A9
:1021A000342E5D83DC0115968C911597813009F0F2
:1021B000CEC014962C9021FECAC022FCB4C0C32C01
:1021C000DD8022947FE027222094B22DB1702B2E47
:1021D000D7011A964D915D916D917C911D97C11417
:1021E000D10409F428C15B968D919C915C97FC0108
:1021F00074807A948A019B0169E03695279517953A
:1022000007956A95D1F770228A011170711020C06C
:1022100001151105E9F416964D915D916D917C9132
:102220001997411551056105710509F099C0579637
:102230008D919D910D90BC91A02D0097A105B105A8
:1022400009F0B0C0C7010E94B00D882309F47FC017
:1022500080E092E0801B910B46018C159D0508F4EF
:102260004C01D7015B964D915C915C9716968D91D0
:102270009D910D90BC91A02D0297A109B109FA0181
:10228000258504C0880F991FAA1FBB1F2A95D2F766
:102290004685578560897189840F951FA61FB71FD2
:1022A0009C01AD01270D311D411D511D29013A0130
:1022B000811432E0930609F07BC080910C0290916A
:1022C0000D02A0910E02B0910F0284159505A6058E
:1022D000B70559F48FEF9FEFDC0180930C029093C8
:1022E0000D02A0930E02B0930F02022D9501B301CF
:1022F000A2018091EA059091EB050E940A098823CA
:1023000031F19EEFB91AC818D908F7018285938573
:10231000A485B585880D991DA11DB11D8287938760
:10232000A487B58755CFF701438954896589768994
:1023300082859385A485B585481759076A077B0769
:1023400009F43DCFC7010E941C0D811138CF81E0F7
:1023500090E0D70113969C938E93129780E007C06C
:102360009E012F5F3F4F0E94DC0B811102C090E065
:1023700079C089819A81AB81BC81F701238D348D2D
:10238000F901278948EF5FEF60E070E0203121F02C
:1023900048EF5FEF6FEF7FE084179507A607B70759
:1023A00008F050CFF70186839783A087B18750CF7D
:1023B0000115110599F5D7011A964D915D916D9111
:1023C0007C911D9753968D919D910D90BC91A02D60
:1023D000481759076A077B0708F181E00E949C09AA
:1023E000882309F4B4CF40920C0250920D026092FF
:1023F0000E0270920F028091EC0581608093EC05D3
:10240000C80183519A4FD5019C01280D391DFC014B
:102410002E173F0759F04D914193FACF41E0C30188
:10242000B2010E94C7098111EBCF91CF281B390B54
:10243000A20EB31E68CFF70183899489A589B68956
:1024400084179507A607B70738F48481438B548B0C
:10245000658B768B80688483F701848183FD1AC045
:10246000832D9D810F900F900F900F900F90DF9113
:10247000CF911F910F91FF90EF90DF90CF90BF9081
:10248000AF909F908F907F906F905F904F903F9014
:102490002F90089561E0C7010E94FD0F882309F481
:1024A00056CFDECFCF93DF931F92CDB7DEB76983D0
:1024B00041E050E0BE016F5F7F4F0E94B7100F9068
:1024C000DF91CF910895CF93DF93EC01E98DFA8DE1
:1024D000309749F481E090E09B838A8390E080E02C
:1024E000DF91CF91089513821282898D9A8D0E9477
:1024F000B710E98DFA8D22813381232B59F7F0CF64
:10250000FF920F931F93CF93DF93EB01FC01178A88
:10251000168A2A81211109C02B81211106C02C8124
:10252000211103C02D81222301F141155105E9F04C
:102530008A01FC01F08C80E591E00E94F207AE0177
:102540004E5F5F4F24E030E06CE070E08F2D0E9422
:102550003F07B8018F2D0E94500781E090E0DF9186
:10256000CF911F910F91FF90089580E0F7CFFC016C
:10257000848595850895FC0184899589089526ECC4
:1025800032E0FC0131832083FB014089518962895B
:102590007389FC0142835383648375830895DC014E
:1025A000ED91FC91048CF58DE02D1994CF93CFB76C
:1025B000F89480914005811124C0E7E5F3E084910F
:1025C000EDE9F3E09491E82FF0E0EE0FFF1FE85FF4
:1025D000FC4FA591B491EC91E92321F461E085E3EE
:1025E0000E946D0385E30E940C028CB580618CBD56
:1025F0008CB580648CBD84E30E940C0283E30E944E
:102600000C02809140058F5F80934005CFBFCF9132
:102610000895CF93DF93EC0188819981DC01ED91DE
:10262000FC910190F081E02D19952A813B81820F68
:10263000931F9B838A83DF91CF910895CF93DF937C
:10264000EC0188819981DC01ED91FC910280F3819C
:10265000E02D19952A813B81820F931F9B838A83EA
:10266000DF91CF9108958F929F92AF92BF92CF92B8
:10267000DF92EF92FF920F931F93CF93DF93CDB72B
:10268000DEB766970FB6F894DEBF0FBECDBF6C0104
:102690008E01095E1F4F78018AE0882E912CA12CB3
:1026A000B12CCB01BA01A50194010E943A3A942FB2
:1026B000852F605DF80162938F01A901692F782F42
:1026C000411551056105710561F7A7014E1B5F0BAF
:1026D000BF01C6010E941E1366960FB6F894DEBFB6
:1026E0000FBECDBFDF91CF911F910F91FF90EF9063
:1026F000DF90CF90BF90AF909F908F900895EF9212
:10270000FF920F931F93CF93DF93EC017B0162E263
:102710000E9409138701F80161918F01662391F0EE
:10272000E8EDF2E0F280FF2049F0329681816813F3
:10273000F9CF6CE5CE010E9409136F2DCE010E94E6
:102740000913E9CF62E2CE01DF91CF911F910F9182
:10275000FF90EF900C9409132F923F924F925F924B
:102760006F927F928F929F92AF92BF92CF92DF92A1
:10277000EF92FF920F931F93CF93DF9300D000D07F
:10278000CDB7DEB71C014A015B0186E0D1011A9684
:102790008C9320E836E948E15BE4CB01B4010E9468
:1027A0000E3B87FD7DC004E110E060E2462E512C17
:1027B0001E821D82F801E058FD4F6591759185914B
:1027C0009491A50194010E940B3918169CF0F80110
:1027D000E05BFD4F2591359145915491C501B401C0
:1027E0000E9471394B015C01ED81FE81E40DF51D04
:1027F000FE83ED8355944794045011090C3FFFEF7D
:102800001F07C1F677247A9420E030E0A901C501C2
:10281000B4010E940E3B18160CF04AC02CEA35ECAD
:1028200047E257E3C501B4010E940B3918160CF4B6
:102830003FC0272D34E0230280011124F12CE12C2C
:10284000C80188599D4F6C0100581D4F9FEF7916A4
:1028500079F1F601EE0DFF1D6591759185919491C9
:10286000A50194010E940E3B18169CF4F801EE0D90
:10287000FF1D2591359145915491C501B4010E94E8
:1028800071394B015C01AD81BE81A419B509BE83CC
:10289000AD83559447947A94B4E0EB1AF108D6CFFF
:1028A00030E2432E512C45E0742E1E821D82ACCFA7
:1028B0002D813E81F10131872087C501B4010E943D
:1028C000DF3A69837A838B839C83D1016D937D93F7
:1028D0008D939C9313972B013C0190E4C92E92E4B5
:1028E000D92E9FE0E92EF12CBAE04B165104610479
:1028F0007104C8F0C701B6012AE030E040E050E0C2
:102900000E943A3A69017A01F101828581508287F9
:10291000C301B2012AE030E040E050E00E943A3AC0
:1029200029013A01E1CF69817A818B819C810E94E2
:1029300010399B01AC01C501B4010E946B3A4B01F7
:102940005C01C701B6010E9410399B01AC01C501B1
:10295000B4010E9471392B013C010E94DF3A4B0106
:102960005C010E9410399B01AC01C301B2010E94BD
:102970006B3A9B01AC010E946C3A0E94DF3A860ED2
:10298000971EA81EB91E8C149D04AE04BF0430F51A
:10299000D10114968D929D92AD92BC9217978AE0C8
:1029A000C82ED12CE12CF12CD10114966D917D9182
:1029B0008D919C911797A70196010E943A3A672B37
:1029C000682B692B89F5F101828518166CF5248333
:1029D00035834683578381508287E6CFF101148285
:1029E00015821682178289819A81AB81BC810196FA
:1029F000A11DB11D80839183A283B3832D813E816C
:102A00002115310561F20A97A105B10540F2C9010E
:102A100001969187808781E090E0A0E0B0E080831C
:102A20009183A283B383BBCF26960FB6F894DEBF03
:102A30000FBECDBFDF91CF911F910F91FF90EF900F
:102A4000DF90CF90BF90AF909F908F907F906F90CE
:102A50005F904F903F902F9008958F929F92AF92EA
:102A6000BF92CF92DF92EF92FF920F931F93CF937B
:102A7000DF93CDB7DEB766970FB6F894DEBF0FBE13
:102A8000CDBF7C018E01095E1F4F68018AE0882E50
:102A9000912CA12CB12CCB01BA01A50194010E946B
:102AA0003A3A942F852F605DF80162938F01A90156
:102AB000692F782F411551056105710561F7CE1A0F
:102AC000DF0AF701818192818C0D9D1D92838183A4
:102AD00066960FB6F894DEBF0FBECDBFDF91CF91E3
:102AE0001F910F91FF90EF90DF90CF90BF90AF902C
:102AF0009F908F900895CF93DF93FC018181928105
:102B0000019692838183DB018D91882379F0C8ED52
:102B1000D2E09A81992391F0229699818913F9CF75
:102B200081819281029692838183EECF818192810D
:102B3000019692838183DF91CF9108958181928163
:102B40000196F1CFFC012581222339F0F8E02F0214
:102B500090011124820F931F089590E080E0089562
:102B6000FC01768765870895DC01ED91FC91068C68
:102B7000F78DE02D199591E089270895862F089506
:102B800081E08627089521E0FC018485883008F0E3
:102B900020E0822F0895089590E080E00895CF927C
:102BA000DF92EF92FF920F931F93CF93DF93C09129
:102BB000C10A91E090935E08C0935D0810925C0892
:102BC00010925B08682F8CEF98E00E945705D09117
:102BD0005B08D13208F091C00E94F9036B017C01BF
:102BE00080913508811164C082E08093350810928D
:102BF00034088FEF8093330810923208D093310855
:102C0000ABE3B8E0E1E1F8E080E0D813EDC010926A
:102C1000100880911008CC0FC82BC0931008809129
:102C20000F08813009F0E4C010920F080E94F903E8
:102C30006B017C01809110088093BB008091370864
:102C400090913808A0913908B0913A08892B8A2BC5
:102C50008B2B99F00E94F9030091370810913808E6
:102C60002091390830913A086C197D098E099F0925
:102C70000617170728073907E0F18091BC0083FD8C
:102C8000D9CF85EC8093BC000E94F9036B017C01D5
:102C900080913508823009F4ADC0809133088F3FB0
:102CA00061F180913308803241F18091330825C071
:102CB0008091370890913808A0913908B0913A086E
:102CC000892B8A2B8B2B09F48BCF0E94F90300915F
:102CD0003708109138082091390830913A086C195A
:102CE0007D098E099F09061717072807390708F07D
:102CF00077CF809136080E94E00410925C08109211
:102D00005B0810925E08C091C10A0E94F9036B0132
:102D10007C018091350881118FC081E08093350856
:102D2000809334089FEF909333081092320892E01A
:102D3000909331088093100880911008CC0FC82B15
:102D4000C093100880910F08813009F0B6C010922E
:102D50000F080E94F9036B017C0180911008809399
:102D6000BB008091370890913808A0913908B09144
:102D70003A08892B8A2B8B2BA1F00E94F903009132
:102D80003708109138082091390830913A086C19A9
:102D90007D098E099F09061717072807390708F4C8
:102DA0006CC08091BC0083FDD8CF85EC8093BC00C3
:102DB0000E94F9036B017C0180913508813009F490
:102DC0007EC080913208833008F09BC08091320829
:102DD000E1E1F8E0AFEEB7E090E0981709F452C0F7
:102DE00021912D939F5FF9CF9D9191938F5F0DCF8F
:102DF00085EE48CF8091370890913808A091390826
:102E0000B0913A08892B8A2B8B2B09F441CF0E9471
:102E1000F903009137081091380820913908309152
:102E20003A086C197D098E099F09061717072807AC
:102E3000390708F02DCF5DCF809137089091380881
:102E4000A0913908B0913A08892B8A2B8B2B09F471
:102E500060CF0E94F9030091370810913808209143
:102E6000390830913A086C197D098E099F090617B7
:102E700017072807390708F04CCF809136080E94C1
:102E8000E00480E01092EE078093ED078CEF98E06D
:102E90000E941005EC018CEF98E00E94100520E0E4
:102EA000382FC9018C2B9D2BDF91CF911F910F9152
:102EB000FF90EF90DF90CF90089585EE77CF8091CF
:102EC000370890913808A0913908B0913A08892BB9
:102ED0008A2B8B2B09F470CF0E94F90300913708DD
:102EE000109138082091390830913A086C197D0901
:102EF0008E099F09061717072807390708F05CCFC6
:102F0000BCCF83E065CF86E00E94CF15BC0190E086
:102F100080E00E9410392AE037ED43EA5CE30E942A
:102F2000713923E333E948E853E40E946B3A08958A
:102F300087E00E94CF15BC0190E080E00E9410392C
:102F40002AE037ED43EA5CE30E94713923E333E979
:102F500048E853E40E946B3A08950F931F93CF9370
:102F6000DF93EC0180E2689FF0011124E351FA4FF6
:102F70006A8B80910C0290910D02A0910E02B0918B
:102F80000F028E879F87A88BB98B0489158930E043
:102F900020E09801112700270F8B188F298F3A8F77
:102FA000828D938DB0E0A0E0AC01BD01402B512B90
:102FB000622B732B4F8B588F698F7A8F8385887123
:102FC000A9F4848D958DA68DB78D8B8B9C8BAD8B45
:102FD000BE8B81E08D8381E08C831E821F821886E8
:102FE00019861A861B861C861D8603C0803131F027
:102FF00080E0DF91CF911F910F9108959E012D5E8A
:103000003F4F8B8D9C8D0E945D0C882389F384E05B
:10301000E1CFCF93DF93EC0160E08E810E946D03DE
:1030200061E08E810E946D0360E08E810E946D03DD
:103030008BE891E00197F1F7DF91CF910895CF925E
:10304000DF92EF92FF920F931F93CF93DF936C0168
:103050007C0187E0E80EF11CD0E0C0E0062F10E014
:10306000B8010C2E02C0759567950A94E2F761705D
:10307000F70181917F010E946D032196C430D10533
:1030800079F7C601DF91CF911F910F91FF90EF90DB
:10309000DF90CF900C940918CF92DF92EF92FF92BD
:1030A0000F931F93CF93DF93EC01F62E642F8C8147
:1030B0000E946D038D818F3F19F060E00E946D03C7
:1030C0000F2D10E08F8584FF25C06E0187E0C80EAC
:1030D000D11CF12CE12CB8010E2C02C0759567951E
:1030E0000A94E2F76170F60181916F010E946D030D
:1030F000FFEFEF1AFF0A88E0E816F10461F7CE014E
:10310000DF91CF911F910F91FF90EF90DF90CF90C3
:103110000C940918B80184E0759567958A95E1F7D4
:10312000CE010E941F186F2DCE01DF91CF911F910C
:103130000F91FF90EF90DF90CF900C941F1840E01C
:10314000682F82EC9AE00C944C189091D50A89175C
:1031500010F08FEF890FE82FF0E0EE53F54F8489E0
:1031600080680C949F18CF93DF93823029F490915C
:10317000D10A98609093D10A8093D50A1092D60A0A
:1031800080E48093D70A80E18093D80A80E5809319
:10319000D90A8091C60A0E940C028091C70A8F3F0B
:1031A00011F00E940C028091C80A0E940C02C2EC2D
:1031B000DAE09E01225C3A408091D10A84FD0AC087
:1031C00084E090E02196281739073CF48E810E9414
:1031D0000C02EFCF88E090E0F5CF8BE39DE0019704
:1031E000F1F760E08091C60A0E946D0360E0809173
:1031F000C80A0E946D038091C70A8F3F19F060E0F2
:103200000E946D038091D10A84FD39C063E082EC95
:103210009AE00E941F18CBE4D6E4CE010197F1F7A3
:1032200063E082EC9AE00E941F182197F1F763E0B7
:1032300082EC9AE00E941F1883E592E00197F1F773
:1032400062E082EC9AE00E941F188091D10A8062AD
:103250000E949F1884E08093D20A8CE00E949F18FD
:1032600081E00E949F188BE39FE10197F1F782E0D4
:103270008093D30A86E0DF91CF910C949F188062EF
:103280000E949F188BE496E40197F1F78091D10A90
:1032900080620E949F1883E592E00197F1F7809188
:1032A000D10A80620E949F18D0CF41E00E944C1842
:1032B00081E090E00895AF92BF92CF92DF92EF92BB
:1032C000FF920F931F93CF93DF9300D01F92CDB740
:1032D000DEB78C016B017A018091E7058333E9F455
:1032E0005B016801C40ED51EC016D106A9F10E946B
:1032F00040068FE00E944B06812F0E944B06802FD4
:103300000E944B060F5F1F4F80E00E944B06F501A5
:1033100081935F010E943606E7CF843369F50E94EE
:10332000400619830A838F2D8F778B83EC8264E0AC
:1033300070E0CE0101960E941C06A70170E060E0DB
:10334000C6010E944B3DE114F10421F0B701C60112
:103350000E941C060E943606C7010F900F900F9026
:103360000F90DF91CF911F910F91FF90EF90DF9021
:10337000CF90BF90AF9008950E9440060F3F110577
:1033800009F030F419820A831B8263E070E0D1CF28
:1033900017FD0BC019820A8333E0169507953A95FD
:1033A000E1F7007E08600B83F0CFC80126E0969518
:1033B00087952A95E1F7807E19830A830115104CC1
:1033C00018F480618B83E1CF8861FCCFCF93DF93CA
:1033D0001F92CDB7DEB72091E80530E0322F2227CB
:1033E000260F371F90E0982F882741E050E0BE015C
:1033F0006F5F7F4F820F931F0E945B1989810F902F
:10340000DF91CF910895CF93C82F462F61E070E0F0
:103410000E947C0761E070E08C2F0E94E619811108
:10342000F9CFCF910895CF93C82F80E591E00E9406
:10343000F20768E070E08C2FCF910C94031ACF93C1
:10344000C82F80E591E00E94F20760E170E08C2FC8
:10345000CF910C94031ACF93DF93EC01888D8830C1
:1034600020F40E941F1A88E0888FDF91CF91089581
:1034700063E070E00C94E619CF93C82F80E591E0EB
:103480000E94F2078C2FCF910C94381AEF92FF9282
:103490000F931F93CF93DF937C018091E705D4E0D6
:1034A000833309F0D8E004ED15E0C0E0F801219184
:1034B00031918F01F701848195812817390729F00F
:1034C000CF5FDC13F3CF80E006C08C2F0E943C1A44
:1034D0008431B1F781E0DF91CF911F910F91FF907F
:1034E000EF900895CF93DF93EC018C858830D0F472
:1034F0000E943C1A843189F0882379F0883169F080
:1035000021E08C3159F4E881F9810084F185E02DC6
:10351000CE01199521E0892B09F420E0822FDF915B
:10352000CF91089580E0FBCFCF92DF92EF92FF9290
:10353000CF93DF93EC018C85883068F40E94131AD6
:103540000E9450046B017C018C850E943C1A811101
:1035500009C088E08C87DF91CF91FF90EF90DF90DA
:10356000CF90089561E070E080E090E00E941E043A
:103570000E945004AB01BC014C195D096E097F0922
:103580008D859E85B0E0A0E0481759076A077B0744
:10359000D8F28C850E941F1ADCCFCF93FC01C08D1E
:1035A00080E591E00E94F20760E270E08C2F0E94BB
:1035B000031A62E070E08C2F0E94E61984FD16C0A9
:1035C00062E070E08C2F0E94E61983FF0AC048E198
:1035D00062E070E08C2F0E947C0780E090E0CF9149
:1035E000089580E591E00E94F207E3CF40E162E0B8
:1035F00070E08C2F0E947C0781E0F0CFCF93DF93A7
:103600001F92CDB7DEB741E050E0BE016F5F7F4F44
:1036100090E080E00E945B1989810F90DF91CF914B
:103620000895CF93DF93C4E1D0E00E94FE1A88236F
:1036300061F061E070E080E090E00E941E0421975C
:10364000A1F780E0DF91CF91089581E0FBCFCF9289
:10365000DF92EF92FF921F93CF93DF93CDB7DEB748
:10366000C454D1090FB6F894DEBF0FBECDBFFC0124
:10367000428153816481758123964CAF5DAF6EAFFB
:103680007FAF239781E023968FAF23972396CCAC0F
:10369000DDACEEACFFAC2397CBAADCAAEDAAFEAA68
:1036A0004DA75EA76FA778AB88ABCDA4DEA4EFA42F
:1036B000F8A8CFA2D8A6E9A6FAA68EABCBA8DCA81C
:1036C000EDA8FEA8C9A2DAA2EBA2FCA226EC32E089
:1036D0003C8B2B8B9FEF9D8B9E8B9F8B188E3E87F9
:1036E0002D878AA7CFA0D8A4E9A4FAA4CF86D88A28
:1036F000E98AFA8A8CA389A19AA1ABA1BCA1898786
:103700009A87AB87BC873A8329834B835C836D831D
:103710007E838091E90581116BC060E372E080E0F7
:1037200090E00E941E040E94D612ECE2F3E0E491C5
:10373000F0E0EE0FFF1FE251FD4F859194919093C1
:10374000E6058093E505E2E7F3E0E491E093E40524
:103750008AE00E940C020E94360680E591E00E94F9
:10376000F20784E38093E70580E80E941E070E9429
:10377000111B882309F472C088E00E941E070E9472
:10378000FE1A883009F06AC080E10E941E070E947C
:10379000FE1A803109F062C080E00E941E070E947C
:1037A000FE1A182F81115AC041E050E0BE016D5B36
:1037B0007F4F8FE190E00E945B1924968FAD249794
:1037C000833009F04BC080E48093E80542E06EE16D
:1037D00070E0812F0E947C0742E06FE170E0812F52
:1037E0000E947C071F5F183089F781E08093E9050C
:1037F00080E591E00E94F20746E050E066E072E06A
:1038000089E090E00E94700644E050E0BE016D5FE8
:103810007F4F8FE090E00E94700644E050E0BE01D0
:10382000615F7F4F81E090E00E94700644E050E0CD
:10383000BE016B5E7F4F85E090E00E94700681E0E4
:103840008C8789859A85AB85BC8580937309909315
:103850007409A0937509B09376096FC087E38093CC
:10386000E70580E80E941E070E94111B882339F19A
:1038700088E00E941E070E94FE1A883001F580E150
:103880000E941E070E94FE1A182F8031C1F480E0AA
:103890000E941E070E94FE1A811111C041E050E0F3
:1038A000BE016D5B7F4F89E390E00E945B19249617
:1038B0008FAD2497843019F41093E80596CF83E3F5
:1038C0008093E70580E80E941E070E94111B882351
:1038D00091F180E10E941E070E94FE1A803159F585
:1038E00082E10E941E070E94FE1A823121F580E0CB
:1038F0000E941E070E94FE1A81111DC084E0809361
:10390000E80515E525961FAF259741E050E0BE017B
:103910006C5B7F4F8BE190E00E94700624961FAF96
:10392000249741E050E0BE016D5B7F4F8AE190E05B
:103930000E9470065ACF1092E705CC5BDF4F0FB69E
:10394000F894DEBF0FBECDBFDF91CF911F91FF90E6
:10395000EF90DF90CF9008951F93CF93DF931F9246
:10396000CDB7DEB7182F80E591E00E94F207812FD6
:103970000E94310727E0129FF0011124E456FA4F0C
:1039800022813381377041E050E0BE016F5F7F4F8D
:10399000820F931F0E945B1989810F90DF91CF9155
:1039A0001F910895FC01808D883040F4218D328D67
:1039B000232B21F00E94AC1C90E008958FEF9FEF25
:1039C0000895CF93DF93FC012485283028F08FEFF2
:1039D0009FEFDF91CF910895EC010190F081E02DF0
:1039E0000084F185E02D1995892B89F38C850E943F
:1039F000AC1C90E0EECFDA01E091E805F0E0FE2F9C
:103A0000EE27E60FF71F90E0982F8827A901BD0148
:103A10008E0F9F1F0C945B198F929F92AF92BF9253
:103A2000CF92DF92EF92FF920F931F93CF93DF938A
:103A3000CDB7DEB760970FB6F894DEBF0FBECDBF2F
:103A40007C019091E705911115C018E0812F6096D7
:103A50000FB6F894DEBF0FBECDBFDF91CF911F919F
:103A60000F91FF90EF90DF90CF90BF90AF909F901D
:103A70008F90089508E0933309F404E06B0180E52A
:103A800091E00E94F2079E012F5F3F4F59014901CB
:103A900010E0812F0E94381AF40181934F0188238E
:103AA000C1F01F5F0113F5CF00E0F50181915F01C7
:103AB0008D3149F0883139F08A51823020F00F5F22
:103AC0001013F3CFC2CF60E170E0802F0E94031A81
:103AD000102FA12EB12CF501EE0FFF1FEC52FA4F63
:103AE0001182108283EE93E00197F1F742E870E0D3
:103AF00060E0812F0E947C074FEF62E070E0812F31
:103B00000E947C07B601C114D10491F48091040293
:103B10009091050201968115F0EC9F0708F45CC0B6
:103B20009093050280930402609104027091050253
:103B3000812F0E94660786E0E6E1F2E0DE01199639
:103B400001900D928A95E1F7F70183818F778C8739
:103B500084818D8785818E87A7014E5F5F4F24E02A
:103B600030E06CE070E0812F0E943F07B601812FAA
:103B70000E94500726E030E0AE01475F5F4F66E0ED
:103B800070E0812F0E943F0761E070E0812F0E946A
:103B9000031A27E02A9DC0012B9D900D11249C0142
:103BA00024563A4F7901F9011182108222E030E067
:103BB000AE01415F5F4F68E270E0812F0E94FB1C05
:103BC0008F859889982789279827F701938382837F
:103BD0001682158214823ACF80E090ECA1CFCF926A
:103BE000DF92EF92FF920F931F93CF93DF9300D05A
:103BF00000D0CDB7DEB78C016B017A01FC01808D5E
:103C0000883010F40E941F1A86EC92E09A83898310
:103C1000F60182819381A481B5818B839C83AD83DE
:103C2000BE83B701CE0101960E940C1DF801808F62
:103C30008830A0F4F586E486128E118E81E02696F7
:103C40000FB6F894DEBF0FBECDBFDF91CF911F91AD
:103C50000F91FF90EF90DF90CF90089580E0EFCF2D
:103C60007F928F929F92AF92BF92CF92DF92EF920C
:103C7000FF920F931F93CF93DF931F921F92CDB7A5
:103C8000DEB7782E8B014A01590122E030E0AE0107
:103C90004F5F5F4F64E270E00E94FB1CE980FA8096
:103CA000FE24EF24FE24E00EF11E970137704091B0
:103CB000E705072D10E0433309F042C0085F1F4FAE
:103CC000102F0027110F110F110FC901800F911F25
:103CD0004733C9F1A9014A0D5B1D4130584098F1A5
:103CE00060E078E06B01C21AD30AA601B4010E9419
:103CF0007006A5014C195D09B4016C0D7D1DC8014C
:103D00000E947006EA0CFB1CF982EA8222E030E095
:103D1000AE014F5F5F4F64E270E0872D0E943F0766
:103D20000F900F90DF91CF911F910F91FF90EF9027
:103D3000DF90CF90BF90AF909F908F907F9008952D
:103D4000005F1F4FBDCFA501B401DACFEF92FF9204
:103D50001F93CF93DF931F921F92CDB7DEB7182F1B
:103D600022E030E0AE014F5F5F4F60E270E00E9402
:103D7000FB1CE980FA80FE24EF24FE2422E030E0E0
:103D8000AE014F5F5F4F60E270E0812F0E94FB1C2D
:103D900089819A81982789279827E816F90689F456
:103DA00087E0189FF0011124E456FA4FF582E4826F
:103DB000C7010F900F90DF91CF911F91FF90EF906F
:103DC00008957C01DBCF1F93CF93DF93182F80E5FD
:103DD00091E00E94F207812F0E94A61EEC01812F24
:103DE0000E94381A873121F08C3111F0D0E0C0E008
:103DF000CE01DF91CF911F910895CF93DF93EC0116
:103E00008C85883060F40E943C1A873111F08C3127
:103E100031F48C850E94E31E8115984088F3DF9170
:103E2000CF910895FC018485883010F40C94E31E32
:103E300090E080E00895CF92DF92EF92FF921F937F
:103E4000CF93DF93182F7B01EA014130584010F0E7
:103E5000C0E0D8E080E591E00E94F207812F0E9447
:103E6000A61E6C01812F0E94381A873111F08C3107
:103E700021F5CC16DD0670F380E591E00E94F20793
:103E80009E01A70170E060E0812F0E94301E60E279
:103E900070E0812F0E94031A62E070E0812F0E947F
:103EA000E61984FD0DC0812F0E94381A8823B9F0CD
:103EB00080E591E00E94F207EFCFD0E0C0E0DCCFD8
:103EC00040E162E070E0812F0E947C07CE01DF912B
:103ED000CF911F91FF90EF90DF90CF900895D0E0A9
:103EE000C0E0F4CF0F931F93CF93DF938C01EA01CF
:103EF000FC018485883048F40E941B1F892B39F40B
:103F000081E090E0F80193838283D0E0C0E0CE01AD
:103F1000DF91CF911F910F9108959F92AF92BF9221
:103F2000CF92DF92EF92FF920F931F93CF93DF9385
:103F30008C015B01942EE52EFC01C688D788F08C9D
:103F400080E591E00E94F2078F2D0E94A61EC92DE8
:103F5000DE2D8C179D0708F4EC019E01A501B6012A
:103F60008F2D0E94301EF801868997898C0F9D1F26
:103F7000978B868BCE01DF91CF911F910F91FF9090
:103F8000EF90DF90CF90BF90AF909F900895FF92F9
:103F90000F931F93CF93DF931F921F92CDB7DEB77E
:103FA000F82E22E030E0AE014F5F5F4F66E270E036
:103FB0000E94FB1C09811A8110270127102722E08B
:103FC00030E0AE014F5F5F4F66E270E08F2D0E94E0
:103FD000FB1C89819A819827892798270817190738
:103FE00049F4C8010F900F90DF91CF911F910F916D
:103FF000FF9008958C01E3CF1F93CF93DF93182F89
:1040000087E0189FE0011124C456DA4F8881998116
:10401000009761F480E591E00E94F207812F0E94F1
:10402000C71F2E81821B910999838883DF91CF91CD
:104030001F9108959F92AF92BF92CF92DF92EF921D
:10404000FF920F931F93CF93DF93EC017B0180913D
:10405000E705811121C01B821A8288EE93E0A0E05F
:10406000B0E08C839D83AE83BF838CE892E099831C
:10407000888388E08C8788EE93E09E878D87CE01C9
:10408000DF91CF911F910F91FF90EF90DF90CF9034
:10409000BF90AF909F90089534E0932E833311F03A
:1040A00028E0922E84EDC82E85E0D82E10E098E00E
:1040B000B92EA12CD6012D913D916D01F70184817E
:1040C00095812817390791F4812F0E943C1A082FF7
:1040D000873111F08C3139F5812F0E94FC1F892B1B
:1040E00059F50C3119F4812F0E94131A1F5F911298
:1040F000E1CFA11008C0D701ED91FC910084F185BA
:10410000E02DC70119951B821A8288EE93E0A0E08A
:10411000B0E08C839D83AE83BF838CE892E099836B
:104120008883BC86A8CF843149F08111DFCFF601A6
:10413000329711821082DACFB12ED8CFAA24A3945D
:10414000D5CF8F929F92AF92BF92CF92DF92EF9294
:10415000FF920F931F93CF93DF93CDB7DEB72F97C7
:104160000FB6F894DEBF0FBECDBF5C014B017A01E4
:104170008091E7058823C9F104E0833309F008E062
:10418000B501CE0101960E941A2084EDC82E85E06B
:10419000D82E10E0F601219131916F01F501848153
:1041A00095812817390751F4812F0E943C1A8731D5
:1041B00029F4A701B401812F0E941B1F1F5F011367
:1041C000E9CFC7012F960FB6F894DEBF0FBECDBF63
:1041D000DF91CF911F910F91FF90EF90DF90CF90E3
:1041E000BF90AF909F908F900895F12CE12CE9CF74
:1041F000FC018485883010F40C94FC1F90E080E072
:1042000008954F925F927F928F929F92AF92BF924A
:10421000CF92DF92EF92FF920F931F93CF93DF9392
:104220001F921F92CDB7DEB7782E6B014A01A82EE0
:10423000B12C27E0829FC0011124FC01E456FA4F03
:104240007F010081118180E591E00E94F20708154D
:10425000190554F4872D0E94C71FF70126818C0190
:10426000021B1109118300830115110519F5872D12
:104270000E94381A843159F0882349F001E010E097
:104280008C3111F410E000E0119501951109C8017D
:104290000F900F90DF91CF911F910F91FF90EF90B2
:1042A000DF90CF90BF90AF909F908F907F905F9066
:1042B0004F900895801691060CF4840187E08A9D42
:1042C000F0018B9DF00D1124E456FA4FE280F3804B
:1042D000C114D10451F12701F7E05F22872D0E941C
:1042E0003107840D951D2091E705273309F453C04C
:1042F0009801240D351D2130384008F44CC020E0D1
:1043000038E0490184189508A401B6010E945B19A0
:104310002601480C591C6801C818D908872D0E942D
:104320003107A601B2010E945B19E00EF11E87E081
:104330008A9DF0018B9DF00D1124E456FA4FF38213
:10434000E28220813181201B310B318320838681E1
:10435000800F912F911D8A3F910510F4232BF1F4CA
:1043600087E08A9DF0018B9DF00D1124E456FA4FF1
:104370001682F982EA8222E030E0AE014F5F5F4FA1
:1043800068E270E0872D0E943F0760E470E0872DAF
:104390000E94031A7CCFA801B601C5CF868377CFD0
:1043A000CF93DF93FC01218D328D2115310529F446
:1043B0008FEF9FEFDF91CF910895EC01808D421731
:1043C000530708F0A9010E9401211816190684F765
:1043D000298D3A8D281B390B3A8F298FEBCF0F93FC
:1043E0001F93CF93DF931F92CDB7DEB7FC01218DD2
:1043F000328D232B41F48FEF9FEF0F90DF91CF9100
:104400001F910F9108958C0141E050E0BE016F5F54
:104410007F4FFC01808D0E940121181619065CF760
:10442000F801818D928D0197928F818F898190E023
:10443000E4CFCF93DF931F92CDB7DEB741E050E0DA
:10444000BE016F5F7F4FFC0184850E940121181619
:10445000190634F4898190E00F90DF91CF9108958F
:104460008FEF9FEFF9CFFC018485883010F40C9416
:10447000012190E080E008958F929F92AF92BF92C9
:10448000CF92DF92EF92FF920F931F93CF93DF9320
:1044900000D000D000D01F92CDB7DEB79091E705D5
:1044A000911115C018E0812F2A960FB6F894DEBF3F
:1044B0000FBECDBFDF91CF911F910F91FF90EF9075
:1044C000DF90CF90BF90AF909F908F90089528E09D
:1044D000F22E933311F494E0F92E6B01082F80E54E
:1044E00091E00E94F2079E012F5F3F4F5901490161
:1044F00010E0812F0E94381AF40181934F01882324
:10450000C1F01F5FF112F5CFF12CF50191915F0120
:104510009D3149F0983139F09A51923020F0F3945E
:104520001F11F3CFBFCF60E170E08F2D0E94031AFF
:104530001F2DE12EF12CF701EE0FFF1FEC52FA4F69
:104540001182108283EE93E00197F1F7402F70E023
:1045500060E0812F0E947C074FEF62E070E0812FC6
:104560000E947C07B601CD2889F4809104029091C5
:10457000050201968115F0EC9F0798F190930502D2
:10458000809304026091040270910502812F0E94C1
:10459000660761E070E0812F0E94031A27E02E9DDC
:1045A000C0012F9D900D11249C0124563A4F790192
:1045B000F9011182108222E030E0AE01475F5F4FC7
:1045C00068E270E0812F0E94FB1C89859A859827FC
:1045D00089279827F7019383828316821582148294
:1045E00062CF80E090ECCACF0F931F93CF93DF93FD
:1045F000EC018B01888D883010F40E941F1AB801DD
:1046000082E00E943C22888F883050F41D870C87FE
:104610001A8E198E81E0DF91CF911F910F9108952D
:1046200080E0F9CF0F931F93CF938C01FC0164813D
:10463000758181E20E943C22C82F8830F8F480E521
:1046400091E00E94F2078C2F0E94381A833131F0DA
:104650008C2FCF911F910F910C94131A62E070E090
:104660008C2F0E94031AF80184819581EC2FF0E0D1
:10467000EE0FFF1FEC52FA4F91838083CF911F9171
:104680000F910895CF92DF92EF92FF921F93CF93F5
:10469000DF93EC017B016A018C85883048F40E942D
:1046A0003C1A882319F08C850E94131A88E08C87A5
:1046B000F70182819381A481B5810097A105B1059D
:1046C00051F490E080E0DF91CF911F91FF90EF9047
:1046D000DF90CF9008958F3F9F4FAF4FBF4F89F32B
:1046E00070E060E081E20E943C22182F8C878830C5
:1046F00040F780E591E00E94F207A7014E5F5F4F0F
:1047000024E030E06CE070E0812F0E943F07B601AA
:10471000812F0E94500764E070E0812F0E94031AED
:104720000E9450046B017C018C850E943C1A8731E9
:1047300011F18C3101F1882321F20E945004AB0168
:10474000BC014C195D096E097F098D859E85B0E01D
:10475000A0E084179507A607B70738F061E070E07E
:1047600080E090E00E941E04DFCF8C850E941F1A1B
:1047700088E08C87A6CF81E090E0A5CF0F931F93B0
:10478000CF93DF931F921F92CDB7DEB7FC01248534
:104790002830E0F48C0180E591E00E94F20722E0ED
:1047A00030E0AE014F5F5F4F60E170E0F80184855B
:1047B0000E94FB1C89819A819827892798270F904E
:1047C0000F90DF91CF911F910F91089590E080E0BD
:1047D000F6CF0F931F93CF93DF931F921F92CDB706
:1047E000DEB7FC0124852830E0F48C0180E591E0FF
:1047F0000E94F20722E030E0AE014F5F5F4F64E0BD
:1048000070E0F80184850E94FB1C89819A819827B9
:10481000892798270F900F90DF91CF911F910F91CB
:10482000089590E080E0F6CFAF92BF92CF92DF92F2
:10483000EF92FF920F931F93CF93DF9300D000D09E
:1048400000D01F921F92CDB7DEB76C01FE013196EA
:10485000CE010C967F0120E22193E817F907E1F7DA
:10486000DA0120E037E09D91B92E9923A9F19E321B
:10487000B9F43A3091F480E02B960FB6F894DEBF8D
:104880000FBECDBFDF91CF911F910F91FF90EF90A1
:10489000DF90CF90BF90AF90089528E03AE0E3CF4B
:1048A000EEEDF2E08491882321F031969813FACF4F
:1048B000E2CF321700F38FED890F8E35E0F68FE9E6
:1048C000890F8A3118F440EEB42EB90EF701E20FC9
:1048D000F11DB0822F5FC7CF8981803261F28B01D9
:1048E000FB01838D948DF601948F838FFB011682DB
:1048F0001782108611861286138614861586F80193
:1049000082859385A485B58543895489658976898F
:1049100084179507A607B70708F0ADCF25E0B69531
:10492000A795979587952A95D1F7F82FFF70AF2E09
:10493000F8018581823008F49ECFC8010E94B00E34
:1049400097FD99CFF80182859385A485B5854F960B
:10495000A11DB11D82879387A487B587F0E2AF9E22
:10496000B001112463517A4F6115710509F483CFA9
:10497000FB018081882309F1853E19F4B11032C012
:104980001EC04BE050E0C7010E94353D892B09F065
:10499000B6CF6A2DC6012B960FB6F894DEBF0FBEB8
:1049A000CDBFDF91CF911F910F91FF90EF90DF90DE
:1049B000CF90BF90AF900C94AD17B1105CCFF601C3
:1049C000A28A80910C0290910D02A0910E02B091EA
:1049D0000F0286879787A08BB18BFB01808188238C
:1049E00009F449CFBB24B3948ACFFB010190002086
:1049F000E9F73197AF01461B570BDC01ED91FC91B4
:104A00000280F381E02D19946DE173E00C94F5249C
:104A10008F929F92AF92BF92EF92FF920F931F934C
:104A2000CF93DF93CDB7DEB7A1970FB6F894DEBF73
:104A30000FBECDBF7C01FA01CB0119A2223008F4D0
:104A40002AE08E010F5D1F4F822E912CB12CA12CDC
:104A5000BF01A50194010E943A3AF901CA016A30E6
:104A60000CF5605DD8016E938D01232B242B252B33
:104A700079F790E080E0109721F0BD01C7010E9416
:104A8000F524A1960FB6F894DEBF0FBECDBFDF911F
:104A9000CF911F910F91FF90EF90BF90AF909F909B
:104AA0008F900895695CDECFCF92DF92EF92FF92F4
:104AB0000F931F93CF93DF9377FF1DC06A017B0194
:104AC000EC016DE20E9432028C0144275527BA01A5
:104AD0004C195D096E097F092AE0CE010E94082564
:104AE000800F911FDF91CF911F910F91FF90EF9059
:104AF000DF90CF9008952AE0DF91CF911F910F9121
:104B0000FF90EF90DF90CF900C9408258F929F92AA
:104B1000AF92BF92CF92DF92EF92FF920F931F93CB
:104B2000CF93DF937C018B016C0182E0C80ED11C16
:104B30004701E5E08E0E911CD0E0C0E0F601419106
:104B40006F0150E070E060E02AE0C8010E94082593
:104B50005C016EE2C8010E9432028A0D9B1DC80FE3
:104B6000D91FC814D90451F7F701458150E070E00E
:104B700060E02AE0C8010E9408258C0F9D1FDF918C
:104B8000CF911F910F91FF90EF90DF90CF90BF904A
:104B9000AF909F908F9008950F931F93CF93DF93C3
:104BA000EC010E94F5248C01CE010E940425800FA7
:104BB000911FDF91CF911F910F9108950C94F524CF
:104BC00080E00E94A51869EE72E082EC9AE00E94F3
:104BD000DE250E94831720E030E0A9010E940E3BF1
:104BE00087FD50C00E94831720E030E040E05FE383
:104BF0000E946C3A0E94D83AAB01BC0182EC9AE068
:104C00000E9454256FED82EC9AE00E94320266EF1A
:104C100072E082EC9AE00E94DE2581E00E94A518F5
:104C200068EF72E082EC9AE00E94DE250E949817FD
:104C300020E030E0A9010E940E3B87FD2CC00E94BD
:104C4000981720E030E040E05FE30E946C3A0E9459
:104C5000D83AAB01BC0182EC9AE00E9454256FED7A
:104C600082EC9AE00E94320266EF72E082EC9AE0F7
:104C70000E94DE2581E090E090939A05809399054B
:104C800080E008950E94831720E030E040E05FE379
:104C90000E946B3AAFCF0E94981720E030E040E0CE
:104CA0005FE30E946B3AD3CF81E00E949F188BE3B1
:104CB0009FE10197F1F780E00E94A51865E073E09D
:104CC00082EC9AE00E94DE25809198056FEB74E0FB
:104CD000811102C06BED74E082EC9AE00E94DE2547
:104CE00081E00E94A51861E173E082EC9AE00E94E5
:104CF000DE25809197056FEB74E0811102C06BEDAA
:104D000074E082EC9AE00E94DE2510929A051092DF
:104D1000990580E00895FB0101900020E9F73197A3
:104D2000AF01461B570B0C941E130F931F93CF9389
:104D30008C01C0E0F8018481C81738F462E073E0A8
:104D4000C8010E948B26CF5FF5CFCF911F910F91A5
:104D500008954F925F926F927F928F929F92AF923F
:104D6000BF92CF92DF92EF92FF920F931F93CF9358
:104D7000DF93CDB7DEB7A1970FB6F894DEBF0FBEB5
:104D8000CDBFFC018B0194819F77963009F46CC1F3
:104D900050F4923090F0943008F02BC1428153814E
:104DA00060817181E5C09C3009F443C048F49830BB
:104DB00009F455C19A3009F43BC160E273E035C093
:104DC000903209F4D9C09034C1F7E080F18069E2F3
:104DD00073E0E114F10449F165E273E0C8010E9457
:104DE0008B26F80184818F5F8483C8010E949526F9
:104DF000B801C7010E94A926C7010E94A2157C0123
:104E00006CE173E0892B11F46DE173E0C8010E943D
:104E10008B26E114F10449F7F801848181508483E1
:104E2000C8010E9495266AE273E0C8010E948B26A1
:104E3000E5C080809180A280B380A5019401C50166
:104E4000B4010E940B398111B8CF20E030E0A901F4
:104E5000C501B4010E940B39882379F0A5019401A2
:104E6000C501B4010E946C3A9B01AC01C501B401BB
:104E70000E940B39882309F4A0CF20E030E0A9017B
:104E8000C501B4010E940B3987FF08C06DE2C8015B
:104E90000E940913B7FAB094B7F8B0946E0127E1F5
:104EA000C20ED11CB501A401C6010E94AC134F89EA
:104EB000588D698D7A8DC8010E943313F9A0FF20A7
:104EC00091F16B8D7C8D8D8D9E8D4E01E1E18E0E6D
:104ED000911CEF2C54012AE0422E512C612C712C94
:104EE000EA94FFEFEF1659F0A30192010E943A3ABB
:104EF000605DF40162934F01B901CA01F1CF8F2DBA
:104F000090E0BC0160957095F501E81BF90B3197B5
:104F10008EE2808344275527461B570B6A0D7B1D65
:104F2000C8010E941E138F8D98A1892B09F466C0B9
:104F300065E6C8010E940913EF8CF8A0C701F7FECF
:104F400008C06DE2C8010E940913882799278E19AD
:104F50009F09F6012AE030E0B9010E94133B805D11
:104F60008293CB010097C1F7A6014E1B5F0BBF01D7
:104F7000C8010E941E1342C0E080F18060E373E02C
:104F8000E114F10409F451CF6CE273E0C8010E940E
:104F90008B26F80184818F5F8483C8010E94952647
:104FA000F70166817781C8010E947F1364EA74E08B
:104FB000C8010E948B26B801C7010E94A926C7011B
:104FC0000E94A2157C016CE173E0892B11F46DE164
:104FD00073E0C8010E948B26E114F104F1F6F80198
:104FE000848181508483C8010E94952661E373E027
:104FF0001CCF60817181C8010E947F13F8018281FA
:105000009381A1960FB6F894DEBF0FBECDBFDF919E
:10501000CF911F910F91FF90EF90DF90CF90BF90B5
:10502000AF909F908F907F906F905F904F9008957A
:10503000C080D180E280F380B701A601F7FE0BC0EB
:105040006DE2C8010E94091344275527BA014C1983
:105050005D096E097F09C8010E943313CFCF4081DB
:10506000518162817381F7CF808163E373E08111A5
:10507000DCCE68E373E0D9CEFB0101900020E9F7B4
:105080003197E61BF70BDC0111962D913C9112979D
:10509000E20FF31F1296FC93EE93119708950F936E
:1050A0001F93CF938C01C0E0F8018381C81738F4B7
:1050B00062E073E0C8010E943C28CF5FF5CFCF913A
:1050C0001F910F9108954F925F926F927F928F92EE
:1050D0009F92AF92BF92EF92FF920F931F93CF9345
:1050E000DF93CDB7DEB7A1970FB6F894DEBF0FBE42
:1050F000CDBFFC018B0194819F77963009F468C184
:1051000018F5923058F1943008F040C182819381B3
:10511000FB0121813281820F931F92838183A196AB
:105120000FB6F894DEBF0FBECDBFDF91CF911F91B8
:105130000F91FF90EF90BF90AF909F908F907F90D6
:105140006F905F904F9008959C3009F443C048F4ED
:10515000983009F438C19A3009F41EC160E273E056
:1051600035C0903209F4D5C09034C1F7E080F180A9
:1051700069E273E0E114F10449F165E273E0C8010A
:105180000E943C28F80183818F5F8383C8010E94BD
:105190004F28B801C7010E946328C7010E94A215C9
:1051A0007C016CE173E0892B11F46DE173E0C801BF
:1051B0000E943C28E114F10449F7F80183818150F1
:1051C0008383C8010E944F286AE273E0C8010E94ED
:1051D0003C2893C080809180A280B380A501940177
:1051E000C501B4010E940B398111B8CF20E030E035
:1051F000A901C501B4010E940B39882379F0A501EA
:105200009401C501B4010E946C3A9B01AC01C50137
:10521000B4010E940B39882309F4A0CF20E030E0CC
:10522000A901C501B4010E940B3987FF0AC0F8012A
:1052300081819281019692838183B7FAB094B7F805
:10524000B0947E01F7E1EF0EF11CB501A401C70196
:105250000E94AC134F89588D698D7A8DC8010E94C8
:105260002D15B9A0BB2041F16B8D7C8D8D8D9E8D50
:105270004E0121E1820E911CAB2C2AE0422E512CD2
:10528000612C712CAA94EFEFAE1659F0A301920194
:105290000E943A3A605DF40162934F01B901CA017C
:1052A000F1CF8B2D90E080959095F801218132818E
:1052B000281B390B328321838F8D98A10097E9F049
:1052C000F8012181328197FD1CC02F5F3F4F32834F
:1052D0002183F7012AE030E0B9010E94133B805D91
:1052E0008293CB010097C1F7EE1AFF0AF801818182
:1052F0009281E80EF91EF282E182F80181819281A9
:105300000ECF2E5F3F4F3283218391958195910976
:10531000E0CFE080F18060E373E0E114F10409F490
:1053200055CF6CE273E0C8010E943C28F8018381EC
:105330008F5F8383C8010E944F28F70166817781C0
:10534000C8010E947B1564EA74E0C8010E943C28F1
:10535000B801C7010E946328C7010E94A2157C0101
:105360006CE173E0892B11F46DE173E0C8010E94D8
:105370003C28E114F104F1F6F80183818150838324
:10538000C8010E944F2861E373E020CF60817181E2
:10539000C8010E947B15B1CF408151816281738128
:1053A00077FF0DC0F80181819281019692838183FC
:1053B00070956095509541955F4F6F4F7F4FC80135
:1053C0000E942D159ACF4081518162817381F7CF60
:1053D000808163E373E08111F9CE68E373E0F6CE78
:1053E000FC0180819181009711F00C94CB3B0895D2
:1053F000CF93DF9320918D0930918E09232B89F073
:10540000FC01C0918909D0918A0960817181CE0126
:105410000E94713D009729F08C1B9D0BDF91CF916D
:1054200008958FEF9FEFFACF0F931F93CF93DF93E2
:1054300000D000D01F921F92CDB7DEB78C01D801EB
:1054400059964D915C915A974115510551F0ED9146
:10545000FC91048CF58DE02D70E060E0C801199599
:10546000EECFF801808D0E94FC1F892BB1F148E03E
:1054700050E0BE016F5F7F4FD80158968C910E941B
:10548000012118161906F4F4D801509684E0FE01A3
:10549000319601900D928A95E1F78D8190E0982FD9
:1054A00088272E81820F911DF801958B848B8F8127
:1054B000282F30E0322F22278885820F932F911DCD
:1054C000928F818F28960FB6F894DEBF0FBECDBFA6
:1054D000DF91CF911F910F91089590E080E0F2CF7E
:1054E0004F925F926F927F928F929F92AF92BF92F4
:1054F000CF92DF92EF92FF920F931F93CF93DF93A0
:10550000CDB7DEB763970FB6F894DEBF0FBECDBF41
:105510007C016B013A01FB0120E090E080E06AE051
:105520003191332309F461C040ED430F4A3008F054
:105530004DC0689FA001699F500D1124CA01C097FA
:10554000830F911D37FD9A958F3F910549F340F3E5
:10555000F701428153816481758180917F09909127
:105560008009A0918109B0918209481759076A07FB
:105570007B0709F40DC28701085F1F4F0E9450048A
:105580006F7077277C5FC8010E94F422813009F098
:1055900004C286EC92E09A838983F7018281938129
:1055A000A481B5818B839C83AD83BE8345E350E0AA
:1055B000BE016F5F7F4FC8010E948012892BA9F541
:1055C000D12CC12CC8010E942B1A17C03E3209F001
:1055D000BFCF233009F4BCCFD301A20FB11D129667
:1055E0008C932F5F90E080E09BCF233009F0B0CF09
:1055F000F3018583CC24C394D12CC60163960FB6E6
:10560000F894DEBF0FBECDBFDF91CF911F910F91F8
:10561000FF90EF90DF90CF90BF90AF909F908F90D2
:105620007F906F905F904F9008950E945004F70113
:105630007783668342E050E0B7016A5F7F4FC8011D
:105640000E948D1F81E090E09A83898342E050E0C0
:10565000BE016F5F7F4FC8010E948D1F80E091E007
:105660009A83898342E050E0BE016F5F7F4FC8019B
:105670000E948D1F1A82198242E050E0BE016F5FC6
:105680007F4FC8010E948D1F42E050E0BE016F5F56
:105690007F4FC8010E948D1F42E050E0BE016F5F46
:1056A0007F4FC8010E948D1F5601F601808188231B
:1056B00001F16501F60181912F01882311F08E32ED
:1056C000B1F446018A189B081814190474F48D86E5
:1056D00041E050E0BE01635F7F4FC8010E948D1F13
:1056E000A401B501C8010E948D1F5201DECF6201E5
:1056F000E1CF1D8641E050E0BE01635F7F4FC801EE
:105700000E948D1FC12CDD24D394DA82C98242E02D
:1057100050E0BE016F5F7F4FC8010E948D1FDA828B
:10572000C98242E050E0BE016F5F7F4FC8010E9416
:105730008D1FC8010E94CD1A892B09F441CFF3E0D7
:10574000AF2EB12C230122E0420E511CD4C0F70130
:105750004281538164817581808D918DA28DB38D3D
:10576000481759076A077B0709F008C1848D958D92
:10577000C59709F003C181A192A15DEFC52EDD247B
:10578000DA940C970CF4ADC04CE050E0BE016F5FB2
:105790007F4FC8010E94D0218B819C819827892747
:1057A00098279A8B898BF7014681578129813A8105
:1057B0004217530709F0E7C097FFE5C08F7092705A
:1057C0003BEFC32EDD24DA94892B09F08AC06F8069
:1057D00078847624672476242AEFC22EDD24DA9496
:1057E0006114710409F47DC0D12CC12C8D819E817E
:1057F000982789279827C816D906F8F441E050E081
:10580000BE01635F7F4FC8010E94D0214D854423B4
:1058100031F050E070E060E0C8010E94D0218D8539
:105820008111ECCF44E050E070E060E0C8010E94DC
:10583000D021FFEFCF1ADF0AD9CF912C812C41E084
:1058400050E0BE016D5E7F4FC8010E94D0214B89A0
:10585000842F807C09F06CC0442331F050E070E06C
:1058600060E0C8010E94D0218B898111E8CF42E01D
:1058700050E0BE01615F7F4FC8010E94D02142E02D
:1058800050E0BE01635F7F4FC8010E94D02144E019
:1058900050E070E060E0C8010E94D02142E050E09A
:1058A000BE016F5E7F4FC8010E94D0218F8598890D
:1058B00049895A898115914009F043C0CD84DE841D
:1058C000DC24CD24DC2481E0C816D104D1F54115B7
:1058D000544009F04AC044E050E0B201C8010E94BF
:1058E000D02121E0A21AB10809F46CCEFFEFCF1647
:1058F000DF0609F067CE0E9450043B014C01C8014D
:105900000E94142A181619060CF421CF0E94500484
:1059100066197709880999096938734181059105E4
:1059200048F562E370E080E090E00E941E04E7CF5B
:1059300041E050E070E060E0C8010E94D0211B8A85
:1059400093CF54274527542770E060E0C8010E9498
:10595000D021FFEF8F1A9F0A6814790409F06FCFE6
:1059600096EFC92EDD24DA94BCCFE7EFCE2EDD24EE
:10597000DA94B7CFCC24CA94DC2CB3CF6EEFC62E0A
:10598000DD24DA94AECF4CEFC42EDD24DA94A9CF17
:105990008EEFC82EDD24DA9430CED12CC12C2DCE42
:1059A000CF92DF92EF92FF920F931F93CF93DF93EB
:1059B000CDB7DEB7AF970FB6F894DEBF0FBECDBF41
:1059C0007C016A0106EC12E01A8309831C861B869F
:1059D00088EE93E0A0E0B0E08D879E87AF87B88B1C
:1059E00080E292E09A878987188F0F8B198E1A8E22
:1059F0001B8E1C8E88E089A31BA70AA71CA61DA6C8
:105A00001EA61FA68091730990917409A091750933
:105A1000B09176098EA39FA3A8A7B9A78B839C8377
:105A2000AD83BE8318861F82AE01465D5F4FCE01F7
:105A300001960E94702A81309105B1F4D701ED9151
:105A4000FC910488F589E02D1DA30CA38CA59DA5D0
:105A5000AEA5BFA58EA39FA3A8A7B9A7A601BE0107
:105A60006C5D7F4FC7011995AF960FB6F894DEBFF6
:105A70000FBECDBFDF91CF911F910F91FF90EF909F
:105A8000DF90CF900895CF92DF92EF92FF920F9325
:105A90001F93CF93DF93CDB7DEB7AF970FB6F894D0
:105AA000DEBF0FBECDBF8C016B017A0186EC92E0A8
:105AB0009A8389831B821C821D821E821C861B8600
:105AC00048EE53E060E070E04D875E876F87788B2B
:105AD00020E232E03A872987988F8F8B198E1A8EB1
