:020000040000FA
:100000000C946A000C9492000C9492000C94920050
:100010000C9492000C9492000C9492000C94920018
:100020000C9492000C9492000C9492000C94920008
:100030000C9492000C9492000C9492000C949200F8
:100040000C948D220C9492000C945B220C9435221B
:100050000C9492000C9492000C9492000C949200D8
:100060000C9492000C9492000000000024002700E1
:100070002A0000000000250028002B0000000000DE
:1000800023002600290004040404040404040202DA
:100090000202020203030303030301020408102007
:1000A0004080010204081020010204081020000012
:1000B0000008000201000003040700000000000027
:1000C00000007C3C3E5E2B3D3F2F5B5D3B2C2A229B
:1000D0005C00D72211241FBECFEFD8E0DEBFCDBF1A
:1000E00012E0A0E0B1E0E0E6F9E502C005900D9273
:1000F000AC3AB107D9F726E0ACEAB2E001C01D92F4
:10010000A939B207E1F710E0CAE6D0E004C02197B0
:10011000FE010E94592BC936D107C9F70E948C23D2
:100120000C94AE2C0C94000020E3FC01208332964A
:10013000862F82958F706F706A3030F4605D6293A5
:10014000682F8111F5CF0895695CF9CFFC01818D8D
:10015000928D08950895AF92BF92CF92DF92EF9261
:10016000FF920F931F93CF93DF936C017B018B0161
:10017000040F151FEB015E01AE18BF08C017D107B1
:1001800059F06991D601ED91FC910190F081E02D3B
:10019000C6010995892B79F7C501DF91CF911F9190
:1001A0000F91FF90EF90DF90CF90BF90AF900895A8
:1001B000FC01538D448D252F30E0842F90E0821B6D
:1001C000930B541710F0CF96089501970895FC01F2
:1001D000918D828D981761F0A28DAE0FBF2FB11D4A
:1001E0005D968C91928D9F5F9F73928F90E00895A2
:1001F0008FEF9FEF0895FC01918D828D981731F05C
:10020000828DE80FF11D858D90E008958FEF9FEFAF
:100210000895FC01918D228D892F90E0805C9F4F85
:10022000821B91098F739927089580E595E00E94BC
:10023000090121E0892B09F420E0822F089580E054
:1002400090E0892B29F00E94150181110C94000087
:100250000895FC01A48DA80FB92FB11DA35ABF4F5B
:100260002C91848D90E001968F739927848FA689B5
:10027000B7892C93A089B1898C91837080648C9309
:10028000938D848D981306C00288F389E02D8081B8
:100290008F7D80830895EF92FF920F931F93CF93EA
:1002A000DF93EC0181E0888F9B8D8C8D98131AC0B1
:1002B000E889F989808185FF15C09FB7F894EE8998
:1002C000FF896083E889F9898081837080648083F5
:1002D0009FBF81E090E0DF91CF911F910F91FF9040
:1002E000EF900895F62E0B8D10E00F5F1F4F0F73E8
:1002F0001127E02E8C8D8E110CC00FB607FCFACFA3
:10030000E889F989808185FFF5CFCE010E94290116
:10031000F1CFEB8DEC0FFD2FF11DE35AFF4FF08273
:100320009FB7F8940B8FEA89FB8980818062CFCFD9
:10033000CF93DF93EC01888D8823B9F0AA89BB891C
:10034000E889F9898C9185FD03C0808186FD0DC007
:100350000FB607FCF7CF8C9185FFF2CF808185FF28
:10036000EDCFCE010E942901E9CFDF91CF91089511
:10037000833081F028F4813099F08230A9F008951B
:100380008730A9F08830C9F08430B1F480918000C2
:100390008F7D03C0809180008F77809380000895C7
:1003A00084B58F7784BD089584B58F7DFBCF809110
:1003B000B0008F778093B00008958091B0008F7D5A
:1003C000F9CF1F93CF93DF93282F30E0F901E25547
:1003D000FF4F8491F901E656FF4FD491F901EA5796
:1003E000FF4FC491CC23A9F0162F81110E94B801B0
:1003F000EC2FF0E0EE0FFF1FEE58FF4FA591B491E8
:100400008FB7F894EC91111108C0D095DE23DC93DE
:100410008FBFDF91CF911F910895DE2BF8CFCF933F
:10042000DF9390E0FC01E656FF4F24918A579F4FDF
:10043000FC0184918823D1F090E0880F991FFC0182
:10044000E859FF4FA591B491FC01EE58FF4FC591BB
:10045000D49161110EC09FB7F8948C91E22FE09572
:100460008E238C932881E223E8839FBFDF91CF9175
:1004700008958FB7F894EC91E22BEC938FBFF6CFF1
:100480003FB7F8948091B7029091B802A091B90259
:10049000B091BA0226B5A89B05C02F3F19F001966E
:1004A000A11DB11D3FBFBA2FA92F982F8827BC01CE
:1004B000CD01620F711D811D911D42E0660F771FF6
:1004C000881F991F4A95D1F708958F929F92AF92F6
:1004D000BF92CF92DF92EF92FF924B015C010E949C
:1004E00040026B017C010E9440026C197D098E095B
:1004F0009F09683E734081059105A8F321E0821AA7
:100500009108A108B10888EEC80E83E0D81EE11C4E
:10051000F11C81149104A104B10429F7FF90EF901C
:10052000DF90CF90BF90AF909F908F9008952FB79E
:10053000F8946091B3027091B4028091B5029091E9
:10054000B6022FBF0895FC01DB0112968D919C919C
:100550001397938382838AE891E091838083149632
:100560008C911497848315968C9115978583169694
:100570004D915D916D917C9119974683578360876A
:1005800071871A964D915D916D917C911D9742876F
:100590005387648775871E964D915D916D917C910F
:1005A000519746875787608B718B52968C915297E3
:1005B000828B53964D915D916D917C915697438BB3
:1005C000548B658B768B57964D915D916D917C9197
:1005D0005A97478B508F618F728F5B968D919C914C
:1005E000948F838F0895DC015996ED91FC9130979B
:1005F000B9F083899489A589B68942855385648534
:100600007585841B950BA60BB70B811520E8920707
:10061000A105B10538F08FEF9FE7A0E0B0E00895A5
:1006200090E080E00895DC0159968D919C910097AF
:1006300039F0DC01ED91FC910480F581E02D099405
:1006400090E080E00895CF93DF931F92CDB7DEB79F
:100650006983DC01ED91FC910280F381E02D41E0A2
:1006600050E0BE016F5F7F4F09950F90DF91CF91F2
:100670000895FC0120812EBD9B012150310941F0DC
:1006800051810DB407FEFDCF4EB55EBD4193F5CF50
:1006900061507109860F971F0DB407FEFDCF2EB56F
:1006A000FC0120830895E091BC02F091BD0280819D
:1006B0009091BB02892B80830895E091BC02F09158
:1006C000BD0290818091BB0280958923808308952B
:1006D0008EBD00000DB407FEFDCF8EB508958FEFDF
:1006E0000C9468030F931F93CF93DF93EC010E9448
:1006F00097028B010E946F038F3F69F00E9497025F
:10070000601B710B6C177D07A8F380E0DF91CF9120
:100710001F910F91089581E0F9CFAF92BF92CF92D0
:10072000DF92EF92FF920F931F93CF93DF93CDB79A
:10073000DEB728970FB6F894DEBF0FBECDBF8C0191
:100740007B016A0180914C038333E1F45801A40ECC
:10075000B51EA016B10609F46FC00E945D0380EFBC
:100760000E946803812F0E946803802F0E94680303
:100770000F5F1F4FF70181917F010E9468030E9464
:100780005303E7CF5B01A40EB51E8433C1F40E946E
:100790005D0319830A838D2D80688B83CC8264E08E
:1007A00070E0CE0101960E943903AE14BF0409F433
:1007B00041C0F70181917F010E946803F6CF0E943A
:1007C0005D030F3F110509F028F419820A8384E0C4
:1007D0008B830CC017FD17C019820A8333E016956E
:1007E00007953A95E1F7007E0C600B8386E0C8160A
:1007F000D104A0F5F701DE011496EA15FB0599F086
:1008000081918D93FACFC80126E0969587952A9518
:10081000E1F7807E19830A830115104C10F484617E
:10082000D7CF8C61D5CFB6016D5F7F4FCE010196DA
:100830000E9439030E945303C60128960FB6F8940C
:10084000DEBF0FBECDBFDF91CF911F910F91FF9003
:10085000EF90DF90CF90BF90AF90089563E070E08D
:10086000CE0101960E943903F70181917F010E9418
:100870006803AE14BF04C1F7DDCFCF93DF931F929F
:10088000CDB7DEB7898341E050E0BE016F5F7F4F97
:1008900090E080E00E948D030F90DF91CF9108954A
:1008A00090E020914C03233339F40C96982F990F44
:1008B000990F990F80E008954896F8CFDA01E091FA
:1008C000BE02F0E0FE2FEE27E60FF71F90E0982F14
:1008D0008827A901BD018E0F9F1F0C948D03CF9314
:1008E000DF9300D0CDB7DEB779836A8322E030E0B2
:1008F000AE014F5F5F4F60E170E00E945E040F90B9
:100900000F90DF91CF910895CF93DF9300D0CDB7B3
:10091000DEB779836A8322E030E0AE014F5F5F4F3C
:1009200064E070E00E945E040F900F90DF91CF9121
:100930000895CF93DF931F92CDB7DEB72091BE020B
:1009400030E0322F2227260F371F90E0982F88277C
:10095000498341E050E0BE016F5F7F4F820F931FDC
:100960000E948D030F90DF91CF910895CF93DF9375
:100970001F92CDB7DEB76983DC01ED91FC91028057
:10098000F381E02D41E050E0BE016F5F7F4F09959C
:100990000F90DF91CF910895CF93DF931F92CDB742
:1009A000DEB76983DC01ED91FC910280F381E02DDB
:1009B00041E050E0BE016F5F7F4F09950F90DF91DE
:1009C000CF910895FC019485FB018485981303C0A1
:1009D00081E0943008F080E00895CF93DF931F9278
:1009E000CDB7DEB76983DC01ED91FC910280F38124
:1009F000E02D41E050E0BE016F5F7F4F09950F9001
:100A0000DF91CF910895FC01768765870895DC0119
:100A1000ED91FC91068CF78DE02D099591E08927E9
:100A20000895862F089581E08627089521E0FC012E
:100A30008485843008F020E0822F0895089561E0D5
:100A4000FC0184810E94E1018091AD02811110922C
:100A5000AD0208958CBD9DBD0895CF93DF93EC0149
:100A60008091AD02811109C081E08093AD02809137
:100A7000ED059091EE050E942A0560E08C81DF91E2
:100A8000CF910C94E1018F929F92AF92BF92FF920F
:100A90000F931F93CF93DF93EC01F62E49015A0178
:100AA0008E81882389F08F8198859C012F5F3F4F2D
:100AB00038872F838230924018F40E946F03F3CF5F
:100AC000CE010E941F051E82CE010E942D058CE2E0
:100AD00091E00E9472038F2D80640E94680308E1F8
:100AE00010E0D501C401002E04C0B695A7959795D6
:100AF00087950A94D2F70E94680308501109083FAD
:100B00008FEF180771F785E9FF2021F028E087E8CB
:100B1000F2128FEF0E94680310E00E946F038A8731
:100B200087FF04C01F3F11F01F5FF7CFDF91CF9108
:100B30001F910F91FF90BF90AF909F908F9008955D
:100B4000AF92BF92CF92DF92EF92FF920F931F93DB
:100B5000CF93DF93EC016901C801820F931F8130AD
:100B6000924050F58E81882379F088819981AA81FD
:100B7000BB8184179507A607B70731F48F81988545
:100B8000C816D90608F042C0488359836A837B831C
:100B90008B85833039F089E0440F551F661F771F1E
:100BA0008A95D1F79A01AB0161E1CE010E9443051C
:100BB000882389F083E08D83CE010E941F0580E0A9
:100BC000DF91CF911F910F91FF90EF90DF90CF9029
:100BD000BF90AF9008950E9497025B010E946F033F
:100BE0008A878F3F69F40E9497026A197B096D32E8
:100BF0007140A0F38FE08D83CE010E941F05DCCFF2
:100C00008E3F89F418861F8281E08E838F819885BC
:100C10008C159D0550F40E946F038F819885019675
:100C200098878F83F3CF8DE0E6CF6701E00EF11E4A
:100C30000E946F03F60181936F01EE15FF05C1F766
:100C40008F819885080F191F18870F83898588233E
:100C500019F001151240A0F08E81882389F08F8150
:100C600098859C012F5F3F4F38872F8382309240B9
:100C700018F40E946F03F3CFCE010E941F051E825D
:100C800081E09ECFCF92DF92EF92FF920F93CF93AE
:100C9000DF93EC01690182E14115510561057105A0
:100CA00099F08B85833039F089E0440F551F661F1A
:100CB000771F8A95D1F79A01AB0168E1CE010E94B6
:100CC0004305882319F084E08D832DC08EEF0E94A8
:100CD000680376018EEFD81AF70181917F010E9497
:100CE0006803EC14FD04C1F78FEF0E9468038FEFD7
:100CF0000E9468030E946F038A878F71853071F4A8
:100D0000011116C0CE010E941F0581E0DF91CF9135
:100D10000F91FF90EF90DF90CF90089581E18D8348
:100D2000CE010E941F05CE010E941F0580E0EECF7C
:100D300088E592E00E947203811102C085E1C4CF70
:100D400020E030E0A9016DE0CE010E944305882338
:100D500011F084E1B9CF0E946F038111FACFD2CF95
:100D60000F934091AE025091AF026091B00270912A
:100D7000B102411551056105710599F0082F20E573
:100D800033E080914D0390914E030E9442068823E8
:100D900049F01092AE021092AF021092B00210927F
:100DA000B10281E00F9108950F93CF93C82F8091E6
:100DB0004F03811105C0C1E08C2FCF910F91089591
:100DC000409108015091090160910A0170910B0155
:100DD0000C2F20E533E080914D0390914E030E944B
:100DE0004206811102C0C0E0E7CFCC2321F381E0AD
:100DF0000E94B0068823B9F310924F03DDCF8F9283
:100E00009F92AF92BF92EF92FF920F931F93CF9357
:100E10004B015C01C42F8091080190910901A091C0
:100E20000A01B0910B0188159905AA05BB0551F17E
:100E300081E00E94D40681110BC080E0CF911F9108
:100E40000F91FF90EF90BF90AF909F908F9008957B
:100E500080E5E82E83E0F82E00E012E030E020E0AC
:100E6000B501A40180914D0390914E030E94A0050D
:100E7000882319F38092080190920901A0920A0137
:100E8000B0920B0140914F034C2B40934F0381E0F4
:100E9000D5CF8F929F92AF92BF92CF92DF92EF9277
:100EA000FF92CF932FEE35E030934E0320934D0306
:100EB000882309F46DC040E060E070E0CB010E943F
:100EC000FF0681110BC080E0CF91FF90EF90DF9083
:100ED000CF90BF90AF909F908F90089580910E0516
:100EE0008F7789F780911A0590911B05A0911C05B9
:100EF000B0911D0584369105A105B10520F3C09080
:100F00001605D0901705E0901805F0901905C1144A
:100F1000D104E104F104B9F240E0C701B6010E9436
:100F2000FF06882381F280915B0390915C03811519
:100F3000924049F6A0916003AA2329F260915E03D2
:100F400070915F036115710509F4BDCF20915D03B8
:100F5000222309F4B8CFA0930D062093FF0590E05B
:100F600080E030E0E1E0F0E0C82FAF01082E02C0E1
:100F7000440F551F0A94E2F72417350769F041E042
:100F8000480F01968930910579F7409308069BCF69
:100F9000C12CD12C7601C0CF809308062091660326
:100FA0003091670350E040E02115310541F4209174
:100FB0007403309175034091760350917703209329
:100FC0000006309301064093020650930306460143
:100FD0005701860E971EA11CB11C80920E0690929E
:100FE0000F06A0921006B0921106E0916103F091F5
:100FF0006203F0931406E0931306B0E00E940E2BF8
:10100000DC01CB01880D991DAA1DBB1D809315061F
:1010100090931606A0931706B093180625E0EE0FDE
:10102000FF1F2A95E1F7E150FE4FEF2FFF27E695CE
:101030008E0F9F1FA11DB11D8093090690930A0674
:10104000A0930B06B0930C0680906303909064030A
:10105000B12CA12C8114910441F4809070039090E4
:101060007103A0907203B0907303C81AD90AEA0AF8
:10107000FB0AC80CD91CEA1CFB1C04C0F694E794BC
:10108000D794C794CA95D2F7C0920406D0920506A9
:10109000E0920606F092070685EFC8168FE0D806A4
:1010A000E104F10428F48CE08093120681E00CCF77
:1010B00080E125EFC2162FEFD206E104F104A0F380
:1010C00080917C0390917D03A0917E03B0917F037A
:1010D0008093150690931606A0931706B0931806F2
:1010E00080E2E2CF4F925F926F927F928F929F92B7
:1010F000AF92BF92CF92DF92EF92FF920F931F9326
:10110000CF93DF93EC01423051056105710590F4F6
:1011100080E0DF91CF911F910F91FF90EF90DF90D2
:10112000CF90BF90AF909F908F907F906F905F9087
:101130004F90089589859A85AB85BC850196A11D40
:10114000B11D84179507A607B70710F3CB88DC8875
:10115000ED88FE888F89803109F042C0BB27A72F18
:10116000962F852F480159012A013B01C80ED91E2F
:10117000EA1EFB1E8091080190910901A0910A01CD
:10118000B0910B01C816D906EA06FB0699F58F89BE
:101190008031C1F5B301A201552766277727440F97
:1011A000551F405B5C4FFA019182808280914F0312
:1011B000816080934F038A89823080F08D819E8187
:1011C000AF81B8858C0D9D1DAE1DBF1D8093AE02F5
:1011D0009093AF02A093B002B093B10281E099CF97
:1011E000DB01CA01E7E0B695A79597958795EA9543
:1011F000D1F7B8CF40E0C701B6010E94FF068111C8
:10120000C6CF86CFB301A2014F7755276627772730
:10121000440F551F440F551F405B5C4FFA018082FD
:101220009182A282B382C2CF8F929F92AF92BF92DD
:10123000CF92DF92EF92FF920F931F93CF93DF93A2
:10124000FC0181859285A385B4850196A11DB11D00
:1012500084179507A607B70770F480E0DF91CF9158
:101260001F910F91FF90EF90DF90CF90BF90AF90C4
:101270009F908F90089583889488A588B6888789E1
:10128000803189F5BB27A72F962F852FE9016A01A9
:101290007B018F01BC01CD01680D791D8A1D9B1D4D
:1012A0008090080190900901A0900A01B0900B0174
:1012B00086169706A806B90601F5F80187898031D8
:1012C00011F5DD24EE24FF24F601EE0FFF1FE05B95
:1012D000FC4F80819181B0E0A0E088839983AA834C
:1012E000BB8381E0BBCFDB01CA01C7E0B695A79500
:1012F00097958795CA95D1F7C9CF40E00E94FF0620
:101300008111DBCFAACFE894C7F8DD24EE24FF24B7
:10131000F601EE0FFF1FEE0FFF1FE05BFC4F808119
:101320009181A281B381BF70D8CF4F925F926F92AB
:101330007F92AF92BF92CF92DF92EF92FF920F9384
:101340001F93CF93DF9300D000D0CDB7DEB78C01D1
:1013500049835A836B837C835901C12CD12C76013C
:10136000412C82E0582E612C712C49815A816B816D
:101370007C819E012F5F3F4FC8010E941409882382
:1013800039F1F8018585A301920104C0220F331FB2
:10139000441F551F8A95D2F7DA01C901C80ED91E1C
:1013A000EA1EFB1E49815A816B817C8187898031CD
:1013B00011F188EF9FEFAFEFBFE0481759076A07B9
:1013C0007B0798F2F501C082D182E282F38281E04C
:1013D0000F900F900F900F90DF91CF911F910F9171
:1013E000FF90EF90DF90CF90BF90AF907F906F9085
:1013F0005F904F90089588EF9FEFA0E0B0E0DDCFC1
:10140000CF93DF93FC012581222321F080E0DF913F
:10141000CF910895EC0180911206803159F582E058
:101420008583178A108E118E128E809113069091EB
:101430001406B0E0A0E025E0880F991FAA1FBB1F8B
:101440002A95D1F7838B948BA58BB68B8BEF95E088
:101450009C8F8B8F81E08C831E821F821886198659
:101460001A861B861C861D861E861F86188A198A68
:101470001A8ACDCF803251F683E0858340911506DC
:10148000509116066091170670911806478B508F81
:10149000618F728F9F012D5E3F4F8BEF95E00E9411
:1014A00095098111D3CFB2CF8F929F92AF92BF9205
:1014B000CF92DF92EF92FF920F931F93CF93DF9320
:1014C000EC018D8181110EC080E0DF91CF911F91E1
:1014D0000F91FF90EF90DF90CF90BF90AF909F90D3
:1014E0008F9008950B891C892D893E890417150753
:1014F0002607370748F34A015B01823031F48A86B8
:101500009B86AC86BD8681E0E0CF81149104A10466
:10151000B10449F41E821F82188619861A861B861A
:101520001C861D86F0CF0A851B852C853D85EB8D9D
:10153000FC8D858590E00996B901A80141505109BB
:1015400061097109082E04C07695679557954795EE
:101550000A94D2F775016401E1E0CE1AD108E108DE
:10156000F10804C0F694E794D794C7948A95D2F70B
:10157000C416D506E606F70620F0012B022B032B36
:1015800011F58F89988DA98DBA8D8E839F83A88739
:10159000B9878E010A5F1F4FC114D104E104F10421
:1015A00009F4ADCF4E815F816885798598018B8D77
:1015B0009C8D0E94140991E0C91AD108E108F10834
:1015C0008111EACF81CFC41AD50AE60AF70AE1CF22
:1015D0003F924F925F926F927F928F929F92AF92C3
:1015E000BF92CF92DF92EF92FF920F931F93CF9310
:1015F000DF93CDB7DEB72C970FB6F894DEBF0FBEE2
:10160000CDBF5C01DC015B968D909C905C9716963B
:101610004D905D906D907C90199741145104610438
:10162000710409F468C0BFEF4B1A5B0A6B0A7B0AAE
:10163000312CF40181859285A385B4859C01AD018F
:101640002F5F3F4F4F4F5F4F29873A874B875C870C
:10165000730162011D821E821F821886F40181853A
:101660009285A385B4852D813E814F8158852817A9
:1016700039074A075B0708F056C089859A85AB850C
:10168000BC858C159D05AE05BF0550F482E0C82EC3
:10169000D12CE12CF12C92E0492E512C612C712C93
:1016A0009E012F5F3F4FB701A601C4010E9414099C
:1016B0008823C9F189819A81AB81BC81892B8A2BCE
:1016C0008B2B09F1260137019FEF491A590A690A44
:1016D000790A2D813E814F8158852F5F3F4F4F4FB3
:1016E0005F4F2D833E834F8358873FEFC31AD30A42
:1016F000E30AF30AB3CFF401408051806280738023
:101700003324339496CFC414D504E604F70409F7C0
:101710000FEF1FEF2FEF3FE0B701A601C4010E94BA
:101720007208811119C080E02C960FB6F894DEBFC4
:101730000FBECDBFDF91CF911F910F91FF90EF9022
:10174000DF90CF90BF90AF909F908F907F906F90E1
:101750005F904F903F900895D50116964D915D9101
:101760006D917C911997411551056105710539F00D
:1017700097018601C4010E9472088823A1F2D50155
:101780001696CD92DD92ED92FC921997332051F08E
:10179000D701C6010196A11DB11DF401808391837B
:1017A000A283B383F5018789908DA18DB28D892B9A
:1017B0008A2B8B2B39F48481C78AD08EE18EF28EEE
:1017C00080688483F50184818062848381E0ACCF6A
:1017D0002F923F924F925F926F927F928F929F9241
:1017E000AF92BF92CF92DF92EF92FF920F931F932F
:1017F000CF93DF9300D01F92CDB7DEB7FC01858178
:10180000811118C08FEF9FEF0F900F900F90DF9115
:10181000CF911F910F91FF90EF90DF90CF90BF90ED
:10182000AF909F908F907F906F905F904F903F9080
:101830002F900895848180FFE5CF4389548965897D
:10184000768982859385A485B585312C212C48170E
:1018500059076A077B0719F022242394312C6F0162
:101860002101CE0101963C01DF011696BB83AA83BC
:101870004114510409F4C5C0F601428553856485BD
:1018800075854A01F1E09F22D6015B968D919C916E
:101890005C978A019B01E9E0369527951795079596
:1018A000EA95D1F71596EC91E230E9F5FC01628DED
:1018B000738D848D958D600F711F821F931FA12CD6
:1018C00022E0B22EA818B9084A145B0408F45201A9
:1018D000F601248126FD04C0A114F2E0BF0671F4D4
:1018E000009108011091090120910A0130910B012A
:1018F000061717072807390709F05EC040E00E9465
:10190000FF06882309F47ECFC401805B9C4FD3017E
:101910009C012A0D3B1DFC012E173F0709F46CC0EA
:1019200041914D93F9CFDC011496BC90BA94B0224A
:101930008114910479F4B1100DC0452B462B472B2F
:1019400069F5F6018789908DA18DB28D8683978385
:10195000A087B187D6015B96ED91FC915C971696B6
:101960006D917D918D919C911997625071098109BA
:101970009109258504C0660F771F881F991F2A9536
:10198000D2F70685178520893189600F711F821F64
:10199000931F6B0D711D811D911D91CFD601169660
:1019A0004D915D916D917C9119972A813B810E94A7
:1019B00014098111CFCF26CF730185019401AB01AA
:1019C000BC0180914D0390914E030E94A005882395
:1019D00009F418CF6A0C7B1CF60182859385A485D7
:1019E000B5858A0D9B1DA11DB11D82879387A48794
:1019F000B5874A185B083CCF281B390B620E731E53
:101A0000EBCF2A94232809F0FDCE898190E0FCCE0B
:101A1000FC01818D928D009711F00C94E80B8FEFF3
:101A20009FEF08950F931F93CF93DF93EC01898D60
:101A30009A8D10E000E0009799F00E94E80B8C016D
:101A40000F3F100769F0898D9A8DFC0142855385FF
:101A50006485758541505109610971090E94540AD4
:101A6000C801DF91CF911F910F9108951F93CF93DC
:101A7000DF93FC0125812223D1F1162FEC01848113
:101A800087FF2AC0668577858089918941E00E9419
:101A9000FF06882361F1EA8980E2E89FF0011124C2
:101AA000E05BFC4F309719F18D81823040F48B89D7
:101AB0009C89AD89BE89848F958FA68FB78F8F89BA
:101AC000988D938F828F8F89988DA98DBA8DB58BC4
:101AD000A48B8C818F778C83111103C08C818F7EB6
:101AE0008C83812FDF91CF911F910C94D40680E0DD
:101AF000DF91CF911F910895FF920F931F93CF9382
:101B0000DF93EC018D81813041F090E080E0DF9146
:101B1000CF911F910F91FF9008958C8181FFF5CF98
:101B200082FD1BC000914D0310914E03C8010E941D
:101B30002D050E946F03F82EC8010E941F058FEF2C
:101B4000F812E3CF8C8185FF1BC060E0CE010E94BC
:101B5000360D8C818F7D8C83D8CF4B895C896D89C4
:101B60007E898A859B85AC85BD8584179507A607E8
:101B7000B707C1F2CE010E94540A8111D3CFC5CF5D
:101B80004091AE025091AF026091B0027091B102EB
:101B9000452B462B472B21F080E00E94B006B5CFA5
:101BA00080618C832A853B85317080E092E0821BC6
:101BB000930BADCFCF93DF93EC0161E00E94360D24
:101BC000882311F01D8281E0DF91CF910895FC01FF
:101BD000818D928D009719F061E00C94360D089577
:101BE0002F923F924F925F926F927F928F929F922D
:101BF000AF92BF92CF92DF92EF92FF920F931F931B
:101C0000CF93DF9300D000D01F92CDB7DEB77C0119
:101C10005B01342E5D83DC0115968C911597813024
:101C200009F0CEC014962C9021FECAC022FCB4C08C
:101C3000C32CDD8022947FE027222094B22DB17046
:101C40002B2ED7011A964D915D916D917C911D9728
:101C5000C114D10409F428C15B968D919C915C97C5
:101C6000FC0174807A948A019B0169E0369527957E
:101C7000179507956A95D1F770228A011170711036
:101C800020C001151105E9F416964D915D916D91F5
:101C90007C911997411551056105710509F099C0AD
:101CA00057968D919D910D90BC91A02D0097A10507
:101CB000B10509F0B0C0C7010E94E80A882309F401
:101CC0007FC080E092E0801B910B46018C159D0542
:101CD00008F44C01D7015B964D915C915C97169688
:101CE0008D919D910D90BC91A02D0297A109B109F4
:101CF000FA01258504C0880F991FAA1FBB1F2A95CA
:101D0000D2F74685578560897189840F951FA61F74
:101D1000B71F9C01AD01270D311D411D511D29012A
:101D20003A01811432E0930609F07BC080910801EA
:101D300090910901A0910A01B0910B0184159505BC
:101D4000A605B70559F48FEF9FEFDC0180930801DA
:101D500090930901A0930A01B0930B01022D950104
:101D6000B301A20180914D0390914E030E9442065F
:101D7000882331F19EEFB91AC818D908F701828576
:101D80009385A485B585880D991DA11DB11D8287F8
:101D90009387A487B58755CFF7014389548965890F
:101DA000768982859385A485B585481759076A0782
:101DB0007B0709F43DCFC7010E94540A811138CF37
:101DC00081E090E0D70113969C938E93129780E068
:101DD00007C09E012F5F3F4F0E941409811102C06E
:101DE00090E079C089819A81AB81BC81F701238D14
:101DF000348DF901278948EF5FEF60E070E0203112
:101E000021F048EF5FEF6FEF7FE084179507A6079B
:101E1000B70708F050CFF70186839783A087B18773
:101E200050CF0115110599F5D7011A964D915D9185
:101E30006D917C911D9753968D919D910D90BC91C4
:101E4000A02D481759076A077B0708F181E00E9417
:101E5000D406882309F4B4CF4092080150920901B6
:101E600060920A0170920B0180914F038160809310
:101E70004F03C801805B9C4FD5019C01280D391D83
:101E8000FC012E173F0759F04D914193FACF41E0E5
:101E9000C301B2010E94FF068111EBCF91CF281B35
:101EA000390BA20EB31E68CFF70183899489A589E7
:101EB000B68984179507A607B70738F48481438B42
:101EC000548B658B768B80688483F701848183FDD6
:101ED0001AC0832D9D810F900F900F900F900F903F
:101EE000DF91CF911F910F91FF90EF90DF90CF90F6
:101EF000BF90AF909F908F907F906F905F904F902A
:101F00003F902F90089561E0C7010E94360D88230D
:101F100009F456CFDECFCF93DF931F92CDB7DEB754
:101F2000698341E050E0BE016F5F7F4F0E94F00D7A
:101F30000F90DF91CF910895CF93DF93EC01E98D5E
:101F4000FA8D309749F481E090E09B838A8390E09A
:101F500080E0DF91CF91089513821282898D9A8D4E
:101F60000E94F00DE98DFA8D22813381232B59F7E0
:101F7000F0CFFF920F931F93CF93DF93EB01FC0100
:101F8000178A168A2A81211109C02B81211106C0C6
:101F90002C81211103C02D81222301F1411551050E
:101FA000E9F08A01FC01F08C80E591E00E942A05AD
:101FB000AE014E5F5F4F24E030E06CE070E08F2DAB
:101FC0000E945E04B8018F2D0E946F0481E090E0B2
:101FD000DF91CF911F910F91FF90089580E0F7CF8F
:101FE000FC01848595850895FC018489958908956F
:101FF00028EA31E0FC0131832083FB0140895189CB
:1020000062897389FC0142835383648375830895D5
:10201000DC01ED91FC91048CF58DE02D0994CF93BA
:10202000CFB7F8948091AC02811127C0E0E9F0E0CD
:102030008491E4EAF0E09491E82FF0E0EE0FFF1FC6
:10204000E859FF4FA591B491EC91E92321F461E0A7
:102050008AE00E94E10161E08AE00E940F028CB5F3
:1020600080618CBD8CB580648CBD61E08DE00E9488
:102070000F0261E08BE00E940F028091AC028F5F43
:102080008093AC02CFBFCF910895089590E080E097
:1020900008950F931F93CF93DF93EC0180E2689F25
:1020A000F0011124E05BFC4F6A8B80910801909154
:1020B0000901A0910A01B0910B018E879F87A88B1F
:1020C000B98B0489158930E020E098011127002799
:1020D0000F8B188F298F3A8F828D938DB0E0A0E0FF
:1020E000AC01BD01402B512B622B732B4F8B588FB2
:1020F000698F7A8F83858871A9F4848D958DA68DDB
:10210000B78D8B8B9C8BAD8BBE8B81E08D8381E0FB
:102110008C831E821F82188619861A861B861C864F
:102120001D8603C0803131F080E0DF91CF911F9197
:102130000F9108959E012D5E3F4F8B8D9C8D0E94C7
:102140009509882389F384E0E1CFAF92BF92CF92C3
:10215000DF92EF92FF920F931F93CF93DF9300D004
:1021600000D0CDB7DEB78C016B017A0180914C03B2
:102170008333E9F45B016801C40ED51EC016D10695
:10218000A9F10E945D038FE00E946803812F0E94E5
:102190006803802F0E9468030F5F1F4F80E00E943A
:1021A0006803F50181935F010E945303E7CF8433F5
:1021B00069F50E945D0319830A838F2D8F778B83C6
:1021C000EC8264E070E0CE0101960E943903A70121
:1021D00070E060E0C6010E94912CE114F10421F04E
:1021E000B701C6010E9439030E945303C7010F9033
:1021F0000F900F900F90DF91CF911F910F91FF9053
:10220000EF90DF90CF90BF90AF9008950E945D0354
:102210000F3F110509F030F419820A831B8263E035
:1022200070E0D1CF17FD0BC019820A8333E01695F9
:1022300007953A95E1F7007E08600B83F0CFC8015F
:1022400026E0969587952A95E1F7807E19830A8383
:102250000115104C18F480618B83E1CF8861FCCFAD
:10226000CF93DF931F92CDB7DEB72091BE0230E04F
:10227000322F2227260F371F90E0982F882741E022
:1022800050E0BE016F5F7F4F820F931F0E94A51029
:1022900089810F90DF91CF910895CF93C82F462F5A
:1022A00061E070E00E94990461E070E08C2F0E9470
:1022B00030118111F9CFCF910895CF93C82F80E5C8
:1022C00091E00E942A0568E070E08C2FCF910C9479
:1022D0004D11CF93C82F80E591E00E942A0560E15F
:1022E00070E08C2FCF910C944D11CF93DF93EC01C4
:1022F000888D843020F40E94691184E0888FDF91FA
:10230000CF91089563E070E00C943011CF93C82F03
:1023100080E591E00E942A058C2FCF910C948211C8
:10232000EF92FF920F931F93CF937C0104E413E08D
:10233000C0E0F801219131918F01F70184819581ED
:102340002817390729F0CF5FC43099F780E006C01D
:102350008C2F0E9486118431B1F781E0CF911F91BB
:102360000F91FF90EF900895CF93DF93EC018C8550
:102370008430D0F40E948611843189F0882379F06A
:10238000883169F021E08C3159F4E881F9810084C9
:10239000F185E02DCE01099521E0892B09F420E09B
:1023A000822FDF91CF91089580E0FBCFCF92DF9213
:1023B000EF92FF92CF93DF93EC018C85843068F429
:1023C0000E945D110E9497026B017C018C850E9426
:1023D0008611811109C084E08C87DF91CF91FF9035
:1023E000EF90DF90CF90089561E070E080E090E0A2
:1023F0000E9465020E949702AB01BC014C195D0965
:102400006E097F098D859E85B0E0A0E048175907C9
:102410006A077B07D8F28C850E946911DCCFCF93C5
:10242000FC01C08D80E591E00E942A0560E270E029
:102430008C2F0E944D1162E070E08C2F0E943011B1
:1024400084FD16C062E070E08C2F0E94301183FF83
:102450000AC048E162E070E08C2F0E94990480E09D
:1024600090E0CF91089580E591E00E942A05E3CFA6
:1024700040E162E070E08C2F0E94990481E0F0CF8F
:10248000CF93DF931F92CDB7DEB741E050E0BE019E
:102490006F5F7F4F90E080E00E94A51089810F90D0
:1024A000DF91CF910895CF93DF93C4E1D0E00E94F4
:1024B0004012882361F061E070E080E090E00E94CB
:1024C00065022197A1F780E0DF91CF91089581E027
:1024D000FBCF1F93CF93DF931F92CDB7DEB7182F9B
:1024E00080E591E00E942A05812F0E94500427E098
:1024F000129FF0011124E85DFC4F22813381377077
:1025000041E050E0BE016F5F7F4F820F931F0E943A
:10251000A51089810F90DF91CF911F910895FC0143
:10252000808D843040F4218D328D232B21F00E9448
:10253000691290E008958FEF9FEF0895CF93DF9396
:10254000FC012485243028F08FEF9FEFDF91CF919D
:102550000895EC010190F081E02D0084F185E02DDB
:102560000995892B89F38C850E94691290E0EECF42
:10257000DA01E091BE02F0E0FE2FEE27E60FF71F32
:1025800090E0982F8827A901BD018E0F9F1F0C9402
:10259000A5108F929F92AF92BF92CF92DF92EF924F
:1025A000FF921F93CF93DF93CDB7DEB72C970FB673
:1025B000F894DEBF0FBECDBF20914C0314E0222360
:1025C00029F16B017C0180E591E00E942A055E0102
:1025D00027E0A20EB11C450110E0812F0E9482115C
:1025E000F40181934F01882349F11F5F1430A9F74B
:1025F00010E0F50181915F018D31D9F08831C9F08A
:102600008A518230B0F01F5F143099F7812F2C96D9
:102610000FB6F894DEBF0FBECDBFDF91CF911F91F3
:10262000FF90EF90DF90CF90BF90AF909F908F90F2
:10263000089560E170E0812F0E944D11A12EB12C10
:10264000F501EE0FFF1FEC5BFC4F1182108283EE51
:1026500093E00197F1F742E870E060E0812F0E947B
:1026600099044FEF62E070E0812F0E949904B60157
:10267000C114D10491F48091060190910701019653
:102680008115F0EC9F0708F45CC0909307018093DC
:1026900006016091060170910701812F0E94840458
:1026A00086E0E6E1F1E0DE01119601900D928A9557
:1026B000E1F7F70183818F778C8384818D83858116
:1026C0008E83A7014E5F5F4F24E030E06CE070E046
:1026D000812F0E945E04B601812F0E946F0426E0C4
:1026E00030E0AE014F5F5F4F66E070E0812F0E94E7
:1026F0005E0461E070E0812F0E944D1127E02A9D69
:10270000C0012B9D900D11249C01285D3C4F790147
:10271000F9011182108222E030E0AE01455F5F4F87
:1027200068E270E0812F0E94B8128B859C85982703
:1027300089279827F7019383828316821582148252
:1027400065CF80E090ECA1CFCF92DF92EF92FF9225
:102750000F931F93CF93DF9300D000D000D0CDB75D
:10276000DEB78C016B017A01FC01808D843010F49E
:102770000E94691188EA91E09A838983F601828137
:102780009381A481B5818B839C83AD83BE83B70184
:10279000CE0101960E94C912F801808F8430A0F406
:1027A000F586E486128E118E81E026960FB6F89497
:1027B000DEBF0FBECDBFDF91CF911F910F91FF9074
:1027C000EF90DF90CF90089580E0EFCFAF92BF926F
:1027D000CF92DF92EF92FF920F931F93CF93DF93ED
:1027E00000D000D000D0CDB7DEB7082F6B0180E558
:1027F00091E00E942A059E012F5F3F4F7901590108
:1028000010E0812F0E948211F50181935F018823DE
:1028100041F11F5F1430A9F710E0F70181917F01AA
:102820008D31D1F08831C1F08A518230A8F01F5F1C
:10283000143099F7812F26960FB6F894DEBF0FBE9D
:10284000CDBFDF91CF911F910F91FF90EF90DF905F
:10285000CF90BF90AF90089560E170E0812F0E940B
:102860004D11E12EF12CF701EE0FFF1FEC5BFC4F39
:102870001182108283EE93E00197F1F7402F70E010
:1028800060E0812F0E9499044FEF62E070E0812F99
:102890000E949904B601CD2889F480910601909197
:1028A000070101968115F0EC9F0798F190930701BD
:1028B000809306016091060170910701812F0E94AB
:1028C000840461E070E0812F0E944D1127E02E9D6D
:1028D000C0012F9D900D11249C01285D3C4F790172
:1028E000F9011182108222E030E0AE014B5F5F4FB0
:1028F00068E270E0812F0E94B8128D819E81982736
:1029000089279827F7019383828316821582148280
:1029100091CF80E090ECCACFCF92DF92EF92FF92FE
:102920001F93CF93DF93EC017B016A018C85843088
:1029300048F40E948611882319F08C850E945D114D
:1029400084E08C87F70182819381A481B58100970F
:10295000A105B10551F490E080E0DF91CF911F9186
:10296000FF90EF90DF90CF9008958F3F9F4FAF4F34
:10297000BF4F89F380914C03811103C084E08C87A1
:10298000EACF70E060E081E20E94E613182F8C87A6
:10299000843008F780E591E00E942A05A7014E5F88
:1029A0005F4F24E030E06CE070E0812F0E945E0415
:1029B000B601812F0E946F0464E070E0812F0E94B5
:1029C0004D110E9497026B017C018C850E9486113B
:1029D000873109F18C31F9F0882309F4BCCF0E94CA
:1029E0009702AB01BC014C195D096E097F098D8509
:1029F0009E85B0E0A0E084179507A607B70738F0DA
:102A000061E070E080E090E00E946502DECF8C859E
:102A10000E946911B3CF81E090E09FCF0F931F9385
:102A2000CF93DF93EC018B01888D843010F40E94EA
:102A3000691180914C03811107C094E0988FDF9158
:102A4000CF911F910F910895B80182E00E94E61383
:102A5000888F843030F41D870C871A8E198E81E0A0
:102A6000EECF80E0ECCF0F931F93CF9320914C03D8
:102A7000222349F18C01FC016481758181E20E946D
:102A8000E613C82F8430F8F480E591E00E942A050F
:102A90008C2F0E948211833131F08C2FCF911F91A6
:102AA0000F910C945D1162E070E08C2F0E944D112B
:102AB000F80184819581EC2FF0E0EE0FFF1FEC5BB5
:102AC000FC4F91838083CF911F910F9108957F9246
:102AD0008F929F92AF92BF92CF92DF92EF92FF922E
:102AE0000F931F93CF93DF9300D0CDB7DEB7782E2F
:102AF0008B014A01590122E030E0AE014F5F5F4F88
:102B000064E270E00E94B812E980FA80FE24EF24AB
:102B1000FE24E00EF11E9701377040914C03072D03
:102B200010E0433309F042C0085F1F4F102F002709
:102B3000110F110F110FC901800F911F4733C9F1F8
:102B4000A9014A0D5B1D4130584098F160E078E0E2
:102B50006B01C21AD30AA601B4010E948D03A5011C
:102B60004C195D09B4016C0D7D1DC8010E948D03D7
:102B7000EA0CFB1CF982EA8222E030E0AE014F5FF2
:102B80005F4F64E270E0872D0E945E040F900F900B
:102B9000DF91CF911F910F91FF90EF90DF90CF9039
:102BA000BF90AF909F908F907F900895005F1F4FD0
:102BB000BDCFA501B401DACFEF92FF921F93CF935F
:102BC000DF9300D0CDB7DEB7182F22E030E0AE01A2
:102BD0004F5F5F4F60E270E00E94B812E980FA80B8
:102BE000FE24EF24FE2422E030E0AE014F5F5F4F71
:102BF00060E270E0812F0E94B81289819A81982743
:102C000089279827E816F90689F487E0189FF001CC
:102C10001124E85DFC4FF582E482C7010F900F900C
:102C2000DF91CF911F91FF90EF9008957C01DBCF52
:102C30001F93CF93DF93182F80E591E00E942A0520
:102C4000812F0E94DC15EC01812F0E9482118731B7
:102C500021F08C3111F0D0E0C0E0CE01DF91CF91B6
:102C60001F910895CF93DF93EC018C85843060F43D
:102C70000E948611873111F08C3131F48C850E94CD
:102C800018168115984088F3DF91CF910895FC01C3
:102C90008485843010F40C94181690E080E0089538
:102CA000CF92DF92EF92FF921F93CF93DF93182F73
:102CB0007B01EA014130584010F0C0E0D8E080E5E7
:102CC00091E00E942A05812F0E94DC156C01812F62
:102CD0000E948211873111F08C3121F5CC16DD066E
:102CE00070F380E591E00E942A059E01A70170E043
:102CF00060E0812F0E94671560E270E0812F0E94E2
:102D00004D1162E070E0812F0E94301184FD0DC0F2
:102D1000812F0E9482118823B9F080E591E00E9402
:102D20002A05EFCFD0E0C0E0DCCF40E162E070E008
:102D3000812F0E949904CE01DF91CF911F91FF90C6
:102D4000EF90DF90CF900895D0E0C0E0F4CF0F93E4
:102D50001F93CF93DF938C01EA01FC0184858430BB
:102D600048F40E945016892B39F481E090E0F80174
:102D700093838283D0E0C0E0CE01DF91CF911F9199
:102D80000F9108959F92AF92BF92CF92DF92EF92F0
:102D9000FF920F931F93CF93DF938C015B01942ECF
:102DA000E52EFC01C688D788F08C80E591E00E9472
:102DB0002A058F2D0E94DC15C92DDE2D8C179D074D
:102DC00008F4EC019E01A501B6018F2D0E94671544
:102DD000F801868997898C0F9D1F978B868BCE0172
:102DE000DF91CF911F910F91FF90EF90DF90CF90E7
:102DF000BF90AF909F900895FF920F931F93CF9332
:102E0000DF9300D0CDB7DEB7F82E22E030E0AE0180
:102E10004F5F5F4F66E270E00E94B81209811A812D
:102E200010270127102722E030E0AE014F5F5F4FEF
:102E300066E270E08F2D0E94B81289819A819827EE
:102E4000892798270817190749F4C8010F900F9090
:102E5000DF91CF911F910F91FF9008958C01E3CFE7
:102E60001F93CF93DF93182F87E0189FE001112461
:102E7000C85DDC4F88819981009761F480E591E01D
:102E80000E942A05812F0E94FC162E81821B910927
:102E900099838883DF91CF911F910895AF92BF925C
:102EA000CF92DF92EF92FF920F931F93CF93DF9316
:102EB000EC017B0180914C03811120C01B821A829E
:102EC00088EE93E0A0E0B0E08C839D83AE83BF8367
:102ED00080E291E09983888384E08C8788EE93E098
:102EE0009E878D87CE01DF91CF911F910F91FF902B
:102EF000EF90DF90CF90BF90AF90089584E4C82EFC
:102F000083E0D82E10E094E0B92EA12CD6012D91AB
:102F10003D916D01F701848195812817390791F45E
:102F2000812F0E948611082F873111F08C3139F5DD
:102F3000812F0E943017892B59F50C3119F4812FFC
:102F40000E945D111F5F143009F7A11008C0D7015E
:102F5000ED91FC910084F185E02DC70109951B825C
:102F60001A8288EE93E0A0E0B0E08C839D83AE836C
:102F7000BF8380E291E099838883BC86AFCF8431A0
:102F800049F08111DFCFF601329711821082DACF3A
:102F9000B12ED8CFAA24A394D5CF8F929F92AF926F
:102FA000BF92CF92DF92EF92FF921F93CF93DF9366
:102FB000CDB7DEB72F970FB6F894DEBF0FBECDBFEB
:102FC0005C014B017A0180914C038823A1F1B5018A
:102FD000CE0101960E944E1784E4C82E83E0D82EBD
:102FE00010E0F601219131916F01F5018481958105
:102FF0002817390751F4812F0E948611873129F44F
:10300000A701B401812F0E9450161F5F143049F7A9
:10301000C7012F960FB6F894DEBF0FBECDBFDF916C
:10302000CF911F91FF90EF90DF90CF90BF90AF9026
:103030009F908F900895F12CE12CEACFFC018485BC
:10304000843010F40C94301790E080E008954F9293
:103050005F927F928F929F92AF92BF92CF92DF92B8
:10306000EF92FF920F931F93CF93DF9300D0CDB7D2
:10307000DEB7782E6B014A01A82EB12C27E0829F83
:10308000C0011124FC01E85DFC4F7F01008111812A
:1030900080E591E00E942A050815190554F4872D52
:1030A0000E94FC16F70126818C01021B1109118375
:1030B00000830115110519F5872D0E9482118431B5
:1030C00059F0882349F001E010E08C3111F410E050
:1030D00000E0119501951109C8010F900F90DF9143
:1030E000CF911F910F91FF90EF90DF90CF90BF9005
:1030F000AF909F908F907F905F904F900895801633
:1031000091060CF4840187E08A9DF0018B9DF00DFF
:103110001124E85DFC4FE280F380C114D10451F129
:103120002701F7E05F22872D0E945004840D951D32
:1031300020914C03273309F453C09801240D351D09
:103140002130384008F44CC020E038E049018418B0
:103150009508A401B6010E94A5102601480C591C2F
:103160006801C818D908872D0E945004A601B20131
:103170000E94A510E00EF11E87E08A9DF0018B9D54
:10318000F00D1124E85DFC4FF382E2822081318151
:10319000201B310B318320838681800F912F911D5D
:1031A0008A3F910510F4232BF1F487E08A9DF0010A
:1031B0008B9DF00D1124E85DFC4F1682F982EA82A6
:1031C00022E030E0AE014F5F5F4F68E270E0872D94
:1031D0000E945E0460E470E0872D0E944D117CCF58
:1031E000A801B601C5CF868377CFCF93DF93FC01CB
:1031F000218D328D2115310529F48FEF9FEFDF915D
:10320000CF910895EC01808D4217530708F0A90172
:103210000E9427181816190684F7298D3A8D281B45
:10322000390B3A8F298FEBCF0F931F93CF93DF93F7
:103230001F92CDB7DEB7FC01218D328D232B41F4D7
:103240008FEF9FEF0F90DF91CF911F910F91089516
:103250008C0141E050E0BE016F5F7F4FFC01808D2B
:103260000E942718181619065CF7F801818D928DB7
:103270000197928F818F898190E0E4CFCF93DF9384
:103280001F92CDB7DEB741E050E0BE016F5F7F4FC8
:10329000FC0184850E9427181816190634F48981C8
:1032A00090E00F90DF91CF9108958FEF9FEFF9CFCE
:1032B000FC018485843010F40C94271890E080E0A1
:1032C00008950F931F93CF93DF9300D0CDB7DEB750
:1032D000FC0124852430E0F48C0180E591E00E941B
:1032E0002A0522E030E0AE014F5F5F4F60E170E001
:1032F000F80184850E94B81289819A8198278927CC
:1033000098270F900F90DF91CF911F910F91089503
:1033100090E080E0F6CF0F931F93CF93DF9300D020
:10332000CDB7DEB7FC0124852430E0F48C0180E5C4
:1033300091E00E942A0522E030E0AE014F5F5F4F2E
:1033400064E070E0F80184850E94B81289819A8156
:103350009827892798270F900F90DF91CF911F9181
:103360000F91089590E080E0F6CFAF92BF92CF9298
:10337000DF92EF92FF920F931F93CF93DF93CDB71E
:10338000DEB72B970FB6F894DEBF0FBECDBF6C0132
:10339000FE013196CE010C967F0120E22193E817C1
:1033A000F907E1F7DA0120E037E09D91B92E992382
:1033B000A9F19E32B9F43A3091F480E02B960FB621
:1033C000F894DEBF0FBECDBFDF91CF911F910F915B
:1033D000FF90EF90DF90CF90BF90AF90089528E0DE
:1033E0003AE0E3CFE2ECF0E08491882321F03196DB
:1033F0009813FACFE2CF321700F38FED890F8E3595
:10340000E0F68FE9890F8A3118F440EEB42EB90E38
:10341000F701E20FF11DB0822F5FC7CF89818032A3
:1034200061F28B01FB01838D948DF601948F838F64
:10343000FB01168217821086118612861386148667
:103440001586F80182859385A485B58543895489BD
:103450006589768984179507A607B70708F0ADCF69
:1034600025E0B695A795979587952A95D1F7F82FDA
:10347000FF70AF2EF8018581823008F49ECFC8011D
:103480000E94E80B97FD99CFF80182859385A4856A
:10349000B5854F96A11DB11D82879387A487B587F7
:1034A000F0E2AF9EB0011124605B7C4F61157105A5
:1034B00009F483CFFB018081882309F1853E19F44B
:1034C000B11032C01EC04BE050E0C7010E94842CF6
:1034D000892B09F0B6CF6A2DC6012B960FB6F8944A
:1034E000DEBF0FBECDBFDF91CF911F910F91FF9037
:1034F000EF90DF90CF90BF90AF900C944910B11037
:103500005CCFF601A28A8091080190910901A091F7
:103510000A01B0910B0186879787A08BB18BFB01C5
:103520008081882309F449CFBB24B3948ACFDC017E
:1035300088EA91E08D939D9384E0FB0101900D92C8
:103540008A95E1F70895EF92FF920F931F93CF931F
:10355000DF9300D000D0CDB7DEB78C017B01FB013B
:1035600084858430A8F088EA91E0F8019183808313
:103570001282138214821582C8010F900F900F904F
:103580000F90DF91CF911F910F91FF90EF900895D1
:1035900080E591E00E942A0524E030E0AE014F5F13
:1035A0005F4F6CE070E0F70184850E94B812BE01A5
:1035B0006F5F7F4FC8010E94971ADECF0F931F9352
:1035C000CF93DF93CDB7DEB728970FB6F894DEBF61
:1035D0000FBECDBF8C01D80159964D915C915A9781
:1035E0004115510551F0ED91FC91048CF58DE02DC4
:1035F00070E060E0C8010995EECFF801808D0E946F
:103600003017892BB1F148E050E0BE016F5F7F4F6A
:10361000D80158968C910E94271818161906F4F4B0
:10362000D801509684E0FE01319601900D928A9562
:10363000E1F78D8190E0982F88272E81820F911DD0
:10364000F801958B848B8F81282F30E0322F222731
:103650008885820F932F911D928F818F28960FB6A8
:10366000F894DEBF0FBECDBFDF91CF911F910F91B8
:10367000089590E080E0F2CF4F925F926F927F9238
:103680008F929F92AF92BF92CF92DF92EF92FF9272
:103690000F931F93CF93DF93CDB7DEB763970FB62A
:1036A000F894DEBF0FBECDBF7C016B013A01FB0178
:1036B00020E090E080E06AE03191332309F461C0BA
:1036C00040ED430F4A3008F04DC0689FA001699F4C
:1036D000500D1124CA01C097830F911D37FD9A9593
:1036E0008F3F910549F340F3F70142815381648193
:1036F00075818091640690916506A0916606B091EF
:103700006706481759076A077B0709F40DC2870146
:10371000085F1F4F0E9497026F7077277C5FC80178
:103720000E940E15813009F004C288EA91E09A8364
:103730008983F70182819381A481B5818B839C83E6
:10374000AD83BE8345E350E0BE016F5F7F4FC8018C
:103750000E94B90F892BA9F5D12CC12CC8010E9458
:10376000751117C03E3209F0BFCF233009F4BCCF2A
:10377000D301A20FB11D12968C932F5F90E080E0D1
:103780009BCF233009F0B0CFF3018583CC24C394C1
:10379000D12CC60163960FB6F894DEBF0FBECDBF25
:1037A000DF91CF911F910F91FF90EF90DF90CF901D
:1037B000BF90AF909F908F907F906F905F904F9051
:1037C00008950E949702F7017783668342E050E0F4
:1037D000B7016A5F7F4FC8010E94C21681E090E086
:1037E0009A83898342E050E0BE016F5F7F4FC8013A
:1037F0000E94C21680E091E09A83898342E050E003
:10380000BE016F5F7F4FC8010E94C2161A821982E3
:1038100042E050E0BE016F5F7F4FC8010E94C216B8
:1038200042E050E0BE016F5F7F4FC8010E94C216A8
:1038300042E050E0BE016F5F7F4FC8010E94C21698
:103840005601F6018081882301F16501F60181911D
:103850002F01882311F08E32B1F446018A189B089B
:103860001814190474F48D8641E050E0BE01635FC2
:103870007F4FC8010E94C216A401B501C8010E9471
:10388000C2165201DECF6201E1CF1D8641E050E059
:10389000BE01635F7F4FC8010E94C216C12CDD24A8
:1038A000D394DA82C98242E050E0BE016F5F7F4F5D
:1038B000C8010E94C216DA82C98242E050E0BE010D
:1038C0006F5F7F4FC8010E94C216C8010E940F128D
:1038D000892B09F441CFF3E0AF2EB12C230122E074
:1038E000420E511CD4C0F70142815381648175811D
:1038F000808D918DA28DB38D481759076A077B077C
:1039000009F008C1848D958DC59709F003C181A187
:1039100092A15DEFC52EDD24DA940C970CF4ADC0B6
:103920004CE050E0BE016F5F7F4FC8010E94F51868
:103930008B819C819827892798279A8B898BF701FF
:103940004681578129813A814217530709F0E7C020
:1039500097FFE5C08F7092703BEFC32EDD24DA94A1
:10396000892B09F08AC06F807884762467247624B6
:103970002AEFC22EDD24DA946114710409F47DC0AB
:10398000D12CC12C8D819E81982789279827C81614
:10399000D906F8F441E050E0BE01635F7F4FC801F3
:1039A0000E94F5184D85442331F050E070E060E04E
:1039B000C8010E94F5188D858111ECCF44E050E0DC
:1039C00070E060E0C8010E94F518FFEFCF1ADF0A2F
:1039D000D9CF912C812C41E050E0BE016D5E7F4F2C
:1039E000C8010E94F5184B89842F807C09F06CC0B7
:1039F000442331F050E070E060E0C8010E94F51807
:103A00008B898111E8CF42E050E0BE01615F7F4FBA
:103A1000C8010E94F51842E050E0BE01635F7F4F8D
:103A2000C8010E94F51844E050E070E060E0C80171
:103A30000E94F51842E050E0BE016F5E7F4FC80162
:103A40000E94F5188F85988949895A898115914076
:103A500009F043C0CD84DE84DC24CD24DC2481E065
:103A6000C816D104D1F54115544009F04AC044E0CC
:103A700050E0B201C8010E94F51821E0A21AB10875
:103A800009F46CCEFFEFCF16DF0609F067CE0E9477
:103A900097023B014C01C8010E94DE1A1816190654
:103AA0000CF421CF0E9497026619770988099909B9
:103AB000693873418105910548F562E370E080E063
:103AC00090E00E946502E7CF41E050E070E060E0E6
:103AD000C8010E94F5181B8A93CF54274527542705
:103AE00070E060E0C8010E94F518FFEF8F1A9F0A8E
:103AF0006814790409F06FCF96EFC92EDD24DA94AB
:103B0000BCCFE7EFCE2EDD24DA94B7CFCC24CA9415
:103B1000DC2CB3CF6EEFC62EDD24DA94AECF4CEFA3
:103B2000C42EDD24DA94A9CF8EEFC82EDD24DA94DA
:103B300030CED12CC12C2DCECF92DF92EF92FF92BE
:103B40000F931F93CF93DF93CDB7DEB7AF970FB629
:103B5000F894DEBF0FBECDBF7C016A0108EA11E018
:103B60001A8309831C861B8688EE93E0A0E0B0E0F0
:103B70008D879E87AF87B88B8EE491E09A8789877F
:103B8000188F0F8B198E1A8E1B8E1C8E84E089A3C2
:103B90001BA70AA71CA61DA61EA61FA68091580635
:103BA00090915906A0915A06B0915B068EA39FA3EF
:103BB000A8A7B9A78B839C83AD83BE8318861F8279
:103BC000AE01465D5F4FCE0101960E943C1B8130E5
:103BD0009105B1F4D701ED91FC910488F589E02DB0
:103BE0001DA30CA38CA59DA5AEA5BFA58EA39FA3C9
:103BF000A8A7B9A7A601BE016C5D7F4FC7010995B3
:103C0000AF960FB6F894DEBF0FBECDBFDF91CF9158
:103C10001F910F91FF90EF90DF90CF900895CF927A
:103C2000DF92EF92FF920F931F93CF93DF93CDB765
:103C3000DEB7AF970FB6F894DEBF0FBECDBF8C01D5
:103C40006B017A0188EA91E09A8389831B821C8246
:103C50001D821E821C861B8648EE53E060E070E0E9
:103C60004D875E876F87788B2EE431E03A8729870E
:103C7000988F8F8B198E1A8E1B8E1C8E24E029A391
:103C80009BA78AA71CA61DA61EA61FA6D8011C9628
:103C90008C91843060F40E948611882321F0F80111
:103CA00084850E945D1184E0D8011C968C938091DC
:103CB000580690915906A0915A06B0915B068EA3C2
:103CC0009FA3A8A7B9A78B839C83AD83BE831886C7
:103CD0001F82AE01465D5F4FB601CE0101960E9484
:103CE0003C1B0097C1F0D801ED91FC910684F7854B
:103CF000E02D88EA91E09DA38CA38CA59DA5AEA59F
:103D0000BFA58EA39FA3A8A7B9A7A701BE016C5DFD
:103D10007F4FC8010995AF960FB6F894DEBF0FBE6E
:103D2000CDBFDF91CF911F910F91FF90EF90DF906A
:103D3000CF9008953F924F925F926F927F928F92B1
:103D40009F92AF92BF92CF92DF92EF92FF920F932A
:103D50001F93CF93DF93CDB7DEB7EA970FB6F894F2
:103D6000DEBF0FBECDBF7C012A013B0169010E946D
:103D700097024B015C0187010D5B1F4FC8010E9438
:103D8000DE1A181619069CF00E9497026819790924
:103D90008A099B09461657066806790608F466C123
:103DA00062E370E080E090E00E946502E7CF42E2CB
:103DB00050E0BE016F5F7F4FC8010E94F5188981F6
:103DC0008230D1F0312C832DEA960FB6F894DEBF05
:103DD0000FBECDBFDF91CF911F910F91FF90EF905C
:103DE000DF90CF90BF90AF909F908F907F906F901B
:103DF0005F904F903F900895F801848995898334AE
:103E0000910501F76D817E818F8198850E94522BEB
:103E10004B015C01F60180829182A282B38246E06E
:103E200050E0B701685F7F4FCE014D960E94842C11
:103E3000892B41F6F70180819181A281B381881697
:103E40009906AA06BB0608F4BDCF84819581A68198
:103E5000B78188159905AA05BB0508F4B3CF8989F0
:103E60009A89AB89BC8986879787A08BB18B4EECEA
:103E700050E070E060E0C8010E94F518312CC701E5
:103E8000829698AB8FA7F701B696FAABE9AB089686
:103E90009CAB8BAB67019AE1C90ED11CBD96FEAB02
:103EA000EDABC701429698AF8FABFD97FAAFE9AF84
:103EB0004701FEE18F0E911CF801818D928D18163D
:103EC00019060CF080CFC8010E94141983339105A4
:103ED00009F4B2C014F58130910509F464C044F4CA
:103EE000892B51F3C8010E941419AC01552775C0E4
:103EF0008330910509F462C00697A1F7C8010E94BA
:103F00001419B82E44E050E0B401C8010E94F5181D
:103F1000EB2DE450FF0BAF0160C08A33910509F42B
:103F20005FC084F585339105B1F1C697D9F6C80114
:103F30000E9414195C01B601CE0189960E94971A5D
:103F40008BA59CA5ADA5BEA5892B8A2B8B2BB1F08B
:103F5000EDA9FEA94080518062807380B601CE0138
:103F600083960E94971A8DA19EA1AFA1B8A5A50125
:103F7000481659066A067B0609F0B8CF44E050E0BF
:103F8000B60118C08B33910509F440C08F3F9105ED
:103F900009F492CFA7CFC8010E941419C8010E944A
:103FA0001419382E89CFC8010E94141944E050E03A
:103FB0006FA978ADC8010E94F5187ECFC8010E9494
:103FC0001419B82E44E050E069AD7AADC8010E94E2
:103FD000F5188B2D8450990BAC0170E060E0EACFAE
:103FE000C8010E94141944E050E069A97AA9C801E7
:103FF0000E94F518F70166A177A180A591A50E94FE
:10400000522B66A377A380A791A756CFC8010E9421
:10401000141944E050E06BA97CA9C8010E94F5186E
:10402000F70162A573A584A595A50E94522B62A7EE
:1040300073A784A795A740CFC8010E94141944E034
:1040400050E06FA578A9C8010E94F518F70162A198
:1040500073A184A195A10E94522B62A373A384A390
:1040600095A366A777A780AB91AB26CF33243A946C
:10407000AACEFB0101900020E9F73197AF01461B62
:10408000570BDC01ED91FC910280F381E02D099446
:104090008F929F92AF92BF92EF92FF920F931F93D6
:1040A000CF93DF93CDB7DEB7A1970FB6F894DEBFFD
:1040B0000FBECDBF7C01FA01CB0119A2223008F45A
:1040C0002AE08E010F5D1F4F822E912CB12CA12C66
:1040D000BF01A50194010E94212BF901CA016A3098
:1040E0000CF5605DD8016E938D01232B242B252BBD
:1040F00079F790E080E0109721F0BD01C7010E94A0
:104100003920A1960FB6F894DEBF0FBECDBFDF9168
:10411000CF911F910F91FF90EF90BF90AF909F9024
:104120008F900895695CDECF8F929F92AF92BF927D
:10413000CF92DF92EF92FF920F931F93CF93DF9373
:104140007C01EB016C0182E0C80ED11C4701E5E067
:104150008E0E911C10E000E0F60141916F0150E0DD
:1041600070E060E02AE0CE010E9448205C01E88116
:10417000F9810190F081E02D6EE2CE0109958A0D62
:104180009B1D080F191FC814D90431F7F701458189
:1041900050E070E060E02AE0CE010E944820800FED
:1041A000911FDF91CF911F910F91FF90EF90DF90C2
:1041B000CF90BF90AF909F908F9008950F931F93D3
:1041C000CF93DF93EC010E9439208C016AEB71E000
:1041D000CE010E943920800F911FDF91CF911F9156
:1041E0000F910895EF92FF920F931F93CF93DF9358
:1041F000EC017B018A011B821A8288EE93E0A0E029
:10420000B0E08C839D83AE83BF8386E991E0998380
:1042100088838DE190E00E945F2B9A8F898F0097B1
:1042200079F02DE1F701DC0101900D922A95E1F77B
:104230004CE050E0B801CE010C960E949F2C188EE5
:10424000DF91CF911F910F91FF90EF9008957F9292
:104250008F929F92AF92BF92CF92DF92EF92FF9296
:104260000F931F93CF93DF93CDB7DEB7A6970FB60B
:10427000F894DEBF0FBECDBF8C01762E942E852E16
:1042800020E2A22ECE0101967C01DC01EA2D1D92D6
:10429000EA95E9F76801F3E4CF0ED11C88EA91E0D2
:1042A0009AA389A38FEF8BA38CA38DA38EA343E442
:1042B00050E0BE016F5D7F4FC6010E94B90F0196AD
:1042C00009F4BFC081E089838A8386E0B82EBB826F
:1042D0001C82D80114966D917D918D919C911797B8
:1042E0000E94522B6D837E838F83988789869A865E
:1042F00080E890E09C878B874CE150E0B701C601D5
:104300000E94C216FE0137968AE1DF011D928A954E
:10431000E9F74801B8E08B0E911CF401D701019038
:104320000D92BA94E1F740E150E0B701C6010E9456
:10433000C216F7011192AA94E9F796E0A92EB12CC2
:1043400040E250E0B701C6010E94C216F1E0AF1A88
:10435000B108B1F783E6898392E89A8393E59B835A
:104360008C8385E38D8381E08E837F829DE39887B4
:1043700097E099878A8786E0F401DE011B96019019
:104380000D928A95E1F78CE0898B8A8B6DEB71E059
:10439000CE0143960E94982CD8011B966C91CE01B9
:1043A00049960E949400F8016485CE014B960E94C4
:1043B0009400D8011D966C91CE014D960E949400F8
:1043C0004EE150E0B701C6010E94C216B3E07B1275
:1043D0001EC082E3898384E08A83F80196859B83EB
:1043E00097859C8390899D8391899E8396E39F8383
:1043F0008887828D8987838D8A87848D8B87858D39
:104400008C874CE050E0B701C6010E94C21687E3DA
:10441000898386E08A8391E09B8393E09C838D83EC
:104420008FE08E838AE38F838BE388878FEF898782
:1044300049E050E0B701C6010E94C216C6010E94C1
:104440000F12A6960FB6F894DEBF0FBECDBFDF9158
:10445000CF911F910F91FF90EF90DF90CF90BF9081
:10446000AF909F908F907F9008951F920F920FB6FC
:104470000F9211242F933F934F935F936F937F93EA
:104480008F939F93AF93BF93EF93FF9380E595E056
:104490000E942901FF91EF91BF91AF919F918F9160
:1044A0007F916F915F914F913F912F910F900FBE30
:1044B0000F901F9018951F920F920FB60F92112414
:1044C0002F938F939F93EF93FF93E0916005F0916B
:1044D00061058081E0916605F091670582FD1BC052
:1044E0009081809169058F5F8F7320916A05821793
:1044F00041F0E0916905F0E0E05BFA4F958F809321
:104500006905FF91EF919F918F912F910F900FBEB1
:104510000F901F9018958081F4CF1F920F920FB6C5
:104520000F9211242F933F938F939F93AF93BF9339
:104530008091B3029091B402A091B502B091B602FD
:104540003091B20223E0230F2D3758F50196A11DBB
:10455000B11D2093B2028093B3029093B402A09352
:10456000B502B093B6028091B7029091B802A091C3
:10457000B902B091BA020196A11DB11D8093B70294
:104580009093B802A093B902B093BA02BF91AF91D1
:104590009F918F913F912F910F900FBE0F901F9081
:1045A000189526E8230F0296A11DB11DD2CFE0E594
:1045B000F5E01382128248EE53E060E070E044833D
:1045C00055836683778388E791E09183808385ECC8
:1045D00090E09587848784EC90E09787868780ECCD
:1045E00090E0918B808B81EC90E0938B828B82ECBE
:1045F00090E0958B848B86EC90E0978B868B118E68
:10460000128E138E148EEDEEF5E080E5808311821C
:10461000EFEEF5E0158216821186138682E090E0B7
:10462000A0E0B0E084879587A687B78713A215A678
:1046300014A68AE891E093A782A717A6E8E3F6E01C
:1046400088EA91E09183808312821382148215821A
:10465000EEE3F6E091838083128213821482158246
:10466000E4E4F6E09183808312821382148215823F
:10467000EAE4F6E091838083128213821482158229
:10468000E0E5F6E091838083128213821482158222
:10469000ECE5F6E091838083128213821482158206
:1046A000E6E5F6E0918380831282138214821582FC
:1046B000E2E6F6E0918380831282138214821582EF
:1046C000E8E6F6E0918380831282138214821582D9
:1046D000EFE8F6E0918380831282138214821582C0
:1046E000E9E8F6E0138212828EEA91E091838083FA
:1046F00080E590E095838483EEE6F6E013821282F3
:10470000448355836683778386E991E09183808330
:10471000128E118E14860895CF93DF93CDB7DEB736
:10472000C558D1090FB6F894DEBF0FBECDBF78943F
:1047300084B5826084BD84B5816084BD85B58260A6
:1047400085BD85B5816085BD80916E008160809357
:104750006E001092810080918100826080938100C0
:1047600080918100816080938100809180008160D0
:10477000809380008091B10084608093B10080912B
:10478000B00081608093B00080917A008460809353
:104790007A0080917A00826080937A0080917A001A
:1047A000816080937A0080917A00806880937A009B
:1047B0001092C1008091200381112AC01092080339
:1047C0001092070388EE93E0A0E0B0E08093090325
:1047D00090930A03A0930B03B0930C038EE491E033
:1047E000909306038093050388EA91E09093140365
:1047F000809313031092150310921603109217035F
:104800001092180384E080931D0381E080932003BD
:1048100082EC92E09093C1028093C0028091BF022B
:10482000811179C060E372E080E090E00E9465024F
:104830000E940F10E0E9F0E0E491F0E0EE0FFF1FBE
:10484000EE58FF4F859194919093BD028093BC02E6
:10485000E4EAF0E0E491E093BB0261E08AE00E94C8
:104860000F020E94530380E591E00E942A0584E331
:1048700080934C0380E80E943D040E9453128823D9
:1048800009F491C188E00E943D040E9440128830E2
:1048900009F089C180E10E943D040E9440128031EC
:1048A00009F081C180E00E943D040E944012182F4F
:1048B000811179C141E050E0BE016F5F7F4F8FE110
:1048C00090E00E94A5108981833009F06CC180E4DA
:1048D0008093BE0242E06EE170E0812F0E94990455
:1048E00042E06FE170E0812F0E9499041F5F143055
:1048F00089F740E06EE170E0812F0E94990440E06A
:104900006FE170E0812F0E9499041F5F183089F7D2
:1049100081E08093BF0280E591E00E942A0546E095
:1049200050E060E071E089E090E00E948D0388EA49
:1049300091E09A8389831B821C821D821E8244E03F
:1049400050E0BE016D5F7F4F8FE090E00E948D03CD
:104950000091C0021091C102D80192961D921D9241
:104960001D921C929597F80116A217A210A611A6E7
:104970009A961D921D921D921C929D9780E69AEE2A
:10498000A0E0B0E086AB97ABA0AFB1AF80EA9FE00C
:10499000A0E0B0E082AF93AFA4AFB5AF3E9684E1A4
:1049A000DF011D928A95E9F786E0E0E0F1E0D801A9
:1049B000189601900D928A95E1F7F801EE5BFF4F92
:1049C000CC57DF4FF983E883C458D04010820E944F
:1049D000972A2FEC37E040E050E00E94EF2ADC01FC
:1049E000CB010196A11DB11DF80184839583A68397
:1049F000B78380839183A283B3835801F3E4AF0E1E
:104A0000B11CC5010E94751164E470E0C5010E94EB
:104A10000E15882309F438C10E9497022B013C012E
:104A200048EEC42E43E0D42EE12CF12C52E0252E8A
:104A3000912C812CCC57DF4FA881B981C458D0402C
:104A40008C918330E1F1811123C2F8018481958139
:104A5000A681B7810196A11DB11D84839583A6838C
:104A6000B7830E9497026419750986099709A701FF
:104A700096010E94212BA90161E0C8010E94272113
:104A800081E0CC57DF4FA881B981C458D0408C93C6
:104A9000F1E08F16910471F20E9497026419750972
:104AA00086099709D801D6962D913D914D915C913B
:104AB000D997261737074807590708F0B9CFC50116
:104AC0000E947511F80184819581A681B7810196B4
:104AD000A11DB11D84839583A683B7830E9497028D
:104AE000F801FE9660837183828393838A94892878
:104AF00009F0CAC080E591E00E942A050091C00239
:104B00001091C102B801625F7F4FCE0101960E94F1
:104B1000971A44E050E0BE016D5F7F4F8FE090E058
:104B20000E948D03B8016A5E7F4FCE0101960E94FC
:104B3000971A44E050E0BE016D5F7F4F81E090E046
:104B40000E948D03B8016E5E7F4FCE0101960E94D8
:104B5000971A44E050E0BE016D5F7F4F85E090E022
:104B60000E948D03B801625E7F4FCE0101960E94C4
:104B7000971A8B819C81AD81BE818093580690935A
:104B80005906A0935A06B0935B060E9440027F73B9
:104B9000809106019091070168277927709307019A
:104BA0006093060171C087E380934C0380E80E9404
:104BB0003D040E945312882329F188E00E943D049D
:104BC0000E9440128830F1F480E10E943D040E946E
:104BD0004012182F8031B1F480E00E943D040E9401
:104BE000401281110FC041E050E0BE016F5F7F4F66
:104BF00089E390E00E94A5108981843019F4109314
:104C0000BE0286CE83E380934C0380E80E943D047D
:104C10000E9453128823B1F180E10E943D040E945A
:104C20004012803179F582E10E943D040E944012D9
:104C3000823141F580E00E943D040E9440128111C2
:104C400021C084E08093BE0215E5CD57DF4F188365
:104C5000C358D04041E050E0BE016D577F4F8BE11B
:104C600090E00E948D03CE57DF4F1883C258D0408A
:104C700041E050E0BE016E577F4F8AE190E00E9414
:104C80008D0346CE10924C0389E896E00E943315BE
:104C9000E0916005F091610582E08083E0915C0520
:104CA000F0915D051082E0915E05F0915F058FEC5B
:104CB000808310926805E0916405F091650586E0B7
:104CC0008083E0916205F09163058081806180833B
:104CD000E0916205F0916305808188608083E091B6
:104CE0006205F0916305808180688083E0916205B0
:104CF000F091630580818F7D808388EA91E09A83BB
:104D000089831B821C821D821E8280E591E00E94A5
:104D10002A0544E050E0BE016D5F7F4F8FE090E0D8
:104D20000E94A51060E575E0CE0101960E949420D6
:104D30006AEB71E080E595E00E94392064EC71E057
:104D400080E595E00E94DE2080911E06882321F0F8
:104D500089E196E00E94DA0D1092FA051092F805AA
:104D60001092F5051092F40584E08093F3050E94FB
:104D700097028B0161E08091F3050E940F0261E0D0
:104D80008091F3050E94E1010E940F1082E580935B
:104D9000ED051092EE058091ED059091EE050E94D3
:104DA0002A056AE0F62E8FEF0E946803FA94F1104C
:104DB000FACF8FEE95E00E942D0520E030E0A901AA
:104DC00060E08FEE95E00E944305F82E8093F90590
:104DD00081E0F81609F43BC10E949702601B710B39
:104DE000613D774050F381E08093F4058FEE95E0CC
:104DF0000E941F056BEF71E080E595E00E94DE20C8
:104E000038EE832E33E0932EA12CB12C0AE811E06A
:104E100096E9C92E91E0D92E21EBE22E20E0F22E68
:104E200069E876E0CE018D589F4F0E944E17C15819
:104E3000DF4F8881CF57D040843008F416C2F70185
:104E40008491EDE9F0E07490E9E8F0E06490662088
:104E500079F081110E94B801E62DF0E0EE0FFF1FFE
:104E6000E458FF4FA591B491EC917E2260E009F4E3
:104E700061E08DE00E94E10180E090E0892B81F209
:104E80000E941501882309F4C3CF0E940000C0CFFF
:104E9000843019F5F80184819581A681B781019646
:104EA000A11DB11D84839583A683B7830E949702B9
:104EB0006419750986099709A70196010E94212B9B
:104EC000A90163E0C8010E942721CC57DF4FA881C8
:104ED000B981C458D0402C92DBCD813079F5F801EE
:104EE00042AD53AD64AD75AD9E012F5F3F4FC8011C
:104EF0000E949A1E382EF2E08F139EC089819A81FB
:104F0000AB81BC81F80184839583A683B7830E941B
:104F100097026419750986099709A70196010E94ED
:104F2000212BA90163E0C8010E942721CC57DF4F44
:104F3000A881B981C458D0403C92AACD823009F0F2
:104F4000A7CDF80142AD53AD64AD75AD9E012F5FA5
:104F50003F4FC8010E949A1E382EF5E08F1361C0A2
:104F6000E3E0CC57DF4FA881B981C458D040EC931F
:104F7000F80182A193A1A4A1B5A1892B8A2B8B2B27
:104F800041F484E893E0A0E0B0E082A393A3A4A35B
:104F9000B5A3F80186A197A1A0A5B1A5892B8A2B5D
:104FA0008B2B61F482A193A1A4A1B5A1B695A7957D
:104FB0009795879586A397A3A0A7B1A7F80182A587
:104FC00093A5A4A5B5A5892B8A2B8B2BA9F482A127
:104FD00093A1A4A1B5A1AC01BD0123E0769567958D
:104FE000579547952A95D1F7841B950BA60BB70BC0
:104FF00082A793A7A4A7B5A7F80186A197A1A0A50A
:10500000B1A586A797A7A0ABB1AB82A593A5A4A590
:10501000B5A582AB93ABA4ABB5AB88248394912C9C
:1050200037CDF6E08F1308C0CC57DF4FA881B98188
:10503000C458D0401C922CCDBFEF3B1229CDCC5789
:10504000DF4FE881F981C458D040108221CD2AEA8F
:1050500031E040E050E068E08FEE95E00E944305CB
:1050600082FF2AC0F092FA058091FA05C12CD12C5A
:10507000E12C40E4F42E823019F0C12CD12C7601C1
:1050800020E030E0A90167E38FEE95E00E94430540
:10509000A701960169E28FEE95E00E944305809397
:1050A000F9058823D1F00E949702601B710B613DC6
:1050B000774030F388E098CE54E0F52E0E946F03DD
:1050C0008093F905FA94F110F9CF8A3A11F082E051
:1050D0008BCE82E08093FA05C7CF8091FA058230AB
:1050E000D1F420E030E0A9016AE38FEE95E00E9460
:1050F0004305882311F086E077CE0E946F03807C01
:10510000803C19F483E08093FA050E946F030E94AB
:105110006F030E946F038FEE95E00E941F0580E5EC
:105120008093ED051092EE0581E00E9449078823E7
:1051300009F471C089E196E00E94000A882309F40D
:1051400059CE6CED71E080E595E00E94DE201EAE48
:105150001DAE8AE891E09CAF8BAF21961FAE2197E0
:1051600019A218A29F8F8E8F1BA2912C812C7E01D9
:10517000BBE3EB0EF11C09E116E05C01892D982DD3
:10518000FC01EE5DFD4F20812F3209F40196DC0118
:10519000AE5DBD4FFE01E85AFF4F30E020E06F01E9
:1051A0004D914F3249F0442339F001962F5F3F4F24
:1051B00041932C303105A1F72C0D3D1DF9011082D2
:1051C000FC01EE5DFD4F20812F3209F40196982EEF
:1051D000892E8E5D9D4FDC017C901C821B82BA82E1
:1051E000A9821E82A601B801CE0101960E94B519BE
:1051F000882309F435C1CE0101960E94DA0D7110A1
:1052000011C086E00931180719F0C8010E94DA0DB3
:1052100061E572E01DC080E00E944907882309F41F
:10522000E9CD88CFF701858181112FC1A601B80191
:10523000C7010E94B519D82EF6E009311F0709F4FD
:1052400018C1C8010E94DA0DD11019C16DE272E0D7
:1052500080E595E00E94DE2061E08DE00E940F0273
:1052600060E083E00E940F02CBCD7724739443C0AB
:1052700042E252E0BE01655C7F4FCE014E960E9435
:10528000B519882309F485C0CE01CB960E94DA0DAA
:10529000BE01625E7F4FCE0101960E94A30242E2F0
:1052A00052E0BE016F5F7F4FCE01885A9F4F0E9430
:1052B000F22084C08091870690918806009761F063
:1052C0000E94DA0D80918706909188060E94FB2B40
:1052D000109288061092870661E070E080E090E00E
:1052E0000E946502CE018D589F4F0E94D611A7CD16
:1052F0008D3009F0712CCE018D589F4F0E94B41152
:10530000882351F3CE018D589F4F0E941E18892B80
:1053100091F3CE018D589F4F0E943E198A3041F77C
:10532000772009F4A2CF62E772E0CE018D589F4F3B
:105330000E94DE2062E872E0CE018D589F4F0E94ED
:10534000DE206AE972E0CE018D589F4F0E94DE2078
:105350006AEB71E0CE018D589F4F0E9439201C826C
:105360001B821A8309831E82CE0101960E94000AC5
:10537000BE016F5F7F4FCE01CB960E94A30219A2A0
:1053800018A21F8F0E8F1BA221968FAD219781111E
:105390006FCF6C961FAE1EAE6C97A0968CAE9DAE76
:1053A000AEAEBFAEA0976A96DFAECEAE6A97E3967A
:1053B0001FAE1EAEE397A5961FAEA5976C968EAD59
:1053C0009FAD6C979093710680937006A0968CADFC
:1053D0009DADAEADBFADA09780937206909373065E
:1053E000A0937406B0937506A4968CAD9DADAEAD3A
:1053F000BFADA4978093760690937706A093780626
:10540000B0937906A8E5B0E0AC0FBD1F1C96EAE7A3
:10541000F6E08D91819396E0E738F907D1F7E396AE
:10542000EEADFFADE397F0938806E09387063097E3
:1054300009F452CF8581882309F44ECF8EE696E099
:105440000E94F302892B09F435CF8EE696E00E9484
:10545000080D682FCE018D589F4F0E94ED04EECFAE
:10546000F6E009311F0709F4F1CEC8010E94DA0DF8
:10547000EDCE882309F4EACE8E01025E1F4F902FF5
:10548000812F8701E92EF82E79CE86E009311807A1
:1054900009F4DCCEEACF8F929F92AF92BF92CF9267
:1054A000DF92EF92FF92CF93DF93EC0168817981D5
:1054B0008A819B81611571058105910521F464E262
:1054C00079ED8BE597E02DE133EF41E050E00E946C
:1054D000EF2A49015A019B01AC01A7EAB1E40E94FD
:1054E0000E2B6B017C01ACEEB4EFA50194010E9480
:1054F0001C2BC60ED71EE81EF91EF7FE06C081E063
:10550000C81AD108E10880E8F80AC882D982EA827C
:10551000FB82C701B6019F77DF91CF91FF90EF909B
:10552000DF90CF90BF90AF909F908F9008958F9213
:105530009F92AF92BF92CF92DF92EF92FF926091D3
:105540000C0170910D0180910E0190910F01611578
:1055500071058105910521F464E279ED8BE597E011
:105560002DE133EF41E050E00E94EF2A49015A015A
:105570009B01AC01A7EAB1E40E940E2B6B017C01F8
:10558000ACEEB4EFA50194010E941C2BC60ED71EF1
:10559000E81EF91EF7FE06C081E0C81AD108E1082E
:1055A00080E8F80AC0920C01D0920D01E0920E0141
:1055B000F0920F01C701B6019F77FF90EF90DF9047
:1055C000CF90BF90AF909F908F90089560930C0103
:1055D00070930D0180930E0190930F010895052E95
:1055E00097FB1EF400940E94062B57FD07D00E94E3
:1055F000212B07FC03D04EF40C94062B50954095BC
:10560000309521953F4F4F4F5F4F0895909580956E
:10561000709561957F4F8F4F9F4F08950E94432B48
:10562000A59F900DB49F900DA49F800D911D1124F6
:105630000895B7FF0C940E2B0E940E2B821B930B28
:105640000895A1E21A2EAA1BBB1BFD010DC0AA1FC3
:10565000BB1FEE1FFF1FA217B307E407F50720F0DB
:10566000A21BB30BE40BF50B661F771F881F991F56
:105670001A9469F760957095809590959B01AC019F
:10568000BD01CF010895A29FB001B39FC001A39FA8
:10569000700D811D1124911DB29F700D811D11246B
:1056A000911D0895692796276927782787277827E6
:1056B0000895EE0FFF1F0590F491E02D09940F93CC
:1056C0001F93CF93DF938230910510F482E090E036
:1056D000E0919706F091980630E020E0B0E0A0E07D
:1056E000309799F42115310509F44AC0281B390B6C
:1056F00024303105D8F58A819B816115710589F1C6
:10570000FB0193838283FE0111C04081518102819C
:10571000138148175907E0F04817590799F4109773
:1057200061F012960C93129713961C933296CF0148
:10573000DF91CF911F910F910895009397061093D9
:105740009806F4CF2115310551F04217530738F070
:10575000A901DB019A01BD01DF01F801C1CFEF0111
:10576000F9CF9093980680939706CDCFFE01E20F74
:10577000F31F819391932250310939832883D7CF26
:105780002091950630919606232B41F42091120129
:1057900030911301309396062093950620911001C5
:1057A000309111012115310541F42DB73EB74091DB
:1057B000140150911501241B350BE0919506F091D1
:1057C0009606E217F307A0F42E1B3F0B28173907A4
:1057D00078F0AC014E5F5F4F2417350748F04E0F4D
:1057E0005F1F5093960640939506819391939FCFA8
:1057F000F0E0E0E09CCFCF93DF930097E9F0FC016D
:10580000329713821282A0919706B0919806ED010B
:1058100030E020E01097A1F420813181820F931FA6
:1058200020919506309196062817390709F061C036
:10583000F0939606E0939506DF91CF910895EA01E3
:10584000CE17DF07E8F54A815B819E0141155105BE
:10585000B1F7E901FB83EA8349915991C40FD51F40
:10586000EC17FD0761F4808191810296840F951FEA
:10587000E90199838883828193819B838A83F0E005
:10588000E0E012968D919C9113970097B9F52D91B8
:105890003C911197CD010296820F931F209195069E
:1058A000309196062817390739F6309751F510923E
:1058B000980610929706B0939606A0939506BCCFD3
:1058C000D383C28340815181840F951FC817D907A4
:1058D00061F44E5F5F4F88819981480F591F518352
:1058E00040838A819B81938382832115310509F04E
:1058F000B0CFF0939806E09397069ECFFD01DC01B0
:10590000C0CF13821282D7CFFB01DC0104C08D917E
:105910000190801921F441505040C8F7881B990B21
:105920000895DC0101C06D9341505040E0F70895A7
:10593000FB01DC0101900D920020E1F70895FB01CD
:10594000DC014150504048F001900D920020C9F711
:1059500001C01D9241505040E0F70895F894FFCFE8
:10596000DEADBFEFFEEA00C0FFFFFFFF0100000059
:1059700000009906800001005E00000000000000A9
:10598000ED04A716471632161E183E199E128C14E7
:105990000F1E5819D611B411160513051105E2048E
:1059A00007058B19A31A6119030500000000B6044E
:1059B000C2164610AA00A60014198F120E15A413C1
:1059C0007511B90F9C1D0F12DE1AF5180810F80F8B
:1059D000F40FF00F000000004B01AB00D80098015D
:1059E0000901E700FB00000000008B0FAB007C0DFD
:1059F00045100000000023039C0F1303E70DF30282
:105A0000080D120D00000000942000000000CC04DE
:105A1000CD1746104510331590110D0A0057495AFD
:105A20006E657400496E697469616C697A696E6744
:105A300020534420636172642E2E2E00535543433D
:105A4000455353202D205344206361726420696EB6
:105A5000697469616C697A65642E004552524F52CF
:105A6000202D205344206361726420696E6974693B
:105A7000616C697A6174696F6E206661696C6564D6
:105A80002100696E6465782E68746D6C0045525211
:105A90004F52202D2043616E27742066696E64206A
:105AA000696E6465782E68746D6C2066696C65211A
:105AB0000053554343455353202D20466F756E6464
:105AC00020696E6465782E68746D6C2066696C65FB
:105AD0002E00485454502F312E3120323030204F78
